:020000040800F2
:10000000080C0020A9010008DB1E000845190008A3
:10001000D71E0008F5150008EF30000800000000AA
:10002000000000000000000000000000672B000836
:10003000091800080000000093270008792C000828
:10004000C3010008C3010008C3010008C301000880
:10005000C3010008C3010008C3010008C301000870
:10006000C3010008C3010008C3010008C301000860
:10007000C3010008C3010008C3010008C301000850
:10008000C3010008C3010008C3010008C301000840
:10009000C3010008C3010008C3010008C301000830
:1000A000C3010008C3010008C3010008C301000820
:1000B000392D0008C3010008C3010008C30100086E
:1000C000C3010008C3010008C3010008C301000800
:1000D000C3010008CD2E0008C3010008C3010008B9
:1000E000C3010008C3010008C301000800F002F8C2
:1000F00000F04AF80AA090E8000C82448344AAF178
:100100000107DA4501D100F03FF8AFF2090EBAE875
:100110000F0013F0010F18BFFB1A43F0010318473B
:10012000A4D40000C4D40000103A24BF78C878C119
:10013000FAD8520724BF30C830C144BF04680C60ED
:10014000704700000023002400250026103A28BF35
:1001500078C1FBD8520728BF30C148BF0B60704739
:10016000662907F02885642900F070800020704718
:100170001FB500F019FD04000020002106F04AFB25
:10018000E0601FBD10B510BD00F03EFE1146FFF748
:10019000EFFF04F0E7FE00F05CFE03B4FFF7F2FFB0
:1001A00003BC03F052F800000948804709480047A3
:1001B000FEE7FEE7FEE7FEE7FEE7FEE7FEE7FEE717
:1001C000FEE7FEE704480549054A064B7047000074
:1001D0007D2C0008ED00000808060020080C002017
:1001E0000808002008080020704710B54C1084EA69
:1001F000530404D54042C1F1000138BF491E1B42DF
:1002000004D55242C3F1000338BF5B1E00F096F9DB
:1002100014F0804F04D04042C1F1000138BF491EA4
:1002200014F0004F04D05242C3F1000338BF5B1EEC
:1002300010BD00000FB4044910B503AA029800F0E5
:100240007FFC10BC5DF814FB280000202DE9F04174
:100250000646002410687529314616A510D0AFF364
:100260000080002802DA404213A507E031688A07BF
:1002700001D512A502E0490704D511A5012401E02A
:10028000AFF3008000210A2206F1240709E0B0FB49
:10029000F2FCB0FBF2F302FB1C003030785418463D
:1002A000491C0028F3D123462A463046BDE8F041D8
:1002B00000F0C6B9000000002D0000002B00000077
:1002C000200000002DE9F05F894604464FF0000A47
:1002D000DFF874B1FB44C0F820A02046E1688847ED
:1002E000002874D0252806D0D4E901219047206A3F
:1002F000401C2062F1E700265F462046E1688847FF
:100300002028054607DB312D05D2781910F8200C7E
:1003100008B10643F1E7B00701D526F00406C4F89A
:100320001CA00027C4F818A02A2D09D0284602F0E6
:1003300085FF38B304EB8708303DC8F8185019E042
:1003400059F8041B204604EB87029161E168884755
:10035000012F054618D1E069002820DA26F0200692
:100360001DE0D8F8180000EB800005EB40003038A5
:10037000C8F818002046E1688847054602F05EFF8D
:100380000028EED1012F0AD02E2D08D12046E16899
:1003900088477F1C0546022F46F02006C4DBA06973
:1003A000002803DA404246F00106A061F00701D0C0
:1003B00026F010066C2D0BD0682D09D04C2D39D0AD
:1003C0006A2D35D0742D35D07A2D33D016E038E033
:1003D000E1682F4620468847B842054609D16C2F70
:1003E00026D04FF48060E1680643204688470546E2
:1003F00004E06C2F1AD04FF4807006430DB3A5F1C2
:100400004100192802D8203546F400664A4629469C
:10041000204626604E46FFF7A3FE80B101280BD090
:10042000F61D26F0070000F1080956E74020E4E732
:100430008020D8E70020D6E706F104094DE72846DA
:1004400052E7206ABDE8F09F01D1000040EA0103B5
:1004500010B59B070FD1042A0DD310C808C9121F6D
:100460009C42F8D020BA19BA884201D9012010BDA7
:100470004FF0FF3010BD1AB1D30703D0521C07E074
:10048000002010BD10F8013B11F8014B1B1B07D1D8
:1004900010F8013B11F8014B1B1B01D1921EF1D149
:1004A000184610BD02F0FF0343EA032242EA02426B
:1004B00000F05ABB4FF0013C50F8042B51F8043BBC
:1004C0009A4221D1A2EB0C03934313EACC1317D128
:1004D00050F8042B51F8043B9A4215D1A2EB0C03BF
:1004E000934313EACC130BD150F8042B51F8043B7F
:1004F0009A4209D1A2EB0C03934313EACC13DBD04D
:100500004FF00000704700BFD01A01BAB1FA81F174
:1005100001F0180122FA01F0CB40C1F12001DBB259
:10052000C0B2C01A2CFA01F3D11A914311EAC311D7
:10053000E6D17047704770477047704753EA020C26
:1005400000F069802DE9F04B4FF00006002B1FBF33
:10055000B3FA83F503FA05F424FA05F65E4012BFF8
:100560001643B2FA82F502FA05F4C5F120051EBF62
:1005700022FA05FC44EA0C04203556EA044C4FEA02
:10058000144418BF641C4FF000084FF0000990425B
:1005900071EB030C39D3002919BFB1FA81F701FAC5
:1005A00007F6B0FA80F700FA07F6C7F120071EBF7A
:1005B00020FA07FC46EA0C062037B6FBF4FCA7EB52
:1005C0000507103F07F01F0BCBF120060CFA0BFBC1
:1005D0002CFA06F644BFB3460026202FA4BF5E4681
:1005E0004FF0000B5BEA060C08BF4FF0010B19EB54
:1005F0000B09ABFB027C48EB0608C01B06FB02CCD8
:100600000BFB03CC71EB0C01C1E70B4602464146E4
:100610004846BDE8F08B13B54FF000004FF00001E5
:10062000AFF30080BDE81C40704710B500F0C0FA81
:10063000006810BD10B5044600F0BAFA046010BDA1
:100640002DE9F0470D4699469246044600F12408EC
:100650000168880604D5E06921F01001216000E0FE
:100660000120A84201DD471B00E00027A1697A199B
:1006700002EB0900081AA0612078C00602D42046C7
:10068000AFF30080002608E0D4E901211AF8060043
:100690009047206A401C761C20624E45F4DB20788F
:1006A000C0060AD52046AFF3008006E0D4E9012158
:1006B00030209047206A401C2062381EA7F10107B5
:1006C000F4DC07E0D4E9012118F805009047206A1E
:1006D000401C2062281EA5F10105F3DC2046AFF383
:1006E00000802078000602D50220BDE8F0870120B6
:1006F000FBE770472DE9FF4F0C461E464FF0FF37D2
:100700008BB0D2E90001DDF860800A908A46C1F31F
:100710000A5505B93D46002108464FF00000BAF1E0
:10072000000F00F4400005DA00EB80004FF44001B8
:1007300001EA50004FEA9059B9F1010F00DDB946C6
:100740000A9850EA4A000ED044F61050A5F2FF3540
:1007500045432F14B8F1000F1ED07542291E1EDD2F
:10076000C9F100021CE0B8F1010F4FF0000001D008
:10077000302103E0F24305E02154401CB042FBDB92
:1007800030460022002121540B99C1F80880C1E9AC
:1007900000200FB0BDE8F08FBD1B6D1CDEE74A46A0
:1007A00000DA694206A800F08DFA06AB93E807006C
:1007B00003AB83E8070050460A9900F053FB8DE82D
:1007C0000700A0F500501F3800900398002D0ADDA7
:1007D00042F21F014A460844002303A903906846D9
:1007E00000F0BCFD09E0A0F500504A461F38002388
:1007F00003A90390684600F0C6FD8DE807000004D9
:10080000000C03D04FF0FF30410800E01046B8F173
:10081000000F03D00022009215461EE0751E05D47D
:1008200000F0CAF9303262556D1EF9D5B346012287
:10083000084302D000227F1C04E02078302801D138
:1008400000227F1E002A099784D01DE0112D07DAAF
:1008500000F0B2F9303262556D1C50EA0102F5D158
:10086000084302D00098C8B10EE00021681E05E0E0
:10087000235C625C63542254401E491C8142F7DBB6
:10088000AB46A81B401E0990002004F80B000B98F3
:10089000099AC0F80880C0E9002B7AE711264FF0CA
:1008A000000857E72DE9F04F88460446D21D22F094
:1008B000070191B0D1E90001CDE90A0102F042FC43
:1008C00002460B98C00F01D02D2007E02068810759
:1008D00001D52B2002E0202101EAC000032A099063
:1008E00001D0072A05DB03464146204600F0AAF95D
:1008F0000BE12078800601D5E06900E00620B8F120
:10090000650F814606D0B8F1660F18D0B8F1670FB1
:1009100070D131E00020B9F1110F009001DB1123FB
:1009200001E009F101030AAA01A90CA8FFF7E2FE00
:10093000DDE90C70002609F10105834647E001203E
:100940004B4600904FF000470AAA01A90CA8FFF7F8
:10095000D1FEDDE90DB00C995D46002610B909F114
:1009600001000D18B9EB050003D4C0F1FF3609F101
:100970000105A5EB09002BE0B9F1010F01DA4FF0F9
:1009800001090020B9F1110F0090484601DD112343
:1009900000E003460AAA01A90CA8FFF7ABFEDDE9B7
:1009A0000C704D4600268346207800070AD4AB45DC
:1009B00000DA5D4601A8012D04DD411911F8011C82
:1009C000302907D04F4502DA17F1040F04DA01206D
:1009D00082460FE06D1EEEE7002F02DCED1B3E4469
:1009E00003E0781CA84200DD7D1CB81B00F1010A61
:1009F0004FF000472078000703D4AA4501DB4FF0F1
:100A0000FF3A0021B7F1004F0DF143088DF8431074
:100A100024D002202B23002F01DA7F422D230A212C
:100A2000021EA0F1010000DC5FB197FBF1FC97FB17
:100A3000F1F201FB1C7C17460CF1300C08F801CDDB
:100A4000EEE7A8F1010003702188090501D54521D1
:100A500000E06521A0F1010800F8011C09980FA928
:100A6000A1EB0807FF1D00B10120411901EBEA705D
:100A7000A1693844081A401EA0612078C00602D43B
:100A80002046AFF30080099828B1D4E901219047AE
:100A9000206A401C20622078C00622D52046AFF391
:100AA00000801EE0002E04DBB34502DD01A8805D5E
:100AB00000E03020D4E901219047206A401C2062E8
:100AC000761CAAF101005FEA000A0AD100F06CF876
:100AD000C0680168405CD4E901219047206A401C4D
:100AE0002062281EA5F10105DCDC07E0D4E9012124
:100AF00018F8010B9047206A401C2062381EA7F1AD
:100B00000107F3DC2046AFF30080032011B041E67B
:100B100001694A1C02610878704700B58FB0CDE9C1
:100B200001310021059105497944CDE903101146B1
:100B30006846FFF7C7FB0FB000BD0000E5FFFFFFF1
:100B4000074B70B50D467B44FFF7E7FF0446284688
:100B500000F02AF910B14FF0FF3070BD204670BD93
:100B6000133B00004FF000020429C0F0128010F087
:100B7000030C00F01F81CCF1040CBCF1020F18BF74
:100B800000F8012BA8BF20F8022BA1EB0C0100F00C
:100B900011B95FEAC17C24BF00F8012B00F8012BDA
:100BA00048BF00F8012B704700487047C40500207B
:100BB00000487047A405002030B5B0F10A024FEAA2
:100BC000900E71F100034EEA817EB0EB0E0061EBF6
:100BD00091014FEA101E4EEA017E10EB0E0041EB30
:100BE00011114FEA102E4EEA016E10EB0E0041EB90
:100BF00011214FEA104E4EEA014E10EB0E0041EB70
:100C00001141401841F100014FEAD00040EA417023
:100C10004FEAD10110EB80054FEA810444EA907459
:100C200044EB01046D1944EB0404521BA3414FF043
:100C3000000348BF0A3200D530BD401C41F100011D
:100C400030BD00002DE9F0411F460446032601682F
:100C5000072A01F4006004DB08B116A505E016A51B
:100C600003E008B115A500E015A521F010002060F3
:100C7000A069C01EA0610FB1401EA0612046AFF365
:100C800000804FB1D4E9012138469047206A401CCA
:100C90002062C01C206206E0206AFAE7D4E9012144
:100CA00015F8010B9047761EF8D22046AFF300806E
:100CB000BDE8F0814E414E006E616E00494E460027
:100CC000696E66002DE9F047814616468AB03548C0
:100CD00078440DC88DE80D0032487844801C03AC80
:100CE0000DC884E80D0041F69B300844372190FB85
:100CF000F1F290FBF1F5A5F1800501FB12041B3C1C
:100D000002D56442012000E00020DFF898A0804670
:100D10000027FA44AAF1BE0A0EE0E0070AD03246E4
:100D2000684607EB470101230AEB810100F02BFB2A
:100D30008DE8070064107F1C002CEED1194F7F4412
:100D4000AE3F19E0E80715D007EB04100DF1180AC3
:100D500090E80E008AE80E00C068F04201D19819B0
:100D600008903246012306A903A800F00CFB03AB50
:100D700083E807006D10641C002DE3D14FF00103E0
:100D800032466946B8F1000F03A802D000F0E6FA37
:100D900001E000F0F8FAC9E90001C9F808200AB03A
:100DA000BDE8F08788C80000007B00F08000704735
:100DB0004FF0000200B5134694469646203922BFF4
:100DC000A0E80C50A0E80C50B1F12001BFF4F7AF3F
:100DD000090728BFA0E80C5048BF0CC05DF804EB21
:100DE000890028BF40F8042B08BF704748BF20F88F
:100DF000022B11F0804F18BF00F8012B7047000044
:100E000000487047A40500207546FFF7F9FFAE467D
:100E100005006946534620F00700854618B020B506
:100E2000FFF7D0F9BDE820404FF000064FF0000773
:100E30004FF000084FF0000B21F00701AC46ACE882
:100E4000C009ACE8C009ACE8C009ACE8C0098D46EF
:100E5000704710B50446AFF300802046BDE810404F
:100E6000FFF79BB95FEA400C08BF91F0000F4FEA13
:100E70008C234FEAC12243EA51514FEA1C5018BF5C
:100E800000F5F0404FEA300018BF41F000415FEA42
:100E90006C5C00F02980BCF1FF3F08BF40F080404F
:100EA0007047130C06BF12044FF0100C4FF0000CEB
:100EB000130E04BF12020CF1080C130F04BF120131
:100EC0000CF1040C930F04BF92000CF1020CD30F31
:100ED00004BF52000CF1010C11464FF00002A0F1CA
:100EE0001F00A0EB0C00704711F0004F08BF7047C7
:100EF00031F000413FF4D5AF0B0C06BF09044FF0B1
:100F0000100C4FF0000C0B0E04BF09020CF1080C82
:100F10000B0F04BF09010CF1040C8B0F04BF8900F7
:100F20000CF1020CCB0F04BF49000CF1010CCCF109
:100F30002003A0EB0C0022FA03F302FA0CF241EAC0
:100F4000030100F10100704720F07F4C80EA0300AC
:100F500023F07F47ACEB070303F57C5300F0004020
:100F600003F1FF032DE980494FEA154B09B44FEA1D
:100F7000144325EA0B4E24EA03480FF2042606EB3D
:100F8000132749083E785FEA320203FB0667C7F57C
:100F9000000707FB06F64FEA54374FEAD64606F13C
:100FA000020607FB066CCCF1005C4FEA1C472CEAFA
:100FB000074C07FB06F40CFB06F504EB15464FEA5D
:100FC000961634BF00204FF000404FEAD13706FBA1
:100FD00007FC4FEA1C4C0CFB0BF7D21B03FB0CF776
:100FE00061EB07010CFB0EF7B0EB074072EB174209
:100FF0000CFB08F734BFA2EB0742B2EB074261EBF0
:1010000017414FEA0C444FEA910706FB07FC4FEAF1
:101010001C4C0CFB0BF7B0EBC74072EB573203FBD9
:101020000CF734BFA2EBC742B2EBC74261EB5731BA
:101030000CFB0EF7B0EBC70072EB57720CFB08F716
:1010400034BFA2EBC702B2EBC70261EB5771039F3B
:101050004FEA816141EA921104EBCC044FEAD137A7
:101060004FEA826206FB07FC42EA90124FEA806078
:101070004FEA1C4C0CFB0BF7D21B03FB0CF761EB8C
:1010800007010CFB0EF7B0EB074072EB17420CFBAD
:1010900008F734BFA2EB0742B2EB074261EB1741FE
:1010A0004FEA8C554FEA910704EB9C2406FB07FCA2
:1010B0004FEA1C4C0CFB0BF7B0EBC74072EB5732FE
:1010C00003FB0CF734BFA2EBC742B2EBC74261EBA4
:1010D00057310CFB0EF7B0EBC70072EB57720CFBED
:1010E00008F734BFA2EBC702B2EBC70261EB57713E
:1010F00015EB4C254FEA816141EA92114FEA826279
:101100004FEAD13742EA901206FB07FC44F1000493
:101110004FEA80604FEA1C4C0CFB0BF7D21B03FB21
:101120000CF761EB07010CFB0EF7B0EB074072EB1D
:1011300017420CFB08F734BFA2EB0742B2EB0742A1
:1011400061EB174115EB1C154FEA813141EA9241E1
:101150004FEA823242EA90424FEA80304FEA0C7600
:1011600044F1000448EA03434EEA0B484FF0000EF6
:10117000B2EB080C71EB030724BF624639464EEB15
:101180000E0E4FF0000B0018524149414BEB0B0B78
:10119000B2EB080C71EB03077BF1000B24BF624636
:1011A00039464EEB0E0E4FF0000B001852414941EC
:1011B0004BEB0B0BB2EB080C71EB03077BF1000B55
:1011C00024BF624639464EEB0E0E51EA020718BFA5
:1011D00046F0010616EB0E7655F1000254F10001BF
:1011E00003D5BDE88901BDE80088BDE88901BDE8F7
:1011F0000048B619524141EB0101A3F101037047C8
:1012000080807F7E7D7C7B7A797877767675747343
:10121000727171706F6E6E6D6C6C6B6A6A69686802
:10122000676666656464636362616160605F5F5E98
:101230005E5D5D5C5C5B5B5A5A595958585757560E
:101240005655555554545353525252515150505073
:101250004F4F4F4E4E4D4D4D4C4C4C4B4B4B4A4AC5
:101260004A49494948484847474747464646454509
:101270004544444444434343434242424241414142
:10128000002B9C4630D477002BD01CB54FEA370793
:1012900003B44FF010004FF01001BAF1000F06D068
:1012A000BCF1000FDCBF40F0080040F008014FF037
:1012B00000000FBCBDE810400BF1010BBBF1010FAA
:1012C00008BF5FEA170722BF12F1010211F1010105
:1012D0004FF0004143F1000300F0004043EA0000FA
:1012E0007047F9D35708D0E746EA064613F1400F96
:1012F0004FEA16461FDD13F1200FDFBF16430A46E3
:10130000002120335B42BED0C3F1200746EA0646E7
:1013100002FA07F74FEA164646EA0706C3F1200726
:1013200022FA03F201FA07F721FA03F14FF0000362
:1013300042EA0702A7E746EA020646EA06464FEAFD
:10134000164646EA0106BCBF46EA0646360C4FF092
:1013500000034FF000024FF0000194E72DE9804CAC
:101360009A46934670B491E8380007C831EA400CB9
:1013700048BF34EA430C03D5FFF7E6FDFFF780FFD3
:10138000F0BCBDE8008C2DE9804C9A46934670B4C1
:1013900091E8380007C810F0804F08BF13F0804F65
:1013A00003D100F005F8FFF76BFFF0BCBDE8008C3F
:1013B00020F07F4780EA030023F07F4C07EB0C030B
:1013C000A3F57C5300F00040A3F1FE0392F0000F60
:1013D00000F0B38095F0000F00F077802DE901490F
:1013E0004FEA11404FEA144621EA004800FB06FC90
:1013F00024EA064708FB06F607FB08F800FB07F798
:1014000018EB06484CEB164C4FEA124B18EB07480A
:101410004FEA15464CEB174022EA0B4E0BFB06FC3D
:1014200025EA06470EFB06F607FB0EFE0BFB07F749
:101430001EEB064E4CEB164C4FF000061EEB074E13
:101440004CEB174B18EB0B0840F1000018EB0E0BA0
:1014500058EB000840F100008F1A4FF000013CBF2C
:10146000C943661B14BFB5EB040C00213CBFC94344
:10147000F61B4FEA17444EEA8E0E27EA04454FEA60
:101480001C4704FB07622CEA074C05FB07F70CFB23
:1014900005F604FB0CFC16EB074642EB174216EB75
:1014A0000C4642EB1C421BEB060658EB0202414184
:1014B00046EA9E0601D5BDE80189B619524141EBC5
:1014C0000101A3F10103BDE801894FEA14454FEA88
:1014D000114724EA054621EA074C05FB07F406FB01
:1014E00007F70CFB06F105FB0CFC11EB074144EB85
:1014F00017444FEA124711EB0C4144EB1C4422EA1B
:10150000074C05FB07F206FB07F70CFB06F605FB8D
:101510000CFC16EB074642EB174216EB0C4642EB6F
:101520001C456A1854F1000148BF7047B619524172
:1015300041EB0101A3F10103704795F0000F37D093
:101540004FEA11424FEA144721EA024624EA074CC7
:1015500002FB07F106FB07F70CFB06F402FB0CFC91
:1015600014EB074441EB17414FEA154714EB0C44C9
:1015700041EB1C4125EA074C02FB07F506FB07F788
:101580000CFB06F602FB0CFC16EB074645EB174579
:1015900016EB0C4645EB1C42121951F1000148BFF5
:1015A0007047B619524141EB0101A3F101037047A5
:1015B0004FEA14454FEA114724EA054621EA074C51
:1015C00005FB07F106FB07F70CFB06F24FF00006E0
:1015D00005FB0CFC12EB074241EB174112EB0C42EE
:1015E00051EB1C4148BF7047921841EB0101A3F138
:1015F0000103704700BFFEE738B5002000906B463E
:1016000001227521682003F051FB2CA0FEF712FE89
:101610009DF8000068280ED000BF3148006800F433
:10162000E06030490843001D2D490860BFF34F8F2B
:1016300000BF00BFFEE703F059FE00283CD1782030
:1016400004F05EFC10B91DA0FEF7F4FD782003F055
:101650003BFD10B924A0FEF7EDFDC82004F002FC0C
:1016600010B92BA0FEF7E6FD02F094FB10B932A0F2
:10167000FEF7E0FD3D4803F084FB044602F0E4FD84
:1016800010B93BA0FEF7D6FD40F2731002F02AFA23
:1016900010B941A0FEF7CEFDC82002F005FD10B93B
:1016A00047A0FEF7C7FD04F01FFD012004F0D6FAA5
:1016B00010B94CA0FEF7BEFD38BD00006D70755F1F
:1016C0007365745F73656E736F7220636F6D706C9A
:1016D000657465202E2E2E2E2E2E0D0A0000000081
:1016E0000CED00E00000FA056D70755F636F6E66CB
:1016F00069677572655F6669666F20636F6D706C90
:10170000657465202E2E2E2E2E2E0D0A0000000050
:101710006D70755F7365745F73616D706C655F721A
:1017200061746520636F6D706C657465202E2E2E5C
:101730002E2E2E0D0A000000646D705F6C6F6164C8
:101740005F6D6F74696F6E5F6472697665725F66F4
:1017500069726D7761726520636F6D706C65746519
:10176000202E2E2E2E2E2E0D0A00000054000020BA
:10177000646D705F7365745F6F7269656E746174B8
:10178000696F6E20636F6D706C657465202E2E2EF0
:101790002E2E2E0D0A000000646D705F656E616272
:1017A0006C655F6665617475726520636F6D706CE2
:1017B000657465202E2E2E2E2E2E0D0A00000000A0
:1017C000646D705F7365745F6669666F5F72617484
:1017D0006520636F6D706C657465202E2E2E2E2E25
:1017E0002E0D0A006D70755F7365745F646D705FB8
:1017F000737461746520636F6D706C657465202E01
:101800002E2E2E2E2E0D0A0070472DE9F041024695
:1018100000250026002000230024002791F803C0A3
:101820000CF00F0591F803C00CF0100CBCF1000F88
:1018300003D091F802C04CEA050591F800C0BCF154
:10184000000F31D0146800202BE04FF0010C0CFA8F
:1018500000F3B1F800C00CEA03069E4220D18300D9
:101860004FF00F0C0CFA03F7BC4305FA03FC4CEAEB
:10187000040491F803C0BCF1280F06D14FF0010C0D
:101880000CFA00FCC2F814C00AE091F803C0BCF1E5
:10189000480F05D14FF0010C0CFA00FCC2F810C043
:1018A000401C0828D1D31460B1F800C0BCF1FF0F70
:1018B00034DD546800202EE000F1080C4FF00108E0
:1018C00008FA0CF3B1F800C00CEA03069E4221D1DD
:1018D00083004FF00F0C0CFA03F7BC4305FA03FC2E
:1018E0004CEA040491F803C0BCF1280F05D100F1C3
:1018F000080C08FA0CF8C2F8148091F803C0BCF187
:10190000480F07D100F1080C4FF0010808FA0CF855
:10191000C2F81080401C0828CED35460BDE8F08186
:101920000246002093680B400BB1012000E000202C
:10193000704741617047016170470AB1016100E081
:101940004161704700BFFEE770B505460E460024B2
:1019500000F0FAF8284600F0BFF8641C00F04CF9DB
:10196000304600F0B9F8641C00F046F900F0ECF8DD
:10197000691CC8B200F0B0F8641C00F03DF900200A
:1019800000F074F8044600F013F9204670BD000022
:1019900010B500200E4908600E48006820F4704021
:1019A0000C4908600846006840F440500860002078
:1019B0000949C1F8AC0100F011F8012004490860A0
:1019C00000F00CF800200449C1F8A80110BD000087
:1019D000A8812142040C01400080214210B5022060
:1019E00002F03CF810BD000008B50121082000F00D
:1019F000E1FE4FF44060ADF8000010208DF80300C8
:101A000003208DF8020069460448FFF7FEFE4FF4FC
:101A100040610248FFF78FFF08BD0000000C014045
:101A200010B500200E4908600E48006820F4704090
:101A30000C4908600846006840F4405008600120E6
:101A40000949C1F8AC01FFF7C9FF0120044908604A
:101A5000FFF7C4FF00200449C1F8A80110BD000031
:101A6000A8812142040C01400080214270B5054646
:101A700000241648006820F47040144908600846A5
:101A8000006840F400400860002614E0002010497F
:101A90000860FFF7A3FF01200E49C1F8A801600606
:101AA000040E0B487C38006808B1601CC4B2FFF714
:101AB00095FF701CC6B2082EE8DB15B9FFF7B0FF22
:101AC00001E0FFF765FF204670BD0000040C0140F7
:101AD000A88121420080214270B504461748006861
:101AE00020F47040154908600846006840F44050F2
:101AF000086000201249086000251BE0E00920B1C1
:101B000001200F49091D086003E000200C49091D50
:101B100008606006040EFFF761FF012008490860B5
:101B2000FFF75CFF00200749C1F8A801FFF756FF47
:101B3000681CC5B2082DE1DB70BD0000040C01403B
:101B4000A88121420080214210B51648006820F487
:101B50007040144908600846006840F4405008602E
:101B60000120114908601148D0F82C0108B9002063
:101B700010BD01200C49091F0860FFF72FFF00204E
:101B80000A49C1F8AC0108488038006808B1002053
:101B9000EEE7FFF723FF00200349091F086001203B
:101BA000E6E70000040C0140AC81214200802142A4
:101BB00010B50E48006820F470400C4908600846D3
:101BC000006840F440500860002009490860094955
:101BD000C1F8AC01FFF702FF012005490860054983
:101BE000C1F8AC01FFF7FAFE10BD0000040C014083
:101BF000A88121420080214210B5002415480068C8
:101C000020F47040134908600846006840F4004022
:101C10000860012010490860FFF7E0FE01200F492D
:101C2000C1F8A801FFF7DAFE09E0601CC4B2642C19
:101C300003DDFFF7BDFF002010BDFFF7CFFE064814
:101C4000803800680028F0D10349091F086001208E
:101C5000F2E70000040C0140AC81214200802142E7
:101C600070B505460E46144631462846FFF76CFE11
:101C70002070012070BDF8B506460F4614461D467B
:101C80006A4639463046FFF7EBFF2DB10120A040F0
:101C90009DF80010084305E00120A0409DF80010C9
:101CA00021EA0000C0B200909DF80020394630467D
:101CB00000F036F8F8BD2DE9F8430746884614468B
:101CC0001D46089E6A4641463846FFF7C9FF28B3BD
:101CD000601CFF2101FA00F0C4F108012944491EEB
:101CE000FF220A41104300F0FF09C5F1080006FA7F
:101CF00000F0C6B2C4F1070006419DF8000000EAFA
:101D0000090000909DF80000304300909DF80020ED
:101D10004146384600F004F8BDE8F8830020FBE7B0
:101D200037B504460D4602AB01222946204600F095
:101D300001F83EBD2DE9F04180460D4616461F468E
:101D40000024FFF701FF4046FFF7C6FEFFF754FFF0
:101D50002846FFF7C1FEFFF74FFF00BF06E0385DE2
:101D6000FFF7BAFEFFF748FF601CC4B2B442F6DBCF
:101D7000FFF71EFF0120BDE8F081000070B50124CF
:101D8000002504210C48FFF7CBFD90B9142001F089
:101D90002FFE00BF04210848FFF7C2FD0028F9D03C
:101DA000142001F025FE2546601CC4B2032C00D18E
:101DB0000224284670BD00000008014008B501213A
:101DC000082000F0F7FC48208DF803000420ADF84F
:101DD000000003208DF8020069460248FFF715FD58
:101DE00008BD00000008014010B502210148FFF7BE
:101DF000A0FD10BD0008014010B502210148FFF709
:101E00009AFD10BD0008014008B50121042000F032
:101E1000D1FC10208DF803000220ADF80000032053
:101E20008DF8020069460448FFF7EFFC02210248E2
:101E3000FFF77FFD08BD00000008014010B502203B
:101E400000F010F8032000F021F8002000F014F852
:101E5000002000F037F8002000F02BF8002000F000
:101E60001FF810BD38B50446032302226B21D02091
:101E70000094FFF720FF38BD38B504460223042242
:101E80001C21D0200094FFF716FF38BD38B504465A
:101E9000022304221B21D0200094FFF70CFF38BD41
:101EA00010B50446234601223721D020FFF7E3FE78
:101EB00010BD10B50446234605226A21D020FFF745
:101EC000DAFE10BD10B50446234606226B21D02051
:101ED000FFF7D1FE10BD00BFFEE770471FB519A187
:101EE00003C9CDE9020100200090019001F016F92C
:101EF000012001F01DF9002001F0FCF8052202A9E3
:101F0000302000F039F905226946102000F0BAF8B7
:101F10009DF80000112812D19DF8010022280ED151
:101F20009DF8020033280AD19DF80300442806D109
:101F30009DF80400552802D1002004B010BD0120F6
:101F4000FBE70000112233445500000010B500F0FB
:101F500009F800BFFFF7C2FF0028FBD100F05AF8D4
:101F600010BD000008B501210C2000F023FC10205A
:101F70008DF80300ADF8000003208DF802006946DB
:101F80002248FFF742FC10208DF803002020ADF816
:101F9000000003208DF8020069461C48FFF735FC5D
:101FA00010208DF803008020ADF8000003208DF88C
:101FB000020069461548FFF728FC0120ADF8000033
:101FC00010208DF8030003208DF8020069461048A8
:101FD000FFF71BFC48208DF803004020ADF80000FF
:101FE00003208DF8020069460848FFF70EFC022026
:101FF000ADF8000048208DF8030003208DF80200A2
:1020000069460348FFF701FC08BD000000080140D5
:10201000000C014010B5002001F06CF820213120A7
:1020200000F0C6F84FF0FF316FF01D0000F0C0F86F
:1020300005221249302000F09FF8052210492A207D
:1020400000F09AF80121212000F0B2F801212220AD
:1020500000F0AEF81A21242000F0AAF80021252073
:1020600000F0A6F80F21262000F0A2F80F21202072
:1020700000F09EF8012001F03DF810BDAA7C000898
:10208000AF7C00082DE9F04107460D4616460020BA
:1020900001F04EF8384600F045FD8046002406E089
:1020A0004FF0FF3000F03EFD2855601C44B2B442B2
:1020B000F6DB012001F03CF84046BDE8F08170B548
:1020C0000446002001F034F8204600F02BFD4FF0CC
:1020D000FF3000F027FD0546012001F029F82846D1
:1020E00070BD10B50446002001F004F80E21202038
:1020F00000F05EF8012000F0FDFF0F2001F0AEFCC3
:10210000204600F00BF8002000F0F4FF0F21202003
:1021100000F04EF8012000F0EDFF10BD70B505464F
:10212000002000F0E7FF202229466FF05F0000F05A
:1021300023F8012000F0DEFF00BF00F0B5FB01280E
:10214000FBD00720FFF7BBFFC4B261B2272000F02D
:102150002FF804F0100038B14FF0FF316FF01E007F
:1021600000F026F8102070BD04F0200008B12020F7
:10217000F9E74FF0FF30F6E72DE9F04107460C464E
:102180001546002000F0D4FF384600F0CBFC804616
:10219000002605E014F9010B00F0C4FC701C46B2E7
:1021A000AE42F7DB012000F0C3FF4046BDE8F081FE
:1021B00070B505460C46002000F0BAFF284600F036
:1021C000B1FC0646204600F0ADFC012000F0B0FF57
:1021D000304670BD70B5002100230F22C47804B3CF
:1021E000154C246804F4E064C4F5E064210AC1F1EC
:1021F0000403CA40447804FA03F18478144021436C
:1022000009010E4C0678A155047804F01F0501243D
:10221000AC4005786D11AD0005F1E025C5F8004131
:1022200009E0047804F01F050124AC40044D067851
:10223000761145F8264070BD0CED00E000E400E0AA
:1022400080E100E000200CE0002106E00022064BC7
:1022500003EBC0135A544A1CD1B28029F6DB421C4E
:10226000D0B20828F0DB7047940100202DE9F0433C
:1022700004460D4616461F467F2C01DDBDE8F0835F
:102280003F2D00DDFAE7A119802902DDC4F18001AC
:10229000CEB2E919402902DDC5F14001CFB228468E
:1022A00030E0234629E04FEAE07C00EB5C7C4FEA1B
:1022B000EC0CDFF85C8008EBCC1C1CF803C0024679
:1022C0004FEAE07800EB58784FEAE808A0EBC8093D
:1022D0004FF0010808FA09F82CEA080C01464FEA09
:1022E000E07800EB58784FEAE808DFF8249009EB33
:1022F000C81808F803C0591CCBB2A1199942D2DC06
:10230000411CC8B2E9198142CBDC00BFB6E700002E
:102310009401002038B5002406E0002500E06D1C83
:10232000B5F57A7FFBD3641CB4F57A7FF5D3012130
:10233000082000F03FFA14208DF8030003208DF8E8
:1023400002004FF48070ADF8000069460848FFF7BE
:102350005CFA4FF40070ADF8000069460448FFF7DE
:1023600054FA012000F0D6F9012000F0DFF938BD61
:10237000000C014070B50546002411E08021214188
:10238000294009B1012100E00021084600F0CEF902
:10239000012000F0BFF9002000F0BCF9601CC4B2BD
:1023A000082CEBDB012000F0B5F9002000F0B2F9B9
:1023B00070BD10B5012000F0B9F9012000F0AAF9B4
:1023C000002000F0B3F9002000F0A4F910BD10B512
:1023D000002000F0ABF9012000F09CF9012000F092
:1023E000A5F910BD10B5FFF795FFAE2000F0AAF9D2
:1023F000D52000F0A7F9802000F0A4F9A82000F073
:10240000A1F93F2000F09EF9D32000F09BF90020B5
:1024100000F098F9402000F095F9A12000F092F921
:10242000C82000F08FF9DA2000F08CF9122000F0BB
:1024300089F9812000F086F9CF2000F083F9D920B6
:1024400000F080F9F12000F07DF9DB2000F07AF94E
:10245000302000F077F9A42000F074F9A62000F0F5
:1024600071F98D2000F06EF9142000F06BF9AF20A7
:1024700000F068F9FFF7E6FE00F038F910BD70B51E
:1024800005460C4645F0B00000F05CF9102141EA29
:10249000141000F057F904F00F0000F053F970BD6C
:1024A000F8B506460F4614461D46082D0CD1A4F17A
:1024B00020000E4901EB001010230822394600903D
:1024C000304600F065F80FE0062D0DD1A4F1200094
:1024D00000EB4000064901EB400008230622394684
:1024E0000090304600F054F8F8BD0000FA8800086B
:1024F000EA8E00082DE9FC478046894616460027EB
:102500000020019000253AE0705D01A9C855781CB3
:10251000C7B2022F31DB002700240CE0C4EBC4015A
:1025200001EB8101184A881801A9FDF7C3FF00B922
:102530000CE0601CC4B2C4EBC40101EB8101124A7F
:10254000881812A1FDF7B6FF0028E7D100BFC4EB41
:10255000C40000EB80000C490844C01C05F1010ACE
:102560000AEBDA714910491E08EB01110090C8B25C
:1025700010231A46494600F00BF8681CC5B2705D7E
:102580000028C1D1BDE8FC872491000800000000AC
:102590002DE9F04707460C4690469946DDF820A005
:1025A0007F2F01DDBDE8F0873F2C00DDFAE74B46C9
:1025B000424621463846FFF759FE002570E00026C6
:1025C00069E0B8197F2800DD67E0E11704EB51717D
:1025D00005EBE101072900DDE4E72046E21704EB03
:1025E000527205EBE202344B03EBC212BB19D25C10
:1025F0002146E31704EB5373DB10A4EBC30305FB85
:10260000086C1AF80CC00CFA03FC42EA0C02E3173F
:1026100004EB537305EBE303DFF89CC00CEBC3132F
:1026200007EB060C03F80C20E11704EB517105EBE6
:10263000E101491C072900DD2BE02046E21704EBED
:10264000527205EBE202521C1B4B03EBC212BB1988
:10265000D25C2146E31704EB5373DB10A4EBC303F6
:10266000C3F1080305FB086C1AF80CC04CFA03FC14
:1026700042EA0C02E31704EB537305EBE3035B1C24
:10268000DFF834C00CEBC31307EB060C03F80C2087
:1026900000BF701CC6B2464593DB00BF681CC5B2C4
:1026A000A9F10100C11700EB5171012202EBE10118
:1026B000A94284DC00BF75E7940100202DE9F041B8
:1026C0000646884615461F46002409E02A5D04FB9D
:1026D0000761C8B23B464146FFF7E2FE601CC4B248
:1026E000285D0028F2D1BDE8F081000010B500247B
:1026F0000BE000212046FFF7C2FE054901EBC410A4
:10270000802100F02FF8601CC4B2082CF1DB10BD52
:102710009401002010B5044622464FF4807102480F
:10272000FFF70BF910BD0000000C014010B5044686
:1027300022464FF400710248FFF7FFF810BD000079
:10274000000C014010B50446FFF733FE7820FFF778
:1027500011FE0020FFF70EFE2046FFF70BFEFFF7ED
:1027600036FE10BD70B505460E46FFF722FE7820F6
:10277000FFF700FE4020FFF7FDFD002404E0285D88
:10278000FFF7F8FD601CC4B2B442F8DBFFF71FFE90
:1027900070BD704729B1064AD2690243044BDA6121
:1027A00004E0034AD2698243014BDA6170470000BA
:1027B0000010024029B1064A92690243044B9A6113
:1027C00004E0034A92698243014B9A61704700001A
:1027D0000010024030B500210022002400232D4DBE
:1027E0006D6805F00C0121B1042905D0082923D119
:1027F00005E0294D056022E0274D05601FE0254DCD
:102800006D6805F47012234D6D6805F4803402255F
:1028100005EB92421CB9214D554305600BE01D4D5F
:102820006D6805F400351DB11C4D5543056002E08F
:10283000194D5543056002E0174D056000BF00BF0C
:10284000144D6D6805F0F0010909154D6B5C0568C4
:10285000DD4045600F4D6D6805F4E061090A104DDB
:102860006B5C4568DD4085600A4D6D6805F460511C
:10287000C90A0B4D6B5C4568DD40C560054D6D6850
:1028800005F44041890B074D6B5CC568B5FBF3F55A
:10289000056130BD0010024000127A0000093D00C1
:1028A000140000202400002010B502210148FFF789
:1028B00037F810BD000C014010B540210148FFF76A
:1028C0002FF810BD000801402DE9F04F91B00446EB
:1028D000894692460EA88B490FAB0AAACDE9001093
:1028E00089498A4801F062FA8648008800F48070BD
:1028F00000287DD00A9804F08BFF05464FF09D41DB
:1029000004F054FE824908600B9804F081FF0546EC
:102910004FF09D4104F04AFE7E4908600C9804F097
:1029200077FF05464FF09D4104F040FE7A4908606C
:102930000D9804F06DFF05464FF09D4104F036FE02
:1029400076490860724801684FF0804004F0C0FF8B
:10295000059071480168059804F0BAFF83466D48F8
:1029600001684FF0404004F0B3FF05906B480168E8
:10297000059804F0ADFF5946069004F0A9FD0790B4
:1029800004F07AFDCDE9080100F0B6FC07464FF0EF
:102990006632634B04F006FA054603F051FF2060EF
:1029A0005D4801684FF0804004F092FF02905A4861
:1029B0000168029804F08CFF8346564801684FF086
:1029C000404004F085FF029052480168029804F0EC
:1029D0007FFF5946039005F079F880464FF07E510D
:1029E00004F076FD074604F047FDCDE9060100E05E
:1029F00084E0474801684FF0804004F069FF03908D
:102A000044480168039804F063FF80464248016827
:102A10004FF0804004F05CFF039040480168039849
:102A200004F056FF8346414604F052FD074604F089
:102A300023FDCDE90401DDE9062300F0A5FE4FF0FA
:102A40006632374BCDE9080104F0ACF9054603F0D6
:102A5000F7FEC9F8000031480168006804F038FF4B
:102A600004902D480168006804F032FF0290294864
:102A70000168006804F02CFF019025480168006897
:102A800004F026FF0090019904F022FD834602998C
:102A900005F01CF80390049905F018F8059004F06F
:102AA000EBFC05460E461D4801681948006804F015
:102AB0000FFF0490184801681648006804F008FFEA
:102AC0000390049904F004FD4FF08041059004F058
:102AD000FFFE834604F0D0FC2A463346CDE90601CA
:102AE00000F052FE4FF066320D4BCDE9080104F0C4
:102AF00059F9074603F0A4FECAF8000011B0BDE87A
:102B0000F08F0000400000203A0000203400002038
:102B100044000020480000204C000020500000200D
:102B200066A64C4070B50446002518E004F080000D
:102B3000802803D1012000F0E7FA02E0002000F035
:102B4000E3FA600044B2012000F0E8FAFFF7B4FEB7
:102B5000204344B2002000F0E1FA681C45B2082D81
:102B6000E4DB204670BD704710B500F001F810BDE1
:102B70000CB50020019000903348006840F480308C
:102B80003149086000BF3048006800F40030009010
:102B90000198401C0190009818B90198B0F5A06FF9
:102BA000F1D12948006800F4003010B101200090F4
:102BB00001E0002000900098012843D123480068DC
:102BC00040F01000214908600846006820F003002A
:102BD00008600846006840F0020008601A48406833
:102BE000194948600846406848600846406840F413
:102BF000806048600846406820F47C1048600846C1
:102C0000406840F4E81048600846006840F0807072
:102C1000086000BF0C48006800F000700028F9D080
:102C20000948406820F003000749486008464068AA
:102C300040F00200486000BF0348406800F00C000C
:102C40000828F9D10CBD000000100240002002400D
:102C5000042808D14FF0E021096941F004014FF048
:102C6000E022116107E04FF0E021096921F0040141
:102C70004FF0E022116170477047000010B5134813
:102C8000006840F00100114908600846406810499A
:102C900008400E494860084600680E4908400B4944
:102CA00008600846006820F48020086008464068F4
:102CB00020F4FE0048604FF41F008860FFF754FFC7
:102CC0004FF000600449086010BD00000010024091
:102CD0000000FFF8FFFFF6FE08ED00E07FB50546B7
:102CE0000C4601210846FFF755FDADF80850ADF838
:102CF00004400020ADF80A00ADF8060001A94FF02D
:102D0000804000F091F801224121880700F082F80C
:102D10000121880700F061F81C208DF800000020D8
:102D20008DF8010003208DF8020001208DF80300CA
:102D30006846FFF74FFA7FBD2DE9FF47012188075D
:102D400000F057F801281ED1124A13491348FFF723
:102D5000BBFD1048006804F08FFB04460D460E488A
:102D6000006804F089FB06460F460C48006804F032
:102D700083FB804642460B4609A0CDE90067CDE9BA
:102D80000245FDF757FA0121880700F023F8BDE856
:102D9000FF87000098000020940000209000002091
:102DA0000A0D20B8A9D1F6BDC73D252E32662020D8
:102DB00020202020BAE1B9F6BDC73D252E3266207D
:102DC0002020202020C6ABBABDBDC73D252E3266CF
:102DD000200A0D00CA430282704721B1028842F0E6
:102DE0000102028004E002884FF6FE731A4002805E
:102DF000704730B50246002000230024158A05EAFA
:102E00000103958905EA010413B10CB1012000E02A
:102E1000002030BD1AB183890B43838102E083898E
:102E20008B43838170470000002202881D4B98422B
:102E30000ED01D4B98420BD0B0F1804F08D01B4BE9
:102E4000984205D01A4B984202D01A4B984204D1AE
:102E50004FF68F731A404B881A43174B984207D08E
:102E6000164B984204D04FF6FF431A40CB881A43C2
:102E700002808B8883850B8803850A4B98420BD090
:102E8000094B984208D00E4B984205D00D4B984202
:102E900002D00D4B984201D10B7A03860123838225
:102EA00070470000002C0140003401400004004045
:102EB00000080040000C00400010004000140040DA
:102EC00000400140004401400048014010B540F27C
:102ED00025511D4800F04AF810B31B4800F002F9D4
:102EE000C4B21A48008800F40040C8B917480088E6
:102EF00000F4804060B10A2C03D000201349088000
:102F000020E01248008840F400401049088019E091
:102F10000D2C06D10D48008840F480400B490880F4
:102F200010E00A480088C0F30D0009490C54074816
:102F30000088401C0549088008460088C72801DD34
:102F40000020088010BD0000003801402C00002047
:102F5000CC00002021B1828942F40052828104E039
:102F600082894DF6FF731A408281704770B5024620
:102F7000002400230025002040F66A16B14200D14B
:102F800000BFC1F3421501F01F03012606FA03F347
:102F9000012D02D19689334006E0022D02D1168A16
:102FA000334001E0968A33400C12012606FA04F4FD
:102FB0001688344013B10CB1012000E0002070BD30
:102FC000F0B50346002400260025002040F66A17CD
:102FD000B94200D100BF1846C1F3421401F01F06E8
:102FE000012707FA06F5012C01D10C3004E0022C70
:102FF00001D1103000E014301AB107682F43076088
:1030000002E00768AF430760F0BD00002DE9F0471C
:1030100086B005460E460024A24600BFA146002702
:10302000B08900B100BF2F462C8A4CF6FF700440D7
:10303000F08804432C82AC894EF6F3100440B0882B
:1030400031890843718908430443AC81AC8A4FF647
:10305000FF400440B0890443AC8201A8FFF7BAFBEB
:103060001F48874202D1DDF810A001E0DDF80CA076
:10307000A88900F4004040B10AEBCA0000EB0A1036
:1030800031684900B0FBF1F807E00AEBCA0000EB39
:103090000A1031688900B0FBF1F86420B8FBF0F049
:1030A00004012009642101FB1089A88900F4004073
:1030B00040B1322000EBC900B0FBF1F000F0070096
:1030C000044308E0322000EB09106421B0FBF1F06A
:1030D00000F00F0004432C8106B0BDE8F08700002B
:1030E0000038014001468888C0F30800704700BFDF
:1030F000FEE7000010B50446224601210148FEF714
:103100001CFC10BD000C014010B504462246802175
:103110000148FEF712FC10BD0008014010B504463E
:10312000224620210148FEF708FC10BD000801409E
:1031300010B50446224610210148FEF7FEFB10BDE3
:1031400000080140490050EAC12018BF04204A0D80
:1031500018BF40F0010040F2FF72B2EB515F08BFB0
:1031600040F00200012808BF052070472DE9F0411A
:103170004F1E00EBC7010446D1E9000115461E466B
:1031800037F006020DD02A46334603F00BFE7F1EB1
:1031900004EBC703D3E9002303F084FB37F00602F6
:1031A000F1D1022F25D0042F13D0062F18BFBDE870
:1031B000F0812A46334603F0F5FDD4E90A2303F0F3
:1031C00071FB2A46334603F0EDFDD4E9082303F0F2
:1031D00069FB2A46334603F0E5FDD4E9062303F0F4
:1031E00061FB2A46334603F0DDFDD4E9042303F0F6
:1031F00059FB2A46334603F0D5FDD4E9022303F0F8
:1032000051FB2A46334603F0CDFDD4E90023BDE847
:10321000F04103F047BB012204F001BD03F042BBC3
:10322000002213461046114603F0F8BB024A002064
:10323000110704F0F4BC000001FDFFFF30380A283C
:1032400001D2012070470020704700BF7047000086
:103250002DE9FE4F06460F460025684601F00CFAA0
:10326000002442E056F8240057F82410A0EB010A8D
:10327000BAF1000F01DB514601E0CAF10001084636
:1032800004F0C6FA83464FF08F4104F08FF9804670
:103290005DF82400002104F04BFA16D05DF82410EC
:1032A000404604F083F982464FF07E5104F00EFC54
:1032B000814629F0004A0F48416A504604F0D4FB89
:1032C00012D20120A04005430EE00A48C1694046E1
:1032D00004F0CAFA05D30748016A404604F0C4FB6B
:1032E00002D20120A0400543641C032CBADB28460F
:1032F000BDE8FE8FDC7C00082DE9F04D8D4F21F0FC
:10330000004A86B005460C46BA452ADBAAEB070000
:1033100028430AD08848824501DC1AD1CDB106B0D5
:103320002846BDE8F04DFFF776BF844A844B284617
:1033300003F038FD07460E46824A834B2846214655
:1033400003F030FD06B03A463346BDE8F04D03F0D9
:10335000A9BA0120FDF76EF906B0BDE8F04DFFF700
:103360005FBF7A48824542DABAF1795F0BDA2846C4
:10337000FFF7E8FE042808BFFFF758FF284606B00D
:103380002146BDE8F08D2A460B46104603F00AFDA3
:10339000834602466E480E460B4606217844FFF7E8
:1033A000E5FE5A46334603F0FDFC804669488A46EE
:1033B0005A46334604217844FFF7D8FE5A4633462E
:1033C00003F0F0FC00223B4603F06CFA02460B4689
:1033D0004046514603F022FB2A46234603F0E2FC16
:1033E00006B02A462346BDE8F04D03F05BBA2846F6
:1033F00024F0004100223D463B4603F061FE4FF0C1
:10340000FF3204F00CFC0646024653480F460B46BA
:1034100006217844FFF7AAFE32463B4603F0C2FC81
:10342000CDE900014D4832463B4604217844FFF780
:103430009DFE32463B4603F0B5FC00222B4603F0CE
:1034400031FA834602913046394602F0F3FE804657
:1034500043480D46504517DCDDE900015A46029B02
:1034600003F0DCFA42462B4603F09CFC42462B4616
:1034700003F018FA012204F0D2FB304A304B03F07B
:1034800011FF304A304B4CE04FF0000A52460B46D9
:10349000404603F007FACDE9031052462B4610468A
:1034A000194603F07FFC32463B4603F009FEDDE996
:1034B000033203F0B3FA06460F46DDE900015A462F
:1034C000029B03F0ABFA8346009101223046394655
:1034D00004F0A5FB194A1A4B03F0F2FD06460F460D
:1034E00001224046294604F09AFB5A46009B03F00D
:1034F00059FC32463B4603F0D5FE06460F460122F4
:103500005046294604F08BFB0E4DDFF858802A46C2
:10351000434603F0D5FD32463B4603F0D1FD2A4633
:10352000434603F0CDFD002CD8BF81F0004106B02A
:10353000BDE8F08D0000F03F0000F07F075C143321
:1035400026A6913C182D4454FB21F93F0000E03F92
:1035500050A0000066A00000DA9F0000F09F00006D
:103560003333EF3FFB21E93F2DE9F84F04460D4689
:1035700021F0004000917349814211DC7249884278
:1035800001DC06D12CB120462946BDE8F84FFFF7F3
:1035900042BE6E48002DCCBF6D496E49BDE8F88F24
:1035A0006D49814211DD6D498142D8BF4FF0FF3630
:1035B0006DDD20462946FFF7C5FD042808BFFFF74B
:1035C00035FE20462946BDE8F88F6549654F25F050
:1035D0000045814233DD6449814219DD00263246CF
:1035E0004FF080432046294603F05CF980468A4626
:1035F00001222046294604F012FB00223B4603F03C
:1036000051FE4246534603F009FA04460D463EE099
:1036100001260022BA463B462046294603F042F9DD
:1036200080460F46002253462046294603F03AFEC4
:1036300042463B4603F0F2F904460D4627E04B496B
:1036400081421BDDDFF828A10226002253462046D6
:10365000294603F0A7FB00223B4603F023F98046EE
:103660000F46002253462046294603F01BFE4246E1
:103670003B4603F0D3F904460D4608E003262246F4
:103680002B4600203B4903F0C9F904460D4622466B
:103690002B461046194603F085FB8B4682460246B0
:1036A0000B4603F07FFB07460246334888460B462D
:1036B00006217844FFF75AFD52465B4603F072FB41
:1036C00082462E488B463A46434605217844FFF70A
:1036D0004DFD3A46434603F065FB02460B46002E7D
:1036E000504659460CDA03F0DDF822462B4603F02B
:1036F00059FB01B022462B46BDE8F04F03F0E0BC79
:1037000003F0D0F822462B4603F04CFB1C4A7A44C7
:1037100002EBC603D3E9002303F0C4FD22462B4687
:1037200003F0C0FD174A7A4402EBC603D3E9002335
:1037300003F0C6FC009A002AB8BF81F00041BDE842
:10374000F88F0000000010440000F07F182D445452
:10375000FB21F93FFB21F9BF0000DC3F0000203EC8
:103760000000F33F0000F03F0000E63F0080034010
:103770000000F83F0000F0BFF29D0000B09D000087
:103780004E9D0000169D00002DE9F04D9446CCF1B1
:10379000000423F000464CEA0404524F46EAD47475
:1037A0009A46884621F00042BC4206D8454240EA8B
:1037B000050442EAD474BC4204D9BDE8F04D624627
:1037C000FFF72CBDAAF14055A5F17F6555EA0C0421
:1037D0000BD0022404EAAA74434DDFF810E144EA56
:1037E000D87452EA000B04D00CE0BDE8F04DFFF7AE
:1037F000BBBE002C14BF012CBDE8F08D022C30D0D4
:10380000032C32D056EA0C0B0AD0BE4220D1BA4269
:1038100009D126F0804622F080423346114617E057
:1038200000291ADB25E0DFF8C8B0FB44002C04BFF8
:10383000DBE90001BDE8F08D012C02BFDBE90001EE
:1038400081F00041BDE8F08D022C0AD0032C0CD091
:10385000BA4212D1B8F1000F0BDA23482549BDE86E
:10386000F08D28462449BDE8F08D28467146BDE814
:10387000F08D1D482149BDE8F08D921B12153C2AA0
:10388000C4BF19481D490EDCBAF1000FBEBF12F1CA
:103890003C0F0020014606DB624603F0BFF821F032
:1038A0000041FFF761FE002C08BFBDE8F08D012C40
:1038B00004BF81F00041BDE8F08D114A114B022C8C
:1038C00007D003F0EFFC2A46BDE8F04D0A4B03F0A9
:1038D000E9BC03F0E7FC2A46BDE8F04D064B03F0D7
:1038E000EFBB00000000F07F182D4454FB2109C0FD
:1038F000AA9C0000FB21F9BFFB210940FB21F93FF5
:10390000075C143326A6A13C10B508480068084996
:1039100008600848006808490860084908480068C5
:1039200003F0D6FD0749086010BD0000900000209C
:103930009C00002094000020A000002000007041A6
:1039400098000020A40000202DE9F0410446E07812
:1039500000F0C006E07800F03F05607800F001005C
:1039600098B1EF102846E91705EB5171C910A5EB86
:10397000C101491C01F0FF080B48006820B10A484A
:10398000414602683846904700BF607800F0080062
:1039900030B10548406818B1B011034A51688847F2
:1039A0000020BDE8F08100009405002010B56FF004
:1039B0000400FFF74DF90A4800680A49B0FBF1F02E
:1039C000094908700846007800EB4001C1EBC010BF
:1039D0004FF6FF7101EAC0000449088010BD0000E5
:1039E0000000002000127A002E000020300000208D
:1039F0000146114A12884A434FF0E0235A610022DF
:103A00009A611A46126942F001021A6100BF4FF032
:103A1000E022106900F001021AB100F48032002A9D
:103A2000F5D04FF0E022126922F001024FF0E023BE
:103A30001A6100229A61704730000020002107E0DF
:103A400042F6E06100BF0A1EA1F1010399B2FAD16A
:103A5000021EA0F1010398B2F2D170470146114A4B
:103A600012784A434FF0E0235A6100229A611A46C5
:103A7000126942F001021A6100BF4FF0E0221069A2
:103A800000F001021AB100F48032002AF5D04FF0A4
:103A9000E022126922F001024FF0E0231A610022B5
:103AA0009A6170472E00002038B5044664B120208A
:103AB0008DF8000028208DF8010030208DF80200DC
:103AC00038208DF8030004E0A32204216846FCF7A7
:103AD000E9FC6A46042140F69E2002F079FA01F0E2
:103AE00069FE38BD3EB5044602208DF80000CA20AC
:103AF0008DF80100E3208DF8020009208DF8030005
:103B00006A460421682002F063FAA3208DF80000C1
:103B100004F0400048B1C0208DF80100C8208DF8A5
:103B20000200C2208DF8030006E0A3208DF80100FA
:103B30008DF802008DF8030004F4C07048B1C42071
:103B40008DF80400CC208DF80500C6208DF8060005
:103B500006E0A3208DF804008DF805008DF806001E
:103B6000A3208DF807008DF808008DF809006A463B
:103B70000A2140F6A72002F02BFA04F0030018B146
:103B800020208DF8000002E0D8208DF800006A4661
:103B9000012140F6B62002F01BFA04F0200018B113
:103BA000012000F0ADF802E0002000F0A9F804F4D4
:103BB000C07008B304F4807060B1B2208DF80000CA
:103BC0008B208DF80100B6208DF802009B208DF827
:103BD00003000BE0B0208DF8000080208DF801007C
:103BE000B4208DF8020090208DF803006A4604216D
:103BF00040F6A22002F0ECF904F0010020B3F82016
:103C00008DF800006A4601214FF40B6002F0E0F9E4
:103C1000FA21072000F02CFC072000F0F3FB012024
:103C200000F013FC642000F0F3FC4FF4FA7000F095
:103C300002FDC821304800F0A3FB282000F0BCFBA7
:103C40000A2000F0CCFB08E0D8208DF800006A467E
:103C500001214FF40B6002F0BBF904F0020018B12F
:103C6000D9208DF8000002E0D8208DF800006A46C7
:103C7000012140F23D7002F0ABF904F0040018B1EC
:103C8000012000F069F802E0002000F065F804F07F
:103C9000100018B10120FFF707FF02E00020FFF736
:103CA00003FF44F008001549488101F083FD00201E
:103CB0001249887304F0400018B10846807B801DCB
:103CC000887304F4C07020B10C48807B801D0B49C0
:103CD000887304F0140020B10848807B1030074935
:103CE000887304F0030020B10448807B001D034961
:103CF000887300203EBD000009E3CA02940500203D
:103D00003EB504466CB10EA1D1E900208968CDE929
:103D1000002002916A4609214FF4976002F058F999
:103D20003EBD0AA2D2E900109268CDE901020091DD
:103D30006A4609214FF4976002F04AF9F0E7000063
:103D4000B8AAB38DB4980D355D000000B8AAAAAA30
:103D5000B088C3C5C700000038B5044664B1C020B0
:103D60008DF80000C2208DF80100C4208DF80200FB
:103D7000C6208DF8030004E08B2204216846FCF77E
:103D800091FB6A46042140F6982002F021F901F0E7
:103D900011FD38BD10B5C8234FF48062024940F6CA
:103DA000F63001F09BFB10BD047D00082DE9F04FBB
:103DB0008DB00746884615469946DDE9166B002406
:103DC000002030806B49887B5A4605A901F052FCDF
:103DD00018B1601E0DB0BDE8F08F6648807A00F023
:103DE0001400002867D09DF8140000069DF81510F7
:103DF00040EA01409DF8161040EA01209DF8171096
:103E0000084328609DF8180000069DF8191040EA44
:103E100001409DF81A1040EA01209DF81B1008434C
:103E200068609DF81C0000069DF81D1040EA0140E6
:103E30009DF81E1040EA01209DF81F100843A8605D
:103E40009DF8200000069DF8211040EA01409DF8F1
:103E5000221040EA01209DF823100843E86004F195
:103E60001000C4B228680014019068680014029021
:103E7000A86800140390E868001404900198404377
:103E8000029901FB0100039901FB0100049901FB68
:103E9000010ABAF1706F02DBBAF1885F05DD01F04B
:103EA00089FC00203080401E94E7B6F9000040F401
:103EB0008070308000BF2F48807A00F0400020B32F
:103EC00005A9601C085C095D40EA012000B2A8F861
:103ED000000005A9E01C095C05AAA01C105C41EAD1
:103EE000002000B2A8F8020005A9601D095C201D91
:103EF000105C41EA002000B2A8F80400A01DC4B282
:103F0000B6F9000040F0080030801A48408900F4FB
:103F1000C07008B305A9601C085C095D40EA012077
:103F200000B2388005A9E01C095C05AAA01C105C41
:103F300041EA002000B2788005A9601D095C201DBF
:103F4000105C41EA002000B2B880A01DC4B2B6F9EE
:103F5000000040F0700030800648807A00F00300D6
:103F600018B105A90819FFF7EFFC484602F070F8F0
:103F700000202FE79405002070B588B0064601A800
:103F800001F000F9BDF804000021C90341EA5045E1
:103F9000C4034448007A00F0030056F8200005905E
:103FA0004048007A00F0040010B1059840420590A6
:103FB0003C48007AC0F3C10056F82000069039480A
:103FC000007A00F0200010B1069840420690354873
:103FD000007AC0F3811056F820000790314800891C
:103FE00000F4807010B10798404207900598C117FF
:103FF000A0FB042301FB043100FB0510810041EA12
:10400000927005900698C117A0FB042301FB0431B0
:1040100000FB0510810041EA927006900798C117D5
:10402000A0FB042301FB043100FB0510810041EAE1
:10403000927007900598000E8DF808000598000C06
:104040008DF809000598000A8DF80A000598C0B29D
:104050008DF80B000698000E8DF80C000698000CE9
:104060008DF80D000698000A8DF80E000698C0B273
:104070008DF80F000798000E8DF810000798000CBF
:104080008DF811000798000A8DF812000798C0B249
:104090008DF8130002AA0C214FF4257001F098FF4F
:1040A00008B070BD9405002030B585B0044616A256
:1040B00007CA02AB07C3C82C03DD4FF0FF3005B0C1
:1040C00030BDC82090FBF4F0401E85B2280A8DF860
:1040D0000000E8B28DF801006A46022140F2162085
:1040E00001F076FF10B14FF0FF30E8E702AA0C2193
:1040F00040F6C12001F06CFF10B14FF0FF30DEE759
:10410000044884810020DAE7FEF2ABC4AAF1DFDFC5
:10411000BBAFDFDF940500201FB504464848007A96
:1041200000F0030054F8200001904548007A00F0A8
:10413000040010B10198404201904148007AC0F358
:10414000C10054F8200002903D48007A00F02000A1
:1041500010B10298404202903948007AC0F38110B1
:1041600054F8200003903648008900F4807010B1A4
:104170000398404203903349019880FB0101800F6E
:1041800040EA810001902F49029880FB01108200D3
:1041900042EA917002902B49039880FB0110820043
:1041A00042EA917003900198000E8DF8000001988A
:1041B000000C8DF801000198000A8DF802000198AA
:1041C000C0B28DF803006A4604214FF4747001F008
:1041D000FFFE18B14FF0FF3004B010BD0298000E82
:1041E0008DF800000298000C8DF801000298000A7A
:1041F0008DF802000298C0B28DF803006A460421CF
:104200004FF4757001F0E4FE10B14FF0FF30E3E7BA
:104210000398000E8DF800000398000C8DF8010043
:104220000398000A8DF802000398C0B28DF80300CD
:104230006A4604214FF4767001F0CAFECCE7000014
:104240009405002009E3CA0210B586B0044647A0D1
:104250000068039046A00068029046A000680190A4
:1042600045A00068009004F0030003A9085C8DF8E5
:10427000140003A8C4F3C101405C8DF8150003A825
:10428000C4F38111405C8DF8160004F0030002A90C
:10429000085C8DF8100002A8C4F3C101405C8DF8E1
:1042A000110002A8C4F38111405C8DF8120005AA28
:1042B000032140F2264001F08BFE18B14FF0FF3091
:1042C00006B010BD04AA032140F22A4001F080FE8E
:1042D00010B14FF0FF30F3E701980590009804907B
:1042E00004F0040058B19DF8140040F001008DF86E
:1042F00014009DF8100040F001008DF8100004F04B
:10430000200058B19DF8150040F001008DF815000F
:104310009DF8110040F001008DF8110004F4807048
:1043200058B19DF8160040F001008DF816009DF878
:10433000120040F001008DF8120005AA03214FF48D
:10434000886001F045FE10B14FF0FF30B8E704AAD5
:10435000032140F2314001F03BFE10B14FF0FF303D
:10436000AEE7064804810020AAE700004CCD6C00AF
:104370000CC92C00365676002646660094050020AF
:10438000F8B505460E464FF47A7095FBF0F000FB49
:1043900006F4200E8DF80000200C8DF80100200A94
:1043A0008DF80200E0B28DF803006A4604214FF454
:1043B000AE7001F00DFEF8BD38B50446052094FB43
:1043C000F0F084B220128DF80000E0B28DF8010008
:1043D0006A4602214FF4AD7001F0FAFD38BD38B5E0
:1043E0000446052094FBF0F084B220128DF8000002
:1043F000E0B28DF801006A4602214FF4AC7001F082
:10440000E7FD38BD38B504460020009004F00100F7
:1044100020B19DF8000040F03000009004F0020050
:1044200020B19DF8000040F00C00009004F0040062
:1044300020B19DF8000040F0030000906A46012181
:104440004FF4A47001F0C4FD38BD38B50446012C0A
:1044500001DA012402E0042C00DD0424601EC0B255
:1044600000906A46012140F24F1001F0B1FD38BDC5
:104470002DE9FC4706460F4606F0070010B1B7F5D8
:10448000C86F03DD4FF0FF30BDE8FC87384603F00E
:10449000D7F98146594903F089F88046684600F00B
:1044A0004BFE9DF80000022806D0042816D00828EC
:1044B00026D0102848D135E04FF08D41404603F01A
:1044C00007FA814603F084F984B24D49404603F06F
:1044D000FFF9814603F07CF985B238E04FF08C415A
:1044E000404603F0F5F9814603F072F984B245497C
:1044F000404603F0EDF9814603F06AF985B226E003
:104500004FF08B41404603F0E3F9814603F060F938
:1045100084B23D49404603F0DBF9814603F058F987
:1045200085B214E04FF08A41404603F0D1F981464C
:1045300003F04EF984B23549404603F0C9F981468B
:1045400003F046F985B202E04FF0FF309CE700BF70
:1045500020128DF80400E0B28DF8050028128DF8C5
:104560000600E8B28DF8070006F00100A0B101AA2C
:1045700002214FF4EA7001F02BFD10B14FF0FF3033
:1045800082E70DF1060202214FF4927001F020FD46
:1045900010B14FF0FF3077E706F00200A0B101AA9A
:1045A00002214FF4EC7001F013FD10B14FF0FF3019
:1045B0006AE70DF1060202214FF4947001F008FD44
:1045C00010B14FF0FF305FE706F00400A0B101AA80
:1045D00002214FF4EE7001F0FBFC10B14FF0FF3000
:1045E00052E70DF1060202214FF4967001F0F0FC43
:1045F00010B14FF0FF3047E7002045E70000484387
:10460000000040460000C045000040450000C04496
:1046100038B50446052094FBF0F085B228128DF8D9
:104620000000E8B28DF801006A4602214FF4EF70F5
:1046300001F0CEFC38BD38B50446052094FBF0F0FF
:1046400085B228128DF80000E8B28DF801006A46A4
:1046500002214FF4ED7001F0BBFC38BD00BF054AEC
:10466000128802F04002002AF9D0C2B2014B1B1D91
:104670001A807047003801407CB5054628494968D2
:10468000087801AB04220D2100F010FB08B10720CF
:104690007CBD9DF80700C0F301109DF8041001F0E7
:1046A000E00140EAE1008DF800009DF80700C0F34A
:1046B00081009DF8051001F0E00140EAE1008DF86D
:1046C00001009DF8070000F003009DF8061001F0BE
:1046D000E00140EAE1008DF8020000241CE01DF832
:1046E000040018B9002045F8240013E00D4845F8EF
:1046F000240006E055F824000B4903F0E9F845F8DA
:1047000024001DF80400401EC0B20DF8040000286B
:10471000F0D100BF601CC4B2032CE0DB0020B7E77F
:10472000640000207B14AE3E1D5A843F2DE9F04FFB
:1047300087B005460C46914601208DF810000020F8
:104740008DF81100FE4A1268917CFD4A526810787B
:1047500004AB022200F0E5FA20B14FF0FF3007B0C1
:10476000BDE8F08FC820FFF743F900208DF8100056
:10477000F34A1268D17BF24A5268107804AB0122E6
:1047800000F0CFFA10B14FF0FF30E8E7EC4A1268C2
:104790005179EB4A5268107804AB012200F0C1FA5B
:1047A00010B14FF0FF30DAE7E54A1268917CE44A35
:1047B0005268107804AB012200F0B3FA10B14FF048
:1047C000FF30CCE7DE4A1268D17DDD4A52681078AE
:1047D00004AB012200F0A5FA10B14FF0FF30BEE7A4
:1047E000D74A12681179D64A5268107804AB012270
:1047F00000F097FA10B14FF0FF30B0E70C208DF8C1
:104800001000CF4A12681179CD4A5268107804AB73
:10481000012200F086FA10B14FF0FF309FE70F2021
:10482000FFF7E6F8C648806A407A8DF81000C44A5F
:1048300012689178C24A5268107804AB012200F0E5
:1048400070FA10B14FF0FF3089E7BD48806A007AF6
:104850008DF81000BA4A12685178B94A5268107837
:1048600004AB012200F05DFA10B14FF0FF3076E7A3
:10487000B9F1000F07D0B248806A807A40F0E000BA
:104880008DF8100004E0AE48806A807A8DF8100040
:10489000AB4A12689179AA4A5268107804AB012297
:1048A00000F03FFA10B14FF0FF3058E7B9F1000FB8
:1048B00007D0A348806AC07A40F0E0008DF810006D
:1048C00003E0A048C07A8DF810009D4A1268D179A3
:1048D0009B4A5268107804AB012200F022FA10B112
:1048E0004FF0FF303BE7B9F1000F02D0C820FFF7CF
:1048F0007FF840208DF81000914A12681179904A93
:104900005268107804AB012200F00BFA10B14FF09E
:10491000FF3024E778208DF81000894A1268517919
:10492000874A5268107804AB012200F0FAF910B1FE
:104930004FF0FF3013E783498889FFF759F80020CB
:104940008DF810007E4A126851797D4A52681078BD
:1049500004AB012200F0E5F910B14FF0FF30FEE6A4
:10496000774A1268917A764A5268107804AB02222C
:1049700000F09CF910B14FF0FF30F0E69DF8110007
:104980009DF8101040EA012B0C209BFBF0F0C6B202
:104990000020A86068602860A06060602060824697
:1049A00065E0674A1268D17A654A5268107804ABAC
:1049B0000C2200F07BF910B14FF0FF30CFE69DF8EC
:1049C00011009DF8101040EA012000B2ADF8080077
:1049D0009DF813009DF8121040EA012000B2ADF8D6
:1049E0000A009DF815009DF8141040EA012000B25D
:1049F000ADF80C00BDF90810206808442060BDF92E
:104A00000A10606808446060BDF90C10A068084492
:104A1000A0609DF817009DF8161040EA012000B232
:104A2000ADF800009DF819009DF8181040EA01202B
:104A300000B2ADF802009DF81B009DF81A1040EA84
:104A4000012000B2ADF80400BDF900102868084448
:104A50002860BDF90210686808446860BDF9041058
:104A6000A8680844A8600AF1010000F0FF0AB245F6
:104A700097DB3448D0F800C02868C117090441EA20
:104A800010410704624600233846FBF7AEFB32466E
:104A90000023CDE90201FBF7A8FB28602948D0F8E4
:104AA00000C06868C117090441EA10410704624662
:104AB00000233846FBF799FB32460023CDE902017B
:104AC000FBF793FB68601F48D0F800C0A868C117C7
:104AD000090441EA10410704624600233846FBF707
:104AE00084FB32460023CDE90201FBF77EFBA86080
:104AF0001448D0F804C02168C817000440EA1148DF
:104B00000F046246002338464146FBF76EFB3246EF
:104B10000023CDE90201FBF768FB20600948D0F8CB
:104B200004C06068C117090441EA104107046246E5
:104B300000233846FBF759FB3246002304E000000F
:104B400064000020DC7C0008CDE90201FBF74DFB8E
:104B500060601148D0F804C0A068C117090441EA98
:104B600010410704624600233846FBF73EFB3246FD
:104B70000023CDE90201FBF738FBA060A068002804
:104B800004DDA068A0F58030A06003E0A06800F517
:104B90008030A0600020E2E5DC7C00082DE9FC5FAD
:104BA00006460F4600253D494968087801AB0322B7
:104BB0000D2100F07BF810B10720BDE8FC9F9DF8A7
:104BC000040000F01F008DF804009DF8050000F0BF
:104BD0001F008DF805009DF8060000F01F008DF8FD
:104BE0000600002456E056F8240057F82410A0EBE5
:104BF000010BBBF1000F01DB594601E0CBF10001D5
:104C0000084602F005FE4FF08F41009002F0CEFC06
:104C1000814601A8005D68B32149086802F010FED2
:104C2000834659461F4802F0C1FC804604E01E49F5
:104C3000404602F04DFE804601A8005D401EC0B215
:104C400001A908550028F2D14146484602F0AEFCC1
:104C500083464FF07E5102F039FF82462AF0004B26
:104C60000F488169584602F0FFFE12D20120A04091
:104C700005430EE00A480169484602F0F5FD05D3F8
:104C800007484169484602F0EFFE02D20120A040E9
:104C90000543641C032CA6DB28468EE76400002035
:104CA000DC7C000800B04C4554E3853F2DE9F04121
:104CB00006460F4614461D46FCF746FF10B9012074
:104CC000BDE8F0817106080EFCF706FFFCF794FFC3
:104CD00018B9FCF76DFF0120F2E73846FCF7FCFE3F
:104CE000FCF78AFFFCF730FF012101EB4601C8B257
:104CF000FCF7F2FEFCF780FF0DE0012C04D1002050
:104D0000FCF7B4FE287003E00120FCF7AFFE28702A
:104D10006D1C601EC4B2002CEFD1FCF749FF0020CF
:104D2000CEE72DE9F04105460E4617469846FCF7BA
:104D30000BFF10B90120BDE8F0816906080EFCF7F1
:104D4000CBFEFCF759FF18B9FCF732FF0120F2E760
:104D50003046FCF7C1FEFCF74FFF00240BE018F8CB
:104D60000400FCF7B9FEFCF747FF18B9FCF720FF79
:104D70000020E0E7641CBC42F1DBFCF719FF0020D7
:104D8000D9E770B50546284600F00FF80446E81C40
:104D900000F00BF844EAC00084B2A81D00F005F84A
:104DA00044EA801084B2204670BD014691F900208B
:104DB000002A01DD00201EE091F90020002A01DA1E
:104DC000042018E091F90120002A01DD012012E001
:104DD00091F90120002A01DA05200CE091F9022066
:104DE000002A01DD022006E091F90220002A01DA02
:104DF000062000E00720704708B53FA210210846B2
:104E0000FDF778FBFDF772FC4FF4FA70FEF716FE23
:104E10003AA210212120FDF76DFBFDF767FC4FF44E
:104E2000FA70FEF70BFE36A210213220FDF762FB6E
:104E3000FDF75CFC4FF4FA70FEF700FE31A2102182
:104E40004320FDF757FBFDF751FC4FF4FA70FEF7D6
:104E5000F5FD2DA210215420FDF74CFBFDF746FC7B
:104E60004FF4FA70FEF7EAFD28A220211020FDF78A
:104E700041FBFDF73BFC4FF4FA70FEF7DFFD23A288
:104E800020210846FDF736FBFDF730FC4FF4FA70A1
:104E9000FEF7D4FD1DA220213220FDF72BFBFDF7EC
:104EA00025FC4FF4FA70FEF7C9FD18A2202143201B
:104EB000FDF720FBFDF71AFC4FF4FA70FEF7BEFD7C
:104EC00012A220215420FDF715FBFDF70FFC4FF433
:104ED000FA70FEF7B3FDFDF7B5F90D4840231A4609
:104EE000002100902020FDF753FBFDF7FFFB4FF45E
:104EF000FA70FEF7A3FD08BDD5FD0000D4DA00006E
:104F0000BCD30000D4D80000D6D00000A1A300007C
:104F1000C9C6000810B5FEF749FD4FF4E13001F0B5
:104F2000AFF9FDF713F8FDF75DFA08230BA2002196
:104F30000846FDF7C3FBFDF7D9FBFCF755FDFCF771
:104F40007DFFFCF759FB40F2CF2140F2CF70FDF717
:104F5000C5FEFCF733FFFCF757FF10BD4D5055362B
:104F600030353000FFF7D6FF95E04B48008830B968
:104F7000FFF742FFFEF7C8FC012047490880474879
:104F8000008860B14648008848B90020454948700B
:104F900088700846FDF7A5F801204149088001F016
:104FA000BFF93E48007840B23E4908703E4800785C
:104FB00040B288710846FDF794F800203A4908701D
:104FC0003648008820B1012829D0022862D157E054
:104FD0003648006880F00044204602F04DFA05464D
:104FE00001F038F8074601F071FE40B22D494870D3
:104FF0002F48006802F040FA064601F02BF80446FC
:1050000001F064FE40B22749887001F023FA29A21A
:1050100000210846FDF76EFAFDF768FB3AE02448E8
:10502000006802F029FA064601F014F8044601F07F
:105030004DFE40B21B49C8701C48006802F01CFAC3
:10504000064601F007F8044601F040FE40B215495B
:1050500008711948006802F00FFA064600F0FAFFDE
:10506000044601F033FE40B20E49487101F0F2F9F6
:1050700012A200210846FDF73DFAFDF737FB09E0D3
:10508000FDF7E0F80EA220212820FDF733FAFDF706
:105090002DFB00BF00BF68E7C6000020B400002061
:1050A000C8000020B8000020B6000020AC0000209E
:1050B000B0000020B3B50000A8000020B6E6000054
:1050C000CEC2CAAAB6C8000070B50446002624F0B5
:1050D0000104184890F8240008B1002070BD15485C
:1050E000807A10B94FF0FF30F8E71248057C807ADB
:1050F0002040104908740846007CA04202D04FF0BE
:10510000FF3600E0002614B90A48007D18B10120DE
:1051100001F048F802E0002001F044F83CB100F052
:1051200049FB20B1034805744FF0FF30D6E7304605
:10513000D4E700006400002001461148407A30B1F5
:10514000012807D0022808D003280CD108E002204B
:1051500008700BE00420087008E00820087005E0E3
:105160001020087002E04FF0FF30704700BF044885
:10517000C07C18B108784006000E08700020F4E7E3
:105180006400002001461348407A30B1012808D05D
:1051900002280AD0032810D10BE04FF48040088089
:1051A0000EE041F69C7008800AE04FF480500880C1
:1051B00006E04FF40060088002E04FF0FF307047D7
:1051C00000BF0448C07C10B108884010088000204F
:1051D000F5E700006400002001460248007C0870EA
:1051E000002070476400002001460F48007A30B16B
:1051F000012807D0022809D003280FD10AE0FA209D
:1052000008800EE04FF4FA7008800AE04FF47A70DC
:10521000088006E04FF4FA60088002E00020088071
:1052200000BF00BF002070476400002001460E4808
:10523000007A30B1012807D0022808D003280CD109
:1052400008E00A4808600BE00948086008E00948DF
:10525000086005E00848086002E04FF0FF30704742
:1052600000BF0020FBE700006400002000000343B3
:1052700000008342333303423333834101461248F3
:10528000C07A082817D2DFE800F01704070A0D10CB
:105290001318BC20088013E06220088010E02A2048
:1052A00008800DE0142008800AE00A20088007E04A
:1052B0000520088004E000BF00BF0020088000BF78
:1052C00000BF00207047000064000020014606482F
:1052D00090F8240010B14FF0FF3070470248C089A9
:1052E00008800020F9E70000640000201CB5802041
:1052F0008DF80000654A1268917C644A5268107803
:105300006B460122FFF70DFD10B14FF0FF301CBDC1
:105310006420FEF76DFB00208DF800005B4A1268E8
:10532000917C5A4A526810786B460122FFF7F9FCCB
:1053300010B14FF0FF30EAE7544A1268917D534AAA
:10534000526810786B460622FFF7B0FC10B14FF0A0
:10535000FF30DCE79DF80500C007400F9DF8031003
:1053600001F0010140EA41009DF8011001F0010146
:1053700040EA010494B1012C03D101214348C174D6
:1053800031E0022C03D100214048C1742BE02146BA
:105390003FA0FAF74FFF4FF0FF30B8E73B4A1268E3
:1053A000D1783A4A526810786B460122FFF77EFCAA
:1053B00010B14FF0FF30AAE79DF8000000F00F0495
:1053C0002CB93D48FAF736FF4FF0FF309FE7042C29
:1053D00006D13AA0FAF72EFF01212C48C17402E051
:1053E00000212A48C174FF2128488172FF202749E3
:1053F0000872FF2125484172C1724FF6FF71C181C9
:10540000FF21017481740121017380F822100021B1
:1054100080F823104175017516300160416081608C
:10542000163880F8241080F82510C1844FF4FA60F3
:1054300000F05CFC10B14FF0FF3068E7022000F094
:1054400025FB10B14FF0FF3061E72A2000F0C8FCC7
:1054500010B14FF0FF305AE7322000F003FD10B1D9
:105460004FF0FF3053E70020FFF72EFE10B14FF052
:10547000FF304CE7002000F04BFB10B14FF0FF3045
:1054800045E7002000F03CFD002040E764000020DC
:10549000556E737570706F7274656420736F667487
:1054A000776172652070726F6475637420726576BF
:1054B0002025642E0A00000074D5000848616C663F
:1054C0002073656E7369746976697479207061728E
:1054D0007420666F756E642E0D0A00002DE9F0438E
:1054E00085B005460E4690469946294890F8250015
:1054F00020B14FF0FF3005B0BDE8F08316B94FF092
:10550000FF30F8E7002423E0281B102801DD1020DD
:1055100000E0281B87B232193946204600F058FDBA
:1055200010B14FF0FF30E6E701AA3946204600F0FF
:1055300001F910B14FF0FF30DDE730193A4601A90B
:10554000FAF784FF10B16FF00100D4E7E01984B2DC
:10555000AC42D9DB4FEA28208DF8000008F0FF00AC
:105560008DF801000A4A1268917E094A5268107843
:105570006B460222FFF7D5FB10B14FF0FF30BAE7C0
:105580000121034880F82510A0F826900020B2E7FA
:105590006400002038B50446282C02DD4FF0FF30AF
:1055A00038BDDCB9002000F0E5FB00208DF80000DC
:1055B00007208DF801002E4A1268917C2C4A52680F
:1055C00010786B460222FFF7ACFB10B14FF0FF30B2
:1055D000E6E70021264801750020E1E7012000F000
:1055E000C9FB20208DF80000012C06D100208DF889
:1055F0000100052000F0F4FB17E0052C06DC01207B
:105600008DF80100052000F0EBFB0EE0142C06DC09
:1056100002208DF801000A2000F0E2FB05E00320E3
:105620008DF80100142000F0DBFB9DF8010007213C
:1056300001EB8010C0B28DF801000D4A1268917C18
:105640000B4A526810786B460222FFF76AFB10B1D2
:105650004FF0FF30A4E70821054881720021017353
:10566000012101750020FFF72FFD002098E70000C1
:1056700064000020F8B504460F4616462C4890F802
:10568000240010B94FF0FF30F8BD2948807A10B9D6
:105690004FF0FF30F8E7264A1268917A244A5268A0
:1056A00010786B460222FFF701FB10B14FF0FF307C
:1056B000EAE79DF801009DF8001040EA0125A542A7
:1056C00003DA00203070401EDEE719484068408849
:1056D000B5EB600F17DD164A1268517C144A526808
:1056E00010786B460122FFF7E1FA10B14FF0FF305E
:1056F000CAE79DF8000000F0100020B100F05AF851
:105700006FF00100C0E7E2B2094B1B68D97A084B81
:105710005B6818783B46FFF7C9FA10B14FF0FF30CD
:10572000B2E795FBF4F0401E30700020ACE70000BB
:1057300064000020F8B504460D46164616B94FF031
:10574000FF30F8BD1A48807A10B94FF0FF30F8E703
:1057500020128DF80000E0B28DF801009DF80100E4
:105760002844134949684989884202DD4FF0FF30D7
:10577000E7E70F4A1268117E0D4A526810786B46AF
:105780000222FFF7CEFA10B14FF0FF30D9E7EAB2AC
:10579000074B1B68597D064B5B6818783346FFF74B
:1057A00085FA10B14FF0FF30CBE70020C9E70000C9
:1057B0006400002008B56D48807A10B94FF0FF30C2
:1057C00008BD00200090694A1268D17B674A526880
:1057D00010786B460122FFF7A4FA10B14FF0FF30AA
:1057E000EEE7624A12685179604A526810786B4657
:1057F0000122FFF796FA10B14FF0FF30E0E75B4A65
:1058000012681179594A526810786B460122FFF7E5
:1058100088FA10B14FF0FF30D2E7544890F82400D6
:10582000002850D00C200090504A126811794F4A3D
:10583000526810786B460122FFF773FA10B14FF0EF
:10584000FF30BDE7C02000904848807A00F001009A
:1058500020B19DF8000040F020000090434A1268FB
:105860001179424A526810786B460122FFF759FAC3
:1058700010B14FF0FF30A3E73C48407C10B102204C
:10588000009001E000200090384A1268D17B374A2E
:10589000526810786B460122FFF743FA10B14FF0BF
:1058A000FF308DE700200090304A126851792F4A6E
:1058B000526810786B460122FFF733FA002852D065
:1058C0004FF0FF307CE704200090284A12681179DD
:1058D000264A526810786B460122FFF722FA10B16F
:1058E0004FF0FF306CE72148807C20B91F48807A58
:1058F00000F0010010B94020009001E0602000900D
:105900001A4A12681179194A526810786B460122B6
:10591000FFF707FA10B14FF0FF3051E71348407C12
:1059200010B10120009001E0002000900F4A1268A1
:10593000D17B0E4A526810786B460122FFF7F1F9CD
:1059400010B14FF0FF303BE7084A12685179074A1F
:1059500052681078054B10330122FFF7E2F910B1BD
:105960004FF0FF302CE700202AE700006400002001
:105970002DE9F04F8DB083460F4602200C9042482F
:1059800090F8240020B1002000F068F9012600E022
:10599000002603A8FFF728FC05A8FFF7CDFB01A808
:1059A000FFF76CFC02A8FFF791FC374890F80AA0BB
:1059B00004A8FFF711FC002407E0002239465846EE
:1059C000FEF7B4FE00B902E0641C022CF5DB00BF58
:1059D000022C01D1002528E0002407E0012206A9BD
:1059E00009A8FEF7A3FE00B902E0641C022CF5DB57
:1059F00000BF022C01D1002517E006A93846FDF7AB
:105A000027FC00F0FF0809A95846FFF7C7F800F087
:105A1000FF090025B9F1000F01D145F00105B8F1EA
:105A2000000F01D145F0020500BFFF2016490872A2
:105A3000FF2115484172C1724FF6FF71C181FF21EC
:105A40008172017401210173BDF80C0000F04EF960
:105A50009DF8140000F01AF8BDF8040000F0C0F939
:105A6000BDF8080000F0FEF9504600F049FA9DF834
:105A70001000FFF729FB16B1012000F0EFF82846CF
:105A80000DB0BDE8F08F00006400002038B504467A
:105A90001E48807A10B94FF0FF3038BD022C06D076
:105AA000042C07D0082C08D0102C0CD108E00020C2
:105AB00000900BE00820009008E01020009005E026
:105AC0001820009002E04FF0FF30E6E700BF0F48DB
:105AD000407A9DF80010B0EBE10F01D10020DCE727
