:020000040800F2
:10000000F01F002089010008E50900086D020008C2
:100010002D090008410600088F200008000000009C
:10002000000000000000000000000000271600088B
:10003000B906000800000000F701000829180008B0
:10004000A3010008A3010008A3010008A301000800
:10005000A3010008A3010008A3010008A3010008F0
:10006000A3010008A3010008A3010008A3010008E0
:10007000A3010008A3010008A3010008A3010008D0
:10008000A3010008A3010008A3010008A3010008C0
:10009000A3010008A3010008A3010008A3010008B0
:1000A000A3010008A3010008A3010008A3010008A0
:1000B000A3010008A3010008A3010008A301000890
:1000C000A3010008A3010008A3010008A301000880
:1000D000A3010008A3010008611D0008A301000896
:1000E000A3010008A3010008A301000800F002F822
:1000F00000F03AF80AA090E8000C82448344AAF188
:100100000107DA4501D100F02FF8AFF2090EBAE885
:100110000F0013F0010F18BFFB1A43F0010318473B
:100120003073000050730000103A24BF78C878C1C3
:10013000FAD8520724BF30C830C144BF04680C60ED
:10014000704700000023002400250026103A28BF35
:1001500078C1FBD8520728BF30C148BF0B60704739
:100160001FB51FBD10B510BD00F030FA1146FFF7E6
:10017000F7FF00F060FA00F04EFA03B4FFF7F2FF69
:1001800003BC00F051FA00000948804709480047C5
:10019000FEE7FEE7FEE7FEE7FEE7FEE7FEE7FEE737
:1001A000FEE7FEE704480549054A064B7047000094
:1001B00039180008ED000008F0190020F01F002099
:1001C000F01B0020F01B0020EFF3108072B6704788
:1001D00080F310887047324A1368012B04D04FF027
:1001E000010313602F4A10602F4A11602F484FF00F
:1001F000805101607047EFF3108272B628480168A1
:1002000091B14FF0000101602648016829B1EFF378
:10021000098121E9F00F0068016023490968096834
:10022000B1E8F00F81F3098882F310884EF0040ED4
:1002300070471D4908601B494FF0000008601849CD
:100240004FF0010008601A481A49D0F8002041EA2E
:100250000201016015484FF08051016016480068A6
:10026000006880F3088861B662B670471EF0040F1C
:100270000CBFEFF30880EFF3098020E9F00F40F89E
:1002800004ED1EF0040F0CBF80F3088880F309888A
:1002900000B503F003FD5DF804EB4EF0040E70476B
:1002A00060000020580000205C00002004ED00E009
:1002B00020ED00E00000FFFF08ED00E040EA010350
:1002C000024630B59B0710D14FF0013400E008C260
:1002D00008C91D1B9D4315EAC41FF8D013F0FF0188
:1002E00002F8011B0DD01B0AF8E711F8013B002BA7
:1002F00002F8013B05D011F8013B002B02F8013B4D
:10030000F3D130BD10B5431C02E010F8011B71B1F0
:100310008107FAD14FF0013202C88C1A8C4314EADB
:10032000C211F9D0C01A0A0603D0C01E10BDC01AEF
:1003300010BD0A0401D0801E10BD0902FCD0401E71
:1003400010BD40EA010370B59B072ED14FF0013676
:10035000042A2AD308C810C99D1B9D43121F15EA01
:10036000C61517D0D8B2E1B2401A50EA056110D1D3
:1003700098B2A1B2401A50EA05410AD123F07F4059
:1003800024F07F41401A50EA052102D1180EA0EB5B
:10039000146070BDA342DBD018BA21BA884201D9DB
:1003A000012070BD4FF0FF3070BD0AB9002070BD54
:1003B00010F8013B11F8014B63B1A3420AD1521E60
:1003C00008D010F8013B11F8014B1BB1A34201D139
:1003D000521EEDD1181B70BD421E12F8013F002BBA
:1003E000FBD111F8013B002B02F8013BF9D170471A
:1003F00010B5203AC0F00B80B1E81850203AA0E8C0
:100400001850B1E81850A0E81850BFF4F5AF5FEAF3
:10041000027C24BFB1E81850A0E8185044BF18C9A6
:1004200018C0BDE810405FEA827C24BF51F8043B4D
:1004300040F8043B08BF7047D20728BF31F8023BA1
:1004400048BF11F8012B28BF20F8023B48BF00F835
:10045000012B70474FF000020429C0F0128010F009
:10046000030C00F01B80CCF1040CBCF1020F18BF90
:1004700000F8012BA8BF20F8022BA1EB0C0100F023
:100480000DB85FEAC17C24BF00F8012B00F8012BF6
:1004900048BF00F8012B70474FF0000200B513462B
:1004A00094469646203922BFA0E80C50A0E80C5094
:1004B000B1F12001BFF4F7AF090728BFA0E80C5045
:1004C00048BF0CC05DF804EB890028BF40F8042B3E
:1004D00008BF704748BF20F8022B11F0804F18BFAB
:1004E00000F8012B704710B5044610F0030F08BF49
:1004F00011F0030F40F015804FF0013E121FC0F2C3
:100500000E8051F8043BA3EB0E0C2CEA030C1CEA02
:10051000CE1C08BF40F8043BF0D0A1F1040102F169
:100520000402521E08DB11F8013B002B00F8013BCE
:10053000F7D11146FFF78EFF204610BD4FF0013C6A
:1005400050F8042B51F8043B9A4221D1A2EB0C0342
:10055000934313EACC1317D150F8042B51F8043B02
:100560009A4215D1A2EB0C03934313EACC130BD19F
:1005700050F8042B51F8043B9A4209D1A2EB0C032A
:10058000934313EACC13DBD04FF00000704700BF59
:10059000D01A01BAB1FA81F101F0180122FA01F082
:1005A000CB40C1F12001DBB2C0B2C01A2CFA01F37A
:1005B000D11A914311EAC311E6D1704770477047D1
:1005C0007047000000487047901900207546FFF7FB
:1005D000F9FFAE4605006946534620F00700854600
:1005E00018B020B5FFF7DEFDBDE820404FF0000653
:1005F0004FF000074FF000084FF0000B21F007010B
:10060000AC46ACE8C009ACE8C009ACE8C009ACE84D
:10061000C0098D46704710B50446AFF300802046F0
:10062000BDE81040FFF7A9BD01491820ABBEFEE7A9
:1006300026000200704710B504F0BAFD002010BD7E
:1006400000BFFEE708B50121042000F0C9FE02202A
:10065000ADF8000010208DF8030003208DF8020093
:100660006946044800F04CF80221024800F027F9DE
:1006700008BD00000008014008B50220ADF80000E8
:1006800048208DF803006946014800F039F808BD9C
:100690000008014008B50220ADF8000010208DF8D8
:1006A000030003208DF802006946024800F028F894
:1006B00008BD000000080140704700B5034603E094
:1006C0004FF47A7000F005F8181EA3F10103F7D17A
:1006D00000BD00EBC001C9004FF0E02251610021D4
:1006E00091610521116100BF4FF0E021096901F41A
:1006F00080310029F8D004214FF0E02211617047C9
:100700002DE9F041024600250026002000230024A8
:10071000002791F803C00CF00F0591F803C00CF00E
:10072000100CBCF1000F03D091F802C04CEA050593
:1007300091F800C0BCF1000F31D0146800202BE00C
:100740004FF0010C0CFA00F3B1F800C00CEA0306FC
:100750009E4220D183004FF00F0C0CFA03F7BC43EC
:1007600005FA03FC4CEA040491F803C0BCF1280F1D
:1007700006D14FF0010C0CFA00FCC2F814C00AE0DC
:1007800091F803C0BCF1480F05D14FF0010C0CFAF1
:1007900000FCC2F810C0401C0828D1D31460B1F886
:1007A00000C0BCF1FF0F34DD546800202EE000F1E2
:1007B000080C4FF0010808FA0CF3B1F800C00CEA7D
:1007C00003069E4221D183004FF00F0C0CFA03F771
:1007D000BC4305FA03FC4CEA040491F803C0BCF1E5
:1007E000280F05D100F1080C08FA0CF8C2F81480A3
:1007F00091F803C0BCF1480F07D100F1080C4FF08D
:10080000010808FA0CF8C2F81080401C0828CED362
:100810005460BDE8F0810000F0B50A4600230024D2
:100820000021002500F00046B6F1004F02D11D4E18
:10083000F16901E01B4E7168C0F3034583B200F417
:100840004016B6F5401F08D121F07061154E76684C
:1008500026F07066134F7E6012E000F48016B6F545
:10086000801F06D1032606FA05F4A14341F070610A
:1008700006E0460D360103FA06F6B14341F0706119
:1008800022B1460D360103FA06F6314300F0004668
:10089000B6F1004F02D1034EF16101E0014E7160EB
:1008A000F0BD0000000001400246002093680B40AC
:1008B0000BB1012000E000207047416170470161E9
:1008C00070470AB1016100E04161704708B501213C
:1008D000082000F085FD48208DF8030040F6020056
:1008E000ADF8000003208DF8020069460148FFF7CB
:1008F00007FF08BD000C014008B50121042000F0ED
:100900006FFD10208DF803000620ADF800000320D5
:100910008DF8020069460448FFF7F2FE06210248FE
:10092000FFF7CDFF08BD00000008014000BFFEE753
:1009300008B50121082000F053FD10208DF80300B8
:100940004FF47040ADF8000003208DF802006946B6
:100950000148FFF7D5FE08BD000C014010B5044664
:10096000002C0DDB4FF480410C48FFF7A8FF4FF43B
:1009700000410A48FFF7A1FF204600F017FD0CE0F8
:100980004FF480410548FFF798FF4FF400410348BA
:10099000FFF795FF604200F009FD10BD000C01401B
:1009A00010B50446002C0DDB4FF480510C48FFF7C6
:1009B00086FF4FF400510A48FFF77FFF204600F002
:1009C000EBFC0CE04FF480510548FFF776FF4FF445
:1009D00000510348FFF773FF604200F0DDFC10BDDB
:1009E000000C0140704700001FB519A103C9CDE9F3
:1009F000020100200090019001F060FB012001F055
:100A000067FB002001F046FB052202A9302000F020
:100A100012F905226946102000F0DEF89DF800006A
:100A2000112812D19DF8010022280ED19DF8020054
:100A300033280AD19DF80300442806D19DF804000C
:100A4000552802D1002004B010BD0120FBE70000B2
:100A5000112233445500000070B50446072000F011
:100A6000D8F805462946272000F001F905F0400096
:100A7000A8B1012001F00EFB20222146612000F0E8
:100A8000ABF84FF0FF316FF01D0000F0F0F80120DF
:100A900001F000FB9620FFF71CFE002070BD012036
:100AA000FCE710B500F008F800BFFFF79DFF002835
:100AB000FBD100F059F810BD08B501210C2000F061
:100AC0008FFC10208DF80300ADF8000003208DF896
:100AD000020069462248FFF713FE10208DF803003C
:100AE0002020ADF8000003208DF8020069461C4864
:100AF000FFF706FE10208DF803008020ADF80000FF
:100B000003208DF8020069461548FFF7F9FD012022
:100B1000ADF8000010208DF8030003208DF80200CE
:100B200069461048FFF7ECFD48208DF8030040208F
:100B3000ADF8000003208DF8020069460848FFF771
:100B4000DFFD0220ADF8000048208DF803000320EF
:100B50008DF8020069460348FFF7D2FD08BD00008A
:100B600000080140000C014010B5002001F092FA8D
:100B70002021312000F07BF84FF0FF316FF01D0095
:100B800000F075F805221249302000F054F80522D3
:100B900010492A2000F04FF80121212000F067F8C9
:100BA0000121222000F063F81A21242000F05FF8D0
:100BB0000021252000F05BF80F21262000F057F8D7
:100BC0000F21202000F053F8012001F063FA10BD3E
:100BD0002C5B0008315B00082DE9F04107460D460B
:100BE0001646002001F074FA384600F0FBFC8046FF
:100BF000002406E04FF0FF3000F0F4FC2855601CA4
:100C000044B2B442F6DB012001F062FA4046BDE88E
:100C1000F08170B50446002001F05AFA204600F039
:100C2000E1FC4FF0FF3000F0DDFC0546012001F053
:100C30004FFA284670BD2DE9F04107460C4615468F
:100C4000002001F045FA384600F0CCFC8046002632
:100C500005E014F9010B00F0C5FC701C46B2AE4271
:100C6000F7DB012001F034FA4046BDE8F08170B5B1
:100C700005460C46002001F02BFA284600F0B2FC95
:100C80000646204600F0AEFC012001F021FA304675
:100C900070BD000070B5002100230F22C47804B39A
:100CA000154C246804F4E064C4F5E064210AC1F141
:100CB0000403CA40447804FA03F1847814402143C1
:100CC00009010E4C0678A155047804F01F05012493
:100CD000AC4005786D11AD0005F1E025C5F8004187
:100CE00009E0047804F01F050124AC40044D0678A7
:100CF000761145F8264070BD0CED00E000E400E000
:100D000080E100E002490143024A1160704700009F
:100D10000000FA050CED00E000200CE0002106E0E8
:100D20000022064B03EBC0135A544A1CD1B280294F
:100D3000F6DB421CD0B20828F0DB7047EC00002044
:100D40002DE9F04304460D4616461F467F2C01DD73
:100D5000BDE8F0833F2D00DDFAE7A119802902DD0F
:100D6000C4F18001CEB2E919402902DDC5F140018C
:100D7000CFB2284630E0234629E04FEAE07C00EB82
:100D80005C7C4FEAEC0CDFF85C8008EBCC1C1CF8B8
:100D900003C002464FEAE07800EB58784FEAE808D3
:100DA000A0EBC8094FF0010808FA09F82CEA080C72
:100DB00001464FEAE07800EB58784FEAE808DFF8A0
:100DC000249009EBC81808F803C0591CCBB2A1192C
:100DD0009942D2DC411CC8B2E9198142CBDC00BF88
:100DE000B6E70000EC00002038B5002406E000253E
:100DF00000E06D1CB5F57A7FFBD3641CB4F57A7FF7
:100E0000F5D30121082000F0EBFA14208DF803003F
:100E100003208DF802004FF48070ADF800006946A1
:100E20000848FFF76DFC4FF40070ADF8000069460C
:100E30000448FFF765FC012000F006FA012000F0ED
:100E40000FFA38BD000C014070B50546002411E0D2
:100E500080212141294009B1012100E000210846FB
:100E600000F0FEF9012000F0EFF9002000F0ECF9AD
:100E7000601CC4B2082CEBDB012000F0E5F9002077
:100E800000F0E2F970BD10B5012000F0E9F9012091
:100E900000F0DAF9002000F0E3F9002000F0D4F9C6
:100EA00010BD10B5002000F0DBF9012000F0CCF9F6
:100EB000012000F0D5F910BD10B5FFF795FFAE2069
:100EC00000F0DAF9D52000F0D7F9802000F0D4F94D
:100ED000A82000F0D1F93F2000F0CEF9D32000F097
:100EE000CBF9002000F0C8F9402000F0C5F9A1209E
:100EF00000F0C2F9C82000F0BFF9DA2000F0BCF918
:100F0000122000F0B9F9812000F0B6F9CF2000F0EE
:100F1000B3F9D92000F0B0F9F12000F0ADF9DB20F1
:100F200000F0AAF9302000F0A7F9A42000F0A4F9FD
:100F3000A62000F0A1F98D2000F09EF9142000F009
:100F40009BF9AF2000F098F9FFF7E6FE00F068F992
:100F500010BD10B50246012000E050430B1EA1F168
:100F60000101FAD110BD70B505460C4645F0B00040
:100F700000F082F9102141EA141000F07DF904F02C
:100F80000F0000F079F970BDF8B506460F4614461B
:100F90001D46082D0CD1A4F120000E4901EB0010D4
:100FA0001023082239460090304600F065F80FE023
:100FB000062D0DD1A4F1200000EB4000064901EB05
:100FC00040000823062239460090304600F054F8CD
:100FD000F8BD0000365B0008266100082DE9FC47DB
:100FE00080468946164600270020019000253AE0F9
:100FF000705D01A9C855781CC7B2022F31DB0027EC
:1010000000240CE0C4EBC40101EB8101184A8818EC
:1010100001A9FFF793FA00B90CE0601CC4B2C4EB5D
:10102000C40101EB8101124A881812A1FFF786FA68
:101030000028E7D100BFC4EBC40000EB80000C49DE
:101040000844C01C05F1010A0AEBDA714910491E77
:1010500008EB01110090C8B210231A46494600F06F
:101060000BF8681CC5B2705D0028C1D1BDE8FC87D3
:1010700060630008000000002DE9F04707460C46B9
:1010800090469946DDF820A07F2F01DDBDE8F0876E
:101090003F2C00DDFAE74B46424621463846FFF733
:1010A0004FFE002570E0002669E0B8197F2800DDBA
:1010B00067E0E11704EB517105EBE101072900DD61
:1010C000E4E72046E21704EB527205EBE202344BF0
:1010D00003EBC212BB19D25C2146E31704EB537336
:1010E000DB10A4EBC30305FB086C1AF80CC00CFA68
:1010F00003FC42EA0C02E31704EB537305EBE30332
:10110000DFF89CC00CEBC31307EB060C03F80C20B4
:10111000E11704EB517105EBE101491C072900DDE2
:101120002BE02046E21704EB527205EBE202521C60
:101130001B4B03EBC212BB19D25C2146E31704EB35
:101140005373DB10A4EBC303C3F1080305FB086C66
:101150001AF80CC04CFA03FC42EA0C02E31704EB49
:10116000537305EBE3035B1CDFF834C00CEBC313D4
:1011700007EB060C03F80C2000BF701CC6B24645F6
:1011800093DB00BF681CC5B2A9F10100C11700EBD9
:101190005171012202EBE101A94284DC00BF75E735
:1011A000EC0000202DE9F0470646894617461D460B
:1011B000DDF82080002417E0281B411E0A20FFF7DD
:1011C000C8FEB7FBF0F00A21B0FBF1F201FB120000
:1011D00000F1300A04FB0861C8B243465246494652
:1011E000FFF7D2FE601CC4B2AC42E5DBBDE8F0877D
:1011F0002DE9F0410646884615461F46002409E0C1
:101200002A5D04FB0761C8B23B464146FFF7BCFEBE
:10121000601CC4B2285D0028F2D1BDE8F081000056
:1012200010B500240BE000212046FFF79CFE054985
:1012300001EBC410802100F02FF8601CC4B2082C10
:10124000F1DB10BDEC00002010B5044622464FF43F
:1012500080710248FFF735FB10BD0000000C014013
:1012600010B5044622464FF400710248FFF729FBEF
:1012700010BD0000000C014010B50446FFF703FE4E
:101280007820FFF7E1FD0020FFF7DEFD2046FFF7A5
:10129000DBFDFFF706FE10BD70B505460E46FFF7F5
:1012A000F2FD7820FFF7D0FD4020FFF7CDFD0024B0
:1012B00004E0285DFFF7C8FD601CC4B2B442F8DB4F
:1012C000FFF7EFFD70BD000000B589B001210820D7
:1012D00000F086F80121042000F072F818208DF843
:1012E0002300C020ADF8200003208DF8220008A9BB
:1012F0002648FFF705FA264800F06BFB254800F06A
:1013000068FB0020ADF81A00ADF816006320ADF8B8
:1013100018002320ADF8140000208DF81C0005A94A
:101320001B4800F0CBFC01A800F0B5FC0020ADF894
:1013300010006020ADF804000020ADF80C00012082
:10134000ADF8060001A9124800F04AFB0821104838
:1013500000F092FB01A90E4800F098FB08210C4810
:1013600000F0E6FB01210A4800F00CFB01210848CF
:1013700000F014FB0020064934310880091D088064
:1013800004494031088009B000BD0000000C014054
:1013900000080040002C014010B5044621460248D8
:1013A00000F083FC10BD00000008004010B50446AA
:1013B0002146024800F07BFC10BD00000008004000
:1013C00029B1064AD2690243044BDA6104E0034AB8
:1013D000D2698243014BDA6170470000001002407D
:1013E00029B1064A92690243044B9A6104E0034A18
:1013F00092698243014B9A617047000000100240DD
:1014000030B500210022002400232D4D6D6805F029
:101410000C0121B1042905D0082923D105E0294D6B
:10142000056022E0274D05601FE0254D6D6805F43D
:101430007012234D6D6805F48034022505EB92424D
:101440001CB9214D554305600BE01D4D6D6805F439
:1014500000351DB11C4D5543056002E0194D554343
:10146000056002E0174D056000BF00BF144D6D68B8
:1014700005F0F0010909154D6B5C0568DD4045601C
:101480000F4D6D6805F4E061090A104D6B5C45680D
:10149000DD4085600A4D6D6805F46051C90A0B4D49
:1014A0006B5C4568DD40C560054D6D6805F44041E5
:1014B000890B074D6B5CC568B5FBF3F5056130BD65
:1014C0000010024000127A0000093D0014000020C4
:1014D0002400002010B540210148FFF7E5F910BDB8
:1014E0000008014070B50025002424E000BF02215F
:1014F0001348FFF7D9F90028F9D02820FFF7E9F8B9
:1015000002210F48FFF7D0F901280DD100BF0221B9
:101510000B48FFF7C9F90128F9D0C4F107010120F0
:101520008840C0B2054304E0C4F1070101208840AF
:101530008543601CC4B2082CD8DB284670BD00006F
:101540000008014010B50446FFF7A4F80221244822
:10155000FFF7B3F91220FFF7B0F802212048FFF798
:10156000AEF91E20FFF7B5F8FFF786F802211C48F8
:10157000FFF79AF980BB00BF02211948FFF794F9E1
:101580000028F9D000BF02211548FFF78DF9012886
:10159000F9D0FFF7A7FF2070FFF7A4FF6070FFF7F7
:1015A000A1FFA070FFF79EFFE070FFF79BFF207187
:1015B000FFF770F802210A48FFF781F92078617877
:1015C0000844A1780844E17808442179884201D18F
:1015D000012010BD0020FCE7FFE70020F9E7000034
:1015E0000008014070B50446002518E004F08000B2
:1015F000802803D1012000F057FD02E0002000F018
:1016000053FD600044B2012000F058FDFFF762FF77
:10161000204344B2002000F051FD681C45B2082D63
:10162000E4DB204670BD704700B587B00121480457
:10163000FFF7C6FE01210420FFF7D2FE18208DF827
:101640001B000420ADF8180003208DF81A0006A92D
:101650002048FFF755F848208DF81B000820ADF80A
:10166000180003208DF81A0006A91A48FFF748F859
:101670004FF4165002900020ADF814000C20ADF885
:1016800012000020ADF81000ADF80E00ADF80C000F
:1016900002A9114800F086FC012240F225510E48B3
:1016A00000F05BFC4FF4A060FFF72CFB26208DF8C8
:1016B000040001208DF807008DF805008DF8060064
:1016C00001A8FFF7E7FA0121034800F0C3FB07B0C8
:1016D00000BD0000000801400044004010B5044671
:1016E0002146054800F0CFFC00BF8021024800F0F1
:1016F000FDFB0028F9D010BD0044004010B500F0FB
:1017000001F810BD0CB5002001900090334800682E
:1017100040F480303149086000BF3048006800F470
:10172000003000900198401C0190009818B9019871
:10173000B0F5A06FF1D12948006800F4003010B175
:101740000120009001E0002000900098012843D182
:101750002348006840F010002149086008460068EE
:1017600020F0030008600846006840F002000860AE
:101770001A48406819494860084640684860084669
:10178000406840F4806048600846406820F47C105F
:1017900048600846406840F4E81048600846006821
:1017A00040F08070086000BF0C48006800F00070D6
:1017B0000028F9D00948406820F003000749486034
:1017C0000846406840F00200486000BF0348406897
:1017D00000F00C000828F9D10CBD000000100240F8
:1017E000002002402DE9F04106460C4615463046E1
:1017F00000F053FD074639460A4800F058FA2046E3
:1018000000F04BFD07463946064800F052FA2846DC
:1018100000F043FD07463946024800F04CFABDE8A7
:10182000F0810000002C014010B502F061FB03F0D4
:10183000C3F902F06DFB10BD10B51348006840F00D
:1018400001001149086008464068104908400E49E7
:101850004860084600680E4908400B490860084681
:10186000006820F4802008600846406820F4FE00EC
:1018700048604FF41F008860FFF740FF4FF00060A2
:101880000449086010BD0000001002400000FFF88D
:10189000FFFFF6FE08ED00E000B589B0012140F63B
:1018A0000500FFF79DFD4FF47060ADF82000182093
:1018B0008DF8230003208DF8220008A92E48FEF79A
:1018C0001FFF01212D48FEF7A7FF44F61F60ADF86A
:1018D00018004720ADF814000020ADF81A00ADF84C
:1018E000160005A9264800F0E9F96020ADF80400CB
:1018F0000120ADF806000020ADF80C0040F2DC50ED
:10190000ADF80A0001A91E4800F06AF808211C4839
:1019100000F0B2F840F2DC50ADF80A0001A9184816
:1019200000F0B4F80821164800F002F940F2DC504B
:10193000ADF80A0001A9124800F008F90821104882
:1019400000F054F940F2DC50ADF80A0001A90C484F
:1019500000F056F908210A4800F090F901210848E2
:1019600000F010F80121064800F024F80121044895
:1019700000F014F809B000BD000801404000160056
:10198000002C014021B1028842F08002028004E074
:1019900002884FF67F731A400280704721B1028897
:1019A00042F00102028004E002884FF6FE731A4002
:1019B0000280704731B1B0F8442042F40042A0F8F0
:1019C000442005E0B0F84420C2F30E02A0F8442001
:1019D000704701894FF6F87211400181704700008D
:1019E00070B5002400220023058C4FF6FE763540AA
:1019F0000584028C8388048B4FF68F752C40B51EAE
:101A00002C400D882C43751E2A400D892A434D8891
:101A10002A43144DA8420BD0134DA84208D0134DB1
:101A2000A84205D0124DA84202D0124DA84213D1AF
:101A30004FF6F7752A404D892A434FF6FB752A4029
:101A40008D882A434FF6FF652B404FF6FF552B40FC
:101A50008D892B43CD892B4383800483CD88858654
:101A6000028470BD002C0140003401400040014060
:101A700000440140004801400A460021018B4FF616
:101A8000F7731940114301837047000070B50024BB
:101A900000220023058C4FF6EF7635400584028C3A
:101AA0008388048B48F6FF752C404FF6FF452C4089
:101AB0000D884FF6FF7606EA05252C434FF6DF75B5
:101AC0002A400D8906EA05152A434D8806EA0515C0
:101AD0002A43154DA84202D0144DA8421DD14FF6FD
:101AE0007F752A404D894FF6FF7606EA05152A4391
:101AF0004FF6BF752A408D8806EA05152A434FF632
:101B0000FF352B404FF2FF752B408D8906EA850586
:101B10002B43CD8906EA85052B4383800483CD883A
:101B20000587028470BD0000002C01400034014094
:101B30000A460021018B4FF2FF7319404FF6FF73E5
:101B400003EA0223194301837047000070B50024A3
:101B500000220023058C4FF6FF6635400584028C79
:101B60008388848B4FF68F752C404FF6FC752C4084
:101B70000D882C434FF6FF552A400D894FF6FF760E
:101B800006EA05252A434D8806EA05252A43154D10
:101B9000A84202D0144DA8421DD14FF2FF752A4031
:101BA0004D894FF6FF7606EA05252A434FF6FF35A5
:101BB0002A408D8806EA05252A434EF6FF752B40FC
:101BC0004DF6FF752B408D8906EA05152B43CD890F
:101BD00006EA05152B4383808483CD88858702849C
:101BE00070BD0000002C0140003401400A46002175
:101BF000818B4FF6F77319401143818370470000C2
:101C000070B5002200230024058C4EF6FF76354087
:101C10000584038C8488828B48F6FF752A404FF632
:101C2000FF452A400D884FF6FF7606EA05252A4330
:101C30004DF6FF752B400D8906EA05352B434D887F
:101C400006EA05352B430B4DA84202D00A4DA842A7
:101C500008D14BF6FF752C408D894FF6FF7606EACA
:101C600085152C4384808283CD88A0F8405003845E
:101C700070BD0000002C0140003401400A460021E4
:101C8000818B4FF2FF7319404FF6FF7303EA022373
:101C90001943818370470021018041808180C18088
:101CA000018141818181C1817047818670470187AF
:101CB000704781877047A0F8401070470022028863
:101CC0001D4B98420ED01D4B98420BD0B0F1804F67
:101CD00008D01B4B984205D01A4B984202D01A4BA1
:101CE000984204D14FF68F731A404B881A43174B12
:101CF000984207D0164B984204D04FF6FF431A4043
:101D0000CB881A4302808B8883850B8803850A4B16
:101D100098420BD0094B984208D00E4B984205D000
:101D20000D4B984202D00D4B984201D10B7A03869D
:101D30000123838270470000002C014000340140E1
:101D40000004004000080040000C0040001000406B
:101D500000140040004001400044014000480140A0
:101D600010B540F225512B4800F0CDF8012850D194
:101D7000284800F083F92849087001202749087095
:101D80002548007808283ED2DFE800F03D161E26E0
:101D90002F36040DAA2000F080FA04462146204880
:101DA000FFF783FF2FE03C2000F077FA044621463E
:101DB0001B48FFF77AFF26E06FF01300FEF7F0FDF7
:101DC0001420FEF7CBFD1EE01420FEF7E9FD6FF0B6
:101DD0001300FEF7C3FD16E06FF01D00FEF7E0FDF7
:101DE0006FF01D00FEF7BAFD0DE01E20FEF7D8FDD6
:101DF0001E20FEF7B3FD06E00020FEF7D1FD002017
:101E0000FEF7ACFD00BF00BF40F22551014800F0D5
:101E100012F810BD004400403400002035000020BE
:101E2000002C014001F40072B2F5007F00D100BF28
:101E3000CA430280704710B50022002340F66A149E
:101E4000A14200D100BF0A1201249440A3B2DC4396
:101E5000048010BD21B1828942F40052828104E0E5
:101E600082894DF6FF731A408281704700B585B0B4
:101E700001210420FFF7B4FA01218803FFF7B0FA2B
:101E80004FF40070ADF8100018208DF813000320F7
:101E90008DF8120004A91348FEF732FC4FF480605D
:101EA000ADF8100004208DF8130004A90D48FEF7CA
:101EB00027FC4FF4E13000900020ADF80400ADF8AD
:101EC0000600ADF80800ADF80C000C20ADF80A00D3
:101ED0006946054800F066F801210348FFF7BAFF9C
:101EE00005B000BD00080140003801400246002056
:101EF000B1F5007F00D100BF13880B400BB101206A
:101F000000E00020704770B5024600240023002541
:101F1000002040F66A16B14200D100BFC1F342155D
:101F200001F01F03012606FA03F3012D02D1968961
:101F3000334006E0022D02D1168A334001E0968A32
:101F400033400C12012606FA04F41688344013B10B
:101F50000CB1012000E0002070BDF0B50346002464
:101F600000260025002040F66A17B94200D100BFC4
:101F70001846C1F3421401F01F06012707FA06F5BF
:101F8000012C01D10C3004E0022C01D1103000E012
:101F900014301AB107682F43076002E00768AF43A7
:101FA0000760F0BD2DE9F04786B005460E460024D7
:101FB000A24600BFA1460027B08900B100BF2F464E
:101FC0002C8A4CF6FF700440F08804432C82AC89C4
:101FD0004EF6F3100440B0883189084371890843F4
:101FE0000443AC81AC8A4FF6FF400440B0890443FF
:101FF000AC8201A8FFF704FA1F48874202D1DDF83E
:1020000010A001E0DDF80CA0A88900F4004040B168
:102010000AEBCA0000EB0A1031684900B0FBF1F886
:1020200007E00AEBCA0000EB0A1031688900B0FB38
:10203000F1F86420B8FBF0F004012009642101FBF1
:102040001089A88900F4004040B1322000EBC9009B
:10205000B0FBF1F000F00700044308E0322000EB91
:1020600009106421B0FBF1F000F00F0004432C8153
:1020700006B0BDE8F08700000038014001468888BE
:10208000C0F308007047C1F308028280704700BFA8
:10209000FEE7000010B50446224601210148FEF784
:1020A00010FC10BD000C014010B5044622468021F2
:1020B0000148FEF706FC10BD0008014010B50446BB
:1020C000224620210148FEF7FCFB10BD000801401C
:1020D00010B50446224610210148FEF7F2FB10BD60
:1020E00000080140014609B900207047C8B220B17C
:1020F000C8B20E4A105C401CF7E701F47F4028B1DB
:102100000A48C1F30722805C0930EEE701F47F0042
:1021100028B10648C1F30742805C1130E5E7034867
:1021200000EB116000781930DFE70000CE6F000887
:102130002DE9F04389B0064688469146002400E028
:10214000641C305D202804D0305D092801D044454E
:10215000F6D324B94FF0FF3009B0BDE8F083214633
:10216000304601F01FFA054615B94FF0FF30F3E78E
:10217000202101A8FEF790F901AA4146304601F05E
:1021800081FA074617B94FF0FF30E5E701A9384655
:10219000A847C9F800000020DEE700002DE9FC5F39
:1021A00004468B4615461E46DDE90C9ADDE90E789D
:1021B00004F114004060006000BF1C346560A6603C
:1021C000C4F80C90C4F810A02321D4E9030202F053
:1021D0004AF8D4E9033C63441A1F0F4BD4E90101C8
:1021E00001F060FE2060A77667760020E061C4F809
:1021F0002080C4F82480606120766065A0651C3C66
:1022000000902346054A2146019004F1440002F063
:1022100082FD0020BDE8FC9FB1480008F14A00089B
:102220002DE9F04704460E4617469846DDF8209003
:1022300084F80990607A20F001006072E6612762FC
:102240000020A062C4F82480002506E004F11401F7
:1022500001EBC50001F0D4FE6D1C012DF6DBBDE8DD
:10226000F08770B50546002406E005F1140101EB86
:10227000C40001F018FF641C012CF6DB70BD70B5C2
:102280000446FDF7A1FF0546206F10B12046216FDF
:1022900088472846FDF79CFF70BD0146B42900DD44
:1022A000B4214FF4FA604843B42290FBF2F000F5F9
:1022B000FA7080B27047000010B520A001F082FED5
:1022C0002148017821A001F07DFE1F48007800F030
:1022D000010010B123A001F075FE1B48007800F04A
:1022E000020010B122A001F06DFE1748007800F046
:1022F000040010B121A001F065FE1348007800F041
:10230000080010B121A001F05DFE0F48007800F038
:10231000100010B120A001F055FE0B48007800F02D
:10232000800030B108480F3001681DA001F04AFE5E
:1023300002E01FA001F046FE10BD00006275732090
:102340006661756C743A0A0029ED00E05343425F00
:10235000434653525F424653523A30782530325802
:102360002000000049425553455252200000000011
:10237000505245434953455252200000494D505256
:10238000454349534552522000000000554E5354D6
:102390004B4552522000000053544B4552522000EE
:1023A0005343422D3E424641523A253038580A00A6
:1023B0000A00000070B504460D4600F039FD00200B
:1023C00070BD70B504460D4600F00AFE002070BDD9
:1023D00010B51548006890F82100C0F3400020B9FE
:1023E000002012490870084610BD1148006840B12D
:1023F0004FF480720E4801680C48FEF774F80B48E1
:10240000F2E701F03DF920B10AA10848FDF756FFB7
:1024100003E00AA10548FDF751FF0AA10348FDF7B3
:10242000DBFF0248E0E7000050000020F504002038
:10243000540000206D7368200000000066696E7310
:10244000682000003E00000010B501F0DDFB10BD6B
:102450000549096891F8211060F34101024A1268A8
:1024600082F821107047000050000020024A1060DE
:10247000024A116070470000400000204400002024
:102480007CB5002517491848FFF7F0FF7821012097
:1024900001F09EFA154908600846006820B914A0AA
:1024A00001F090FD681E7CBD0A2015214FF4806369
:1024B0000022CDE90010144914A002F0D0F904461E
:1024C00000231A4613A10948006802F017F80120FA
:1024D000FFF7BEFF1CB115B9204602F0D1FA00206B
:1024E000E1E70000507400089073000850000020DD
:1024F0006E6F206D656D6F727920666F72207368E4
:10250000656C6C0A000000001D2500087473686586
:102510006C6C00007368727800000000E948006885
:1025200090F8210020F00100401CE649096881F87C
:102530002100FFF74DFF054601F044FDC1E1FFF723
:1025400083FF0446002C00DABBE11B2C05D10120DF
:10255000DC49096881F82000B3E1DA48006890F8A6
:10256000200001280DD15B2C05D10220D549096836
:1025700081F82000A5E10020D249096881F82000F7
:1025800045E0D048006890F8200002283FD10020A4
:10259000CC49096881F82000412C00D191E1422CFE
:1025A00000D18EE1442C11D1C6480068B0F8740007
:1025B00058B1C5A001F006FDC2480068B0F874002B
:1025C000401EC0490968A1F874007AE1432C1ED16D
:1025D000BC480068B0F87400BA490968B1F87210D4
:1025E000884213DAB7480068B0F87420B54800682C
:1025F0002230815CB5A001F0E5FCB2480068B0F87B
:102600007400401CAF490968A1F8740059E10CB18D
:10261000FF2C00D155E1092C1FD1002503E0AAA011
:1026200001F0D0FC6D1CA7480068B0F87400A84207
:10263000F5DCA4480068223002F0D0FDA148006813
:102640002230FDF75FFE80B29E490968A1F8720052
:102650009C490968A1F8740033E17F2C01D0082C53
:102660006ED198480068B0F8740000B929E1954827
:102670000068B0F87200401E92490968A1F8720023
:1026800090480068B0F87400401E8E490968A1F8AF
:1026900074008C480068B0F872008A490968B1F883
:1026A000741088423FDD874B1B68B3F87230854E4B
:1026B0003668B6F874609A1B824B1B68B3F87430A6
:1026C0005B1C804E3668223699197E4B1B68B3F826
:1026D00074607C4B1B682233F01801F0A3FD0022CC
:1026E00078480068B0F8721076480068223042548A
:1026F00074480068B0F874207248006822301118DD
:1027000073A001F05FFC6F480068B0F8745003E0FC
:102710006DA001F057FC6D1C6A480068B0F87200AB
:10272000A842F5DA0BE06CA001F04CFC00216548F2
:102730000068B0F872206348006822308154C0E01D
:102740000D2C01D00A2C2BD100F09AFF012812D1B8
:102750005C48006890F8210000F0010010B15FA013
:1027600001F030FC57480068B0F872105548006816
:10277000223000F0E1FEFFF72BFE054601F022FCBF
:102780005021504800682230FDF764FE00204D497A
:102790000968A1F872004B490968A1F8740090E03B
:1027A00048480068B0F87200502804DB0020454912
:1027B0000968A1F8720043480068B0F87400414904
:1027C0000968B1F87210884245DA3E4B1B68B3F8CD
:1027D00072303C4E3668B6F874609A1B394B1B68F1
:1027E000B3F87460374B1B682233F118354B1B6804
:1027F000B3F874305B1C334E36682236981901F0FA
:1028000011FD30480068B0F874202E48006822306E
:1028100084542C48006890F8210000F0010050B169
:1028200028480068B0F87420264800682230111843
:102830002BA001F0C7FB23480068B0F8745003E0F8
:1028400021A001F0BFFB6D1C1E480068B0F87200AB
:10285000A842F5DC12E01B480068B0F87220194865
:102860000068223084541748006890F8210000F076
:10287000010018B1214615A001F0A4FB0024114865
:102880000068B0F87200401C0E490968A1F8720097
:102890000C480068B0F87400401C0A490968A1F8A7
:1028A000740008480068B0F87200502808DB002067
:1028B00004490968A1F8720002490968A1F8740086
:1028C00000BF3CE650000020080000002563000027
:1028D0000825732020080000082008000A000000D6
:1028E0002573000010B51448006800F0020010B114
:1028F00012A001F067FB1048006800F0804088B12A
:102900000D48C01E007808B1FFF7D6FC0A48001F2A
:10291000007808B100F04CFD0748801E008808B11F
:1029200002F0B8FC0448006800F0004010B109A0B3
:1029300001F048FB10BD00002CED00E06661696C01
:10294000656420766563746F722066657463680AD7
:10295000000000006465627567206576656E740A24
:102960000000000010B502A001F02CFB002010BDFB
:1029700048656C6C6F2052542D54687265616421F7
:102980000A00000008B5FEF7C7F9082333A20021AA
:102990002820FEF72DFC082332A220211C20FEF760
:1029A00027FC3348FEF7CEFD012856D108200090C1
:1029B0002F488278022310212820FEF7F3FB0823FA
:1029C0002CA210213820FEF713FC08200090284884
:1029D000C278012310214020FEF7E4FB082000907C
:1029E00023480278022330212820FEF7DBFB08234E
:1029F00020A230213820FEF7FBFB082000901C4865
:102A00004278022330214020FEF7CCFBFEF708FC81
:102A10001748807840B2184908701548C07840B20D
:102A200048701348007840B288701148407840B22E
:102A3000C870FEF7F5FB1148807901280DD1C1203F
:102A4000FEF74CFE0A498878FEF748FEC220FEF7E2
:102A500045FE07490878FEF741FE08BD74656D70B4
:102A60003A00000068756D696469747900000000BF
:102A70002A0000202E0000002F000020EC0400207F
:102A800088E04548FDF7E8FF43480078434908706F
:102A9000084690F9000020B1012805D0022878D11D
:102AA00074E002F071FC74E03B4890F903000128E7
:102AB00008DC394890F90300B0F1FF3F02DB3648EB
:102AC000C07838B93448C07800EB40005A3040B282
:102AD00033490870304890F90400012808DC2E487A
:102AE00090F90400B0F1FF3F02DB2B48007948BBAE
:102AF000294991F9040002F01AFE80460022294B70
:102B000002F02CFE06460022274B02F039FD044657
:102B100002F0DEFD40B2254908701F4991F904001A
:102B200002F005FE064600221E4B02F017FE044688
:102B300000221D4B02F024FD804602F0C9FD40B288
:102B40001B490870144890F90500072807DDAA20E2
:102B5000FFF7A3FB044621461648FFF7A6F80E48E8
:102B600090F9050010F1070F07DA3C20FFF795FBFD
:102B7000044621460F48FFF798F80C4B1A78084B8B
:102B800019780B4B1878FEF72DFE02E0FFF7FAFEDE
:102B900000BF00BF75E70000EC0400203C000020EF
:102BA0003D0000200000F83F008056403E0000201D
:102BB0003F000020002C014010B50DA001F002FAEA
:102BC000104804680DE002220FA12068FDF7B9FB50
:102BD00000B905E00DA0D4E9001201F0F3F900BF3F
:102BE0000C340E4800688442EDD3002010BD000074
:102BF0002D2D46756E6374696F6E204C6973743A3F
:102C00000A000000400000205F5F0000252D3136E3
:102C100073202D2D2025730A0000000044000020A1
:102C20002DE9F04704460D4616461F46284601F09A
:102C300089FB814609F10408C4F8008025726660AA
:102C4000E76000202061BDE8F0872DE9F84F0746D6
:102C50000C464FF0000A00202061E06808B1207A9D
:102C600010B90020BDE8F88FD4F800801FB94546A0
:102C70004FF0010A00E03D46FDF7A6FA0090BAF1D8
:102C8000000F0ED1A5F10C0B9BF8080020F080007E
:102C9000217A884204D00098FDF79AFA0020E1E7F3
:102CA00000BF0026D4F804900BE02D68454501D103
:102CB000002507E0761C49F8045BE068B04200D1CB
:102CC00000E0F2E700BF0098FDF782FA266128468F
:102CD000C8E700002DE9F04F91B000270FF2D409AA
:102CE000082304AA05210CA8FFF79AFF4FF0080853
:102CF0004A46414631A001F065F9404600F03AFDF0
:102D000037A001F05FF900BF0CA93846FFF79DFF1F
:102D10000746002545E004A850F82500A0F10C0660
:102D2000FDF752FA8346307A20F080009DF8381083
:102D3000884203D05846FDF74BFA31E05846FDF77C
:102D400047FA344604F1140001F079F9B8B904F1F6
:102D5000140001F08CF98246208C618C23460822F5
:102D6000CDE9010A0091414624A001F02BF904F1BC
:102D7000140002F04FFA27A001F024F90FE004F14B
:102D8000140001F074F98246208C618C23460822DD
:102D9000CDE9010A009141461FA001F013F900BFDF
:102DA0006D1C1098A842B6DC002FADD1002011B0E8
:102DB000BDE8F08F6D61696C626F7800252D2A2E59
:102DC0007320656E7472792073697A6520737573E8
:102DD00070656E64207468726561640A00000000AA
:102DE000202D2D2D2D20202D2D2D2D202D2D2D2D47
:102DF0002D2D2D2D2D2D2D2D2D2D0A00252D2A2E5D
:102E00002A73202530346420202530346420256442
:102E10003A0000000A000000252D2A2E2A732025E2
:102E20003034642020253034642025640A000000FA
:102E300010B50848016808A001F0C4F80B48016803
:102E40000BA001F0BFF80F4801680FA001F0BAF81D
:102E500010BD00007C000020746F74616C206D65F3
:102E60006D6F72793A2025640A000000800000200E
:102E700075736564206D656D6F7279203A202564E5
:102E80000A000000840000206D6178696D756D2076
:102E9000616C6C6F6361746564206D656D6F7279D0
:102EA0003A2025640A0000002DE9F04F8FB000277A
:102EB0000FF2CC09082302AA02210AA8FFF7B0FEEC
:102EC0004FF008084A46414630A001F07BF84046E2
:102ED00000F050FC34A001F075F800BF0AA9384694
:102EE000FFF7B3FE0746002541E002A850F8250091
:102EF000A0F10C06FDF768F98346307A20F08000D7
:102F00009DF83010884203D05846FDF761F92DE056
:102F10005846FDF75DF9344604F1140001F08FF8CE
:102F2000A8B904F1140001F0A2F88246A08B234650
:102F300008224146CDE9000A21A001F043F804F13E
:102F4000140002F067F917A001F03CF80DE004F15D
:102F5000140001F08CF88246A08B234608224146DB
:102F6000CDE9000A1AA001F02DF800BF6D1C0E98E3
:102F7000A842BADC002FB1D100200FB0BDE8F08F1D
:102F800073656D6170686F7265000000252D2A2ED3
:102F900073207620202073757370656E64207468CA
:102FA000726561640A000000202D2D2D202D2D2D2D
:102FB0002D2D2D2D2D2D2D2D2D2D2D0A0000000018
:102FC000252D2A2E2A7320253033642025643A00CB
:102FD000252D2A2E2A7320253033642025640A00EB
:102FE0002DE9F04FAFB04FF000090FF21C1B082382
:102FF00021AA012129A8FFF713FE4FF0080A5A461B
:103000005146434800F0DEFF504600F0B3FB41A0BC
:1030100000F0D8FF00BF29A94846FFF716FE8146F9
:103020004FF0000865E021A850F82800A0F10C0539
:10303000FDF7CAF82E90287A20F080009DF8AC1099
:10304000884203D02E98FDF7C3F850E07822294635
:1030500003A8FDF7CDF92E98FDF7BAF82C4694F8A1
:10306000350023460822514600903AA000F0AAFFFE
:1030700094F8340000F00F06012E03D138A000F0C0
:10308000A1FF15E0022E03D138A000F09BFF0FE056
:103090001EB939A000F096FF0AE0042E03D139A032
:1030A00000F090FF04E0032E02D139A000F08AFF67
:1030B000A76A00E07F1C38782328FBD0D4E90A10E7
:1030C000791A401A64214843E16AB0FBF1F002909A
:1030D000216B206CCDE90001E369A06AC01AE36AA4
:1030E000C1181A462DA0029B00F06CFF00BF08F12A
:1030F00001082D98404596DCB9F1000F8BD10020D6
:103100002FB0BDE8F08F0000746872656164000044
:10311000F0700008202D2D2D20202D2D2D2D2D2D52
:103120002D202D2D2D2D2D2D2D2D2D2D202D2D2DE9
:103130002D2D2D2D2D2D2D20202D2D2D2D2D2D20E6
:10314000202D2D2D2D2D2D2D2D2D2D202D2D2D0AEC
:1031500000000000252D2A2E2A732025336420002C
:10316000207265616479202000000000207375736F
:1031700070656E640000000020696E697420202074
:103180000000000020636C6F7365202000000000C9
:103190002072756E6E696E67000000002030782521
:1031A000303878203078253038782020202025309D
:1031B00032642525202020307825303878202530AD
:1031C00033640A002DE9F04790B000270FF2B409EC
:1031D000082303AA0A210BA8FFF722FD4FF00808D5
:1031E0004A46414629A000F0EDFE404600F0C2FAF2
:1031F00030A000F0E7FE00BF0BA93846FFF725FD21
:10320000074600262DE003A850F82600A0F10C0484
:10321000FCF7DAFF8246207A20F080009DF8341017
:10322000884203D05046FCF7D3FF19E05046FCF724
:10323000CFFF2546D5E909012B460822CDE900013B
:10324000414625A000F0BEFE687A00F0010018B1EA
:1032500027A000F0B7FE02E028A000F0B3FE00BFF8
:10326000761C0F98B042CEDC002FC5D101F09EFC39
:103270000446214625A000F0A5FE002010B0BDE8C0
:10328000F087000074696D6572000000252D2A2EFC
:10329000732020706572696F6469632020207469EF
:1032A0006D656F757420202020202020666C61677A
:1032B0000A000000202D2D2D2D2D2D2D2D2D2D2002
:1032C0002D2D2D2D2D2D2D2D2D2D202D2D2D2D2D3B
:1032D0002D2D2D2D2D2D0A00252D2A2E2A7320303F
:1032E0007825303878203078253038782000000074
:1032F0006163746976617465640A00006465616382
:10330000746976617465640A000000006375727206
:10331000656E74207469636B3A3078253038780AAA
:10332000000000001CB5FEF7B7FAFDF7C5FDFDF77C
:10333000CBFFFDF7FDFAFDF7B4FBFEF775F9FDF7DE
:1033400081F901210920FEF74BF801210F48FDF713
:1033500063FAFEF7A1FA142003214FF40073002250
:10336000CDE900100A490BA001F079FA0B49086079
:103370000846006820B10846006801F081FB02E0C1
:103380004FF0FF301CBD0020FCE7000000023000C1
:10339000812A00086C6564310000000038000020BC
:1033A00010B5044600F034FBFFF7BCFF10BD000071
:1033B00010B51CA000F006FE1F4801781FA000F009
:1033C00001FE1D48007800F0010010B121A000F0BE
:1033D000F9FD1948007800F0020010B120A000F0BB
:1033E000F1FD1548007800F0080010B11FA000F0B2
:1033F000E9FD1148007800F0100010B11EA000F0A7
:10340000E1FD0D48007800F0800030B10A480C3032
:1034100001681CA000F0D6FD02E01EA000F0D2FD65
:1034200010BD00006D656D206D616E616765206681
:1034300061756C743A0A000028ED00E05343425F66
:10344000434653525F4D4653523A307825303258F6
:10345000200000004941434356494F4C20000000E2
:103460004441434356494F4C200000004D554E53B4
:10347000544B4552522000004D53544B455252205C
:10348000000000005343422D3E4D4D41523A25303D
:1034900038580A000A0000002DE9F047814600264E
:1034A000002799F8000028B90021084600F0A8F884
:1034B000BDE8F0871B48046827E006221AA12068AF
:1034C000FCF73FFF00B11FE0206800F10608484606
:1034D000FCF718FF8246524641464846FCF731FF4A
:1034E00088B926B947463846FCF70CFF06464146E0
:1034F000384601F0BAFE0546B54200DA2E4641468E
:103500000BA000F05FFD00BF0C340A480068844245
:10351000D3D327B132463946484601F0BDF800BF43
:10352000C6E70000400000205F5F636D645F00003D
:1035300025730A004400002038B504460D4601E01A
:10354000641C6D1E2DB120782028F9D02078092820
:10355000F6D00DB9002038BD6A4629462046FEF750
:10356000E7FD08B90098F6E7204600E0401C017826
:10357000202902D001780029F8D1002101702146CC
:1035800002A000F01FFD4FF0FF30E4E725733A2062
:10359000636F6D6D616E64206E6F7420666F756E03
:1035A000642E0A002DE9F04106460D46002710481A
:1035B000046815E006220FA12068FCF7C2FE00B1E6
:1035C0000DE02168881D2A463146FCF7BAFE28B96D
:1035D000A81D2168085C08B9A76805E000BF0C3485
:1035E000064800688442E5D300BF3846BDE8F08154
:1035F000400000205F5F636D645F000044000020B6
:1036000070B505460E460FA000F0DCFC14480468B7
:103610000EE0062213A12068FCF793FE00B106E03D
:10362000D4E90002811D11A000F0CCFC00BF0C34D5
:10363000114800688442ECD310A000F0C3FC0020C5
:1036400070BD000052542D54687265616420736827
:10365000656C6C20636F6D6D616E64733A0A000077
:10366000400000205F5F636D645F0000252D3136F0
:1036700073202D2025730A00440000200A0000005A
:10368000012070472DE9F04782460E469046544689
:103690000025002755E003E000202070641C6D1C0D
:1036A0002078202802D02078092801D1B542F3D310
:1036B000082F12D326A000F085FC4FF0000906E089
:1036C00058F829102AA000F07DFC09F10109B9453C
:1036D000F6D326A000F076FC35E0B54200D332E008
:1036E000207822281CD1641C6D1C48F827407F1CC0
:1036F00009E020785C2804D16078222801D1641C7C
:103700006D1C641C6D1C2078222801D0B542F0D3BA
:10371000B54200D317E000202070641C6D1C10E03F
:1037200048F827407F1C01E0641C6D1C207820288D
:1037300004D02078092801D0B542F5D3B54200D392
:1037400001E0B542A7D300BF3846BDE8F0870000CE
:10375000546F6F206D616E79206172677320212034
:103760005765206F6E6C79205573653A0A0000002A
:103770002573200010B5044602E004A000F022FCEE
:10378000201EA4F10104F8D110BD00002D0000009E
:1037900030B51A4C436824681919884215D04B88F3
:1037A0009BB9174B1B6899420FD0164B1B688B4275
:1037B00001D1144B18604B684360104B1B68C31A4F
:1037C0000E4D4C682D682C44A3600C4C8368246813
:1037D0001A19824211D053887BB90A4B1B68834265
:1037E00001D1084B1A6043685360044B1B68D31A1D
:1037F000024D44682D682C44A36030BD7000002049
:1038000074000020780000202DE9F04F86B00D46AE
:103810009C46DDE9106401960F9B04F04008B8F166
:10382000000F02D0DFF8708101E0DFF87081CDF881
:10383000008004F01008B8F1000F01D024F001045A
:1038400004F00108B8F1000F02D04FF0300801E099
:103850004FF02008C246002704F00208B8F1000F1C
:1038600011D0002A02DA2D2752420CE004F004089D
:10387000B8F1000F01D02B2705E004F00808B8F1DB
:10388000000F00D02027002142B94FF0300B8846AE
:10389000491C0DF1080909F808B01DE01AE0E146DD
:1038A000B9F10A0F08D14FF00A0BB2FBFBFE0BFB7C
:1038B0001E28B2FBFBF202E002F00F08120900BF63
:1038C000DDF8009019F808B08846491C0DF1080988
:1038D00009F808B0002AE2D1B14200DD0E469B1B78
:1038E00004F01108B8F1000F10D117B1002B00DD62
:1038F0005B1E06E0A84203D24FF0200880F800804B
:10390000401CB3F10008A3F10103F3DC27B1A84286
:1039100000D207705B1E401C04F01008B8F1000FC5
:103920000AD104E0A84201D280F800A0401CB3F103
:103930000008A3F10103F5DC06E0A84203D24FF032
:10394000300880F80080401CB046761E8845F4DCC4
:1039500008E0A84205D20DF1080818F8018080F8A7
:103960000080401CB1F10008A1F1010104DDDDF887
:103970000480B8F1000FECD106E0A84203D24FF06A
:10398000200880F80080401CB3F10008A3F1010377
:10399000F3DC06B0BDE8F08FDF700008CE700008E1
:1039A0001CB514200A214FF480730022CDE90010C9
:1039B000044905A000F053FF0446204601F060F8DA
:1039C0001CBD0000A13300086D61696E000000009D
:1039D00070B504460D4604FB05F000F06DFB06468D
:1039E0002EB104FB05F20021304600F03CFC3046CD
:1039F00070BD000010B5044C02E020688047241D13
:103A000002488442F9D310BD7C7300088473000817
:103A100010B5044C02E020688047241D024884420F
:103A2000F9D310BD847300088C73000810B5FCF73F
:103A3000CBFB044604480088401C00B202490880C1
:103A40002046FCF7C5FB10BDCC00002010B5FCF7EC
:103A5000BBFB04460C480088401E00B20A4908809F
:103A60000846B0F9000000280ADC00200880204643
:103A7000FCF7AEFB0548006828B100F0ABFC02E0A3
:103A80002046FCF7A5FB10BDCC000020D000002094
:103A900070B5054605B970BD1D480068854203D361
:103AA0001C480068854200D3F5E7A5F10C044FF0EF
:103AB000FF31194800F05EFD608818B12088B0F52C
:103AC000F55F08D015A000F07DFA238862882146B2
:103AD00019A000F077FA002060804FF4F5502080A4
:103AE00021480068844201D21F4804600849606888
:103AF0000968611A401A1D490968081A1B490860BB
:103B00002046FFF745FE044800F00BFD00BFC2E76A
:103B1000700000207400002070080020746F206680
:103B20007265652061206261642064617461206255
:103B30006C6F636B3A0A00006D656D3A2030782532
:103B40003038782C207573656420666C61673A2084
:103B500025642C206D6167696320636F64653A207A
:103B60003078253034780A0078000020800000206A
:103B700000487047900900200048704790190020C5
:103B800070B51E4800684FF47A72B0FBF2F1B1F1E3
:103B9000807F00D31DE021F07F40401E4FF0E022E7
:103BA000506150170F22002807DA13071D0E144B1F
:103BB00000F00F04241F1D5503E013071C0E114BCA
:103BC0001C5400BF00204FF0E022906107201061DC
:103BD00000BFFCF791FEFEF749F9FCF777FEFDF711
:103BE0006BF9FFF707FFFFF7C7FF0446FFF7C0FFBA
:103BF0000546214600F06AFD70BD0000000000206F
:103C000018ED00E000E400E010B54FF0FF34202193
:103C10000D48FEF76BF940B10B48FEF72FFA04464A
:103C200020210948FEF7FEF80BE008210648FEF7C0
:103C30005DF918B108210448FEF7F4F80A2000F0F5
:103C4000CFFEE0B210BD00000038014010B50446C0
:103C5000FFF7ECFE19E020780A280AD10D210E4862
:103C6000FEF711FA00BF80210B48FEF73FF900284C
:103C7000F9D014F8011B0848FEF705FA00BF8021AF
:103C80000548FEF733F90028F9D020780028E2D162
:103C9000FFF7DCFE10BD00000038014070B505469E
:103CA0002C1D3048006838B128462E4909688847DD
:103CB000064606B970BD00BF2BA0E16B00F082F98B
:103CC0002DA0216A00F07EF92FA0616A00F07AF938
:103CD00031A0A16A00F076F933A0E16A00F072F930
:103CE00035A0216800F06EF937A0616800F06AF92C
:103CF00039A0A16800F066F93BA0E16800F062F924
:103D00003DA0216900F05EF93FA0616900F05AF919
:103D100041A0A16900F056F943A0E16900F052F911
:103D200045A0216B00F04EF947A0616B00F04AF905
:103D300049A0A16B00F046F9287800F0040048B1D2
:103D400000F076FE0646314647A000F03BF9FFF74B
:103D500047F902E04CA000F035F9FEF7C3FD00BFC3
:103D6000FEE70000640000207073723A203078256E
:103D70003038780A000000007230303A2030782560
:103D80003038780A000000007230313A203078254F
:103D90003038780A000000007230323A203078253E
:103DA0003038780A000000007230333A203078252D
:103DB0003038780A000000007230343A203078251C
:103DC0003038780A000000007230353A203078250B
:103DD0003038780A000000007230363A20307825FA
:103DE0003038780A000000007230373A20307825E9
:103DF0003038780A000000007230383A20307825D8
:103E00003038780A000000007230393A20307825C6
:103E10003038780A000000007231303A20307825BE
:103E20003038780A000000007231313A20307825AD
:103E30003038780A000000007231323A203078259C
:103E40003038780A00000000206C723A2030782563
:103E50003038780A000000002070633A203078255E
:103E60003038780A0000000068617264206661756D
:103E70006C74206F6E207468726561643A202573DB
:103E80000D0A0D0A00000000686172642066617509
:103E90006C74206F6E2068616E646C65720D0A0D23
:103EA0000A000000F0B504460D461646301D20F00D
:103EB000070040380146002203E00C4F41F8227011
:103EC000521C102AF9D30D624FF0000CC1F824C027
:103ED000C1F828C0C1F82CC0C1F830C04B638C6356
:103EE0004FF0807CC1F83CC0F0BD0000EFBEADDEFD
:103EF00010B5FCF769F9044604480078401C0349F2
:103F000008702046FCF764F910BD00006C0000202A
:103F100010B5FCF759F9044604480078401E0349DF
:103F200008702046FCF754F910BD00006C0000201A
:103F300070B504462068A0F11405284600F05AFD2B
:103F4000002070BD2DE9F04105460C469046204604
:103F500000F0ACFDB8F1000F03D0B8F1010F23D190
:103F600005E004F11401284600F062F81DE02E6817
:103F70000FE0A6F1140794F8350097F83510884241
:103F800006DA04F1140107F1140000F051F802E020
:103F90003668AE42EDD100BFAE4204D104F1140147
:103FA000284600F045F800E000BF00BF0020BDE853
:103FB000F08110B5044604F1140000F01BF8002055
:103FC00010BD00000FB438B505A80090FF210848C7
:103FD000009B049A00F044FF0446FF2C00D9FF2404
:103FE0000348FFF733FE0020009038BC5DF814FB57
:103FF00070070020406000607047406000607047BC
:104000004060006070470268516002680A600160A9
:10401000486070470268516002680A600160486049
:1040200070470268516002680A600160486070472A
:104030004268116042684A6041600860704701460A
:104040000868884201D1012070470020FCE7014642
:104050000868884201D1012070470020FCE7014632
:104060000868884201D1012070470020FCE7014622
:1040700000200A4601E01268401C13688B42FAD106
:104080007047D0E900215160D0E900121160406012
:1040900000607047D0E900215160D0E90012116042
:1040A000406000607047D0E900215160D0E9001203
:1040B00011604060006070472DE9F041054615B978
:1040C0000020BDE8F081E81C20F003054E480068A0
:1040D000854201D90020F4E70C2D00D20C254FF0C9
:1040E000FF314A4800F046FA4948006849490968E2
:1040F000461A7EE04748006884196088002874D119
:1041000006F10C006168081AA8426ED306F10C0093
:104110006168091A05F11800814230D306F10C00DC
:1041200000EB05083B48006800EB08074FF4F5502A
:1041300038800020788060687860BE60C4F80480B1
:10414000012060803048796800680C30814205D0D9
:104150003049786809680844C0F808802E4801682A
:1041600005F10C0008442C4908602C4800680968D7
:10417000884219D2284800682849086014E00120C4
:104180006080244960680968611A401A22490968F8
:10419000084421490860214800680968884203D220
:1041A0001D4800681D4908604FF4F55020801848EC
:1041B0000068844212D107E015480068406815493C
:1041C000096808441249086011480068408828B10D
:1041D0000F480068124909688842EDD10B4800F089
:1041E000A0F904F10C006CE7FFE70A4800683044CE
:1041F000466805480068401BB0423FF67BAF034865
:1042000000F08FF900205CE77C000020700800209F
:104210007800002070000020800000208400002032
:104220007400002070B50C46014623468B4210D224
:104230009D188D420DD91144134405E05D1E2B4697
:104240002E784D1E29462E70151EA2F10102F5D1C1
:1042500008E003E013F8015B01F8015B151EA2F111
:104260000102F7D170BDF0B50C460546E6B2042A4E
:1042700015D300F0030797B9014646EA062343EA3F
:10428000034304E008C108C108C108C1103A102A5C
:10429000F8D201E008C1121F042AFBD20D4601E04A
:1042A00005F8016B171EA2F10102F9D1F0BD2DE94D
:1042B000F04106460F46304600F044F80546E868EF
:1042C000FFF7FAFE044614B90020BDE8F081002192
:1042D0002046EA68FFF7C7FF2672002060720822B6
:1042E0003946204600F0D8F9FBF76EFF804604F10E
:1042F0000C01281DFFF787FE4046FBF769FF2046AB
:10430000E3E770B5044600202072FBF75DFF054629
:1043100004F10C00FFF7B5FE2846FBF759FF2046D5
:10432000FFF7B6FB70BD70B5044600202072FBF7A6
:104330004BFF054604F10C00FFF7A3FE2846FBF7F0
:1043400047FF70BD024600210AE0074800EB01105C
:104350000078904203D1044800EB01107047491CDB
:104360000429F2DB0020F9E7880000202DE9F0475E
:1043700004460D46904600262846FFF7E3FF074611
:10438000FFF754FB7E6802E0A6F10C003668381D8A
:104390008642F9D1FFF75AFB45F0800020720822CF
:1043A0004146204600F078F9FBF70EFF814604F104
:1043B0000C01381DFFF727FE4846FBF709FFBDE853
:1043C000F0870146087A00F0800008B101207047AC
:1043D0000020FCE72DE9F041FBF7F6FE0746184800
:1043E000008838BB17480068FDF77CFE461E16485B
:1043F00050F83600A0F1140414480068844218D024
:1044000013490E701148056804601248007850B9CD
:1044100004F11C0105F11C00FBF7DDFE3846FBF73B
:10442000D7FEBDE8F08104F11C0105F11C00FBF78B
:10443000D2FE00BF3846FBF7CBFE00BFF1E700001D
:10444000CC000020C800002090080020D0000020F0
:10445000D40000206C00002070B50446FBF7B4FEC9
:10446000054614F8340F20F00F0040F001002070D2
:104470006278343C0A4B03EBC20004F11401426839
:10448000116042684A604160086000BF0549A06B46
:1044900009680843034908602846FBF799FE70BD88
:1044A00090080020C800002070B50446FBF78CFE81
:1044B000054604F11400D0E900215160D0E9001252
:1044C00011604060006000BF94F83510094A02EBAB
:1044D000C1000168814201D1012100E0002129B120
:1044E0000548A16B00688843034908602846FBF72C
:1044F0006FFE70BD90080020C80000202DE9F0413B
:1045000004460D4616461F462A4602212046FFF75E
:104510002DFF2046FFF74DFDA68367720020BDE802
:10452000F08170B504460025FBF74EFE064604F107
:104530001400FFF78CFD28B904F11400FFF7F8FC14
:1045400001250EE0A08B4FF6FF71884203DAA08BA5
:10455000401CA08305E03046FBF73AFE6FF00200F6
:1045600070BD3046FBF734FE012D01D1FFF732FF5D
:104570000020F5E773B50546FBF726FE0646A88B37
:10458000002806DDA88B401EA8833046FBF720FEDE
:1045900028E0019828B93046FBF71AFE6FF00100B9
:1045A0007CBD00F045FA0446002020636A7A21466B
:1045B00005F11400FFF7C6FC0198002809DD01AAE7
:1045C000002104F1440000F061FB04F1440000F01C
:1045D000B9FB3046FBF7FCFDFFF7FCFE206B08B192
:1045E000206BDDE70020DBE708B509A0FFF7EAFC58
:1045F0000AA0FFF7E7FC12A0052301220321009087
:1046000012A0FFF7DFFC19A0FFF7DCFC08BD0000DB
:104610000A205C207C202F0A000000002D2052542C
:10462000202D2020202020546872656164204F7066
:1046300065726174696E672053797374656D0A00E1
:10464000417072203230203230323500202F207CF1
:10465000205C202020202025642E25642E25642027
:104660006275696C642025730A00000020323030C6
:1046700036202D203230323020436F7079726967D6
:1046800068742062792072742D7468726561642088
:104690007465616D0A00000070B50346A2B118464A
:1046A0000C4600BF14F8016B00F8016B3EB902E044
:1046B000002500F8015B551E2A1EF9D102E0551EA7
:1046C0002A1EEFD100BF00BF184670BD2DE9F04192
:1046D00005460E46E81C20F0030726F00308B8F153
:1046E000180F09D9A8F11800B84205D3A8EB0700A4
:1046F00018381E49086006E0324629461CA0FFF71C
:1047000061FCBDE8F0812948076004684FF4F5506A
:104710002080164800680C3060600020A060608037
:104720002249606809680844214908604FF4F5503F
:104730000968088001201E49096848800B48006804
:104740000C301B4909684860084800680C3018495B
:10475000096888600023012216A11848FFF7CEFEE1
:10476000124800681649086000BFCAE77C000020B4
:104770006D656D20696E69742C206572726F722090
:10478000626567696E206164647265737320307856
:1047900025782C20616E6420656E642061646472EB
:1047A00065737320307825780A00000070000020BF
:1047B000740000206865617000000000700800202F
:1047C0007800002010B500200B490880002405E087
:1047D0000A4901EBC400FFF710FC641C202CF7DB36
:1047E0001F20074908700020064908600649086034
:1047F0000648FFF702FC10BDCC0000209008002006
:10480000D4000020D0000020C8000020D8000020E4
:1048100070B508480068FDF765FC451E064850F86D
:104820003500A0F114040548046004F11C00FBF7F6
:1048300000FD70BDC800002090080020D0000020BE
:1048400010B5002405E0044901EBC400FFF7D8FBD4
:10485000641C002CF7D010BDE000002070472DE94B
:10486000FF5F06460F4690461D46DDE90EAB31461A
:104870000120FFF71CFD8146B9F1000F03D1002094
:1048800004B0BDE8F09F2846FFF716FC044624B9A3
:104890004846FFF736FD0020F2E743463A463146E8
:1048A00048468DE8300CFDF779FC4846E8E7000003
:1048B00070B513480468FBF787FC05462046FDF7F2
:1048C000DEFC2046FFF7F0FD042084F8340004F1FC
:1048D000440000F00CFA2046FFF773FD012803D1D5
:1048E0002046FFF720FD04E004F114010548FFF71E
:1048F00091FBFFF76FFD2846FBF76AFC70BD0000D7
:10490000D0000020D800002001E000F001F8FCE712
:1049100070B528E0FBF758FC054600BF1348016856
:10492000814201D0012100E0002119B92846FBF79E
:104930004FFC19E00D480068A0F1140404F11400C4
:10494000D0E900215160D0E90012116040600060A0
:1049500000BFA06AFFF79CF82046FFF7D2FC28466C
:10496000FBF736FC00BFD5E700BF70BDD8000020C4
:104970001FB520201F21C200074BCDE90032CDE931
:1049800002100023054A06A1074800F00FF8064868
:1049900000F076F81FBD00007006002009490008ED
:1049A0007469646C65000000F80500202DE9FF5F64
:1049B00005460C4616461F46DDE910ABDDE90E89BB
:1049C000224601212846FFF7D1FC3B4632462146CC
:1049D00028468DE8000FFDF7E1FB04B0BDE8F09F2D
:1049E00070B50446204600F0C5F80546284600F09C
:1049F00025F870BD70B5044694F8340000F00F003F
:104A0000022802D04FF0FF3070BDFBF7DDFB0546FA
:104A100004F11400FFF73EFB04F1440000F008FA33
:104A20002846FBF7D5FB2046FFF716FD0020EBE7F5
:104A30000148006870470000D000002031B5FBF746
:104A4000C3FB05460D480468204600F02FF86A466F
:104A5000002104F1440000F019F904F1440000F0D1
:104A600071F92846FBF7B4FBFFF7B4FC206B801C00
:104A700008B900202063002038BD0000D0000020CD
:104A800010B504463434A078607061780120884005
:104A90006060022004F834092046FFF7ABFFFFF7FF
:104AA000C7FF08B1FFF796FC002010BD70B50446A3
:104AB00094F8340000F00F00012802D04FF0FF30CE
:104AC00070BDFBF781FB054694F8340020F00F0021
:104AD00040F0020084F834002046FFF7E5FC04F1C2
:104AE000440000F0A5F92846FBF772FB0020E7E739
:104AF00070B5044625466FF00100286305F11400E7
:104B0000FFF7C8FA2846FFF7A7FCFFF763FC70BD64
:104B100070B5FBF759FB05461448046894F8340057
:104B200000F00F0001281CD1D4E90510814218D0F3
:104B300004F11400FFF7AEFA94F835200C4B03EBA8
:104B4000C20004F114014268116042684A60416089
:104B5000086000BF2846FBF73BFBFFF73BFC00204B
:104B600070BD2846FBF734FB0020F9E7D000002099
:104B7000900800200146002902DA4FF0FF3014E0CF
:104B80004FF47A7291FBF2F24FF47A7302FB03F066
:104B90001A4691FBF2F302FB13124FF47A735A4355
:104BA00002F2E73292FBF3F21044704701480068CA
:104BB000704700006800002010B50A480068401CDB
:104BC00008490860FFF734FF0446206C401E20644B
:104BD000206C18B9E06B2064FFF79AFF00F004F82E
:104BE00010BD0000680000207CB56846FFF708FA99
:104BF000FFF7DCFF0546FBF7E7FA06463AE02248F6
:104C00000068A0F11404A06A281A6FF000418842DD
:104C10002ED22046FDF725FB607A00F0020018B97D
:104C2000607A20F00100607204F114016846FFF719
:104C3000F8F9D4E907108847FFF7B8FF054668463A
:104C4000FFF70DFA00B115E004F11400FFF72BFA9D
:104C5000607A00F0020060B1607A00F0010040B1BB
:104C6000607A20F001006072204600F06BF800E0EE
:104C700005E000BF0448FFF7F2F90028BFD000BFED
:104C80003046FBF7A5FA7CBDE00000202DE9F0419D
:104C900004460E461546FBF797FA0746052E1ED228
:104CA000DFE806F00603090E1300606A286017E0CB
:104CB0002868606214E0607A20F0020060720FE001
:104CC000607A40F0020060720AE0607A00F0010051
:104CD00010B10120286001E00020286000E000BF42
:104CE00000BF3846FBF774FA0020BDE8F08170B5CC
:104CF0000446FBF769FA05462046FDF7B2FA607AEA
:104D000020F0010060722846FBF762FA2046FFF7A8
:104D10000AFB002070BD2DE9F84307460C461546F6
:104D20001E46DDE9088922460A213846FFF71EFBA8
:104D30004346324629463846CDF80090FDF770FAD2
:104D4000BDE8F8832DE9F8430546FBF73DFA8046B8
:104D50002846FDF786FA687A20F001006872FFF7AE
:104D600025FF696A0844A8622F4F009700242AE0B3
:104D700019E05DF824201168142202EBC402881A9D
:104D8000826AAB6AD21A00D108E0826AAB6AD21A90
:104D90006FF000439A4200D20CE000BF5DF824009F
:104DA00000684DF824005DF8240007EBC401496851
:104DB0008842DED100BF2CB15DF824000830611CB0
:104DC0004DF82100641C002CD2D018480068401C0B
:104DD000164908600846066805F114010098FFF7B7
:104DE00020F9022412E006F0030060B9C4F10103C7
:104DF00005F1140202EBC301C4F101025DF82200C7
:104E0000FFF70FF900E003E0B608641C012CEAD9B3
:104E100000BF687A40F0010068724046FBF7D8F99D
:104E20000020BDE8F8830000E0000020E80000203A
:104E300070B50446607A00F0010010B94FF0FF3001
:104E400070BDFBF7C1F905462046FDF70AFA607A06
:104E500020F0010060722846FBF7BAF90020EFE766
:104E60002DE9FF4F89B081464C460A9809EB0006B0
:104E70004E4504D24FF0FF36A6EB09000A9077E1C9
:104E80000B980078252806D0B44202D20B980078FF
:104E90002070641C69E1002526E00B98401C0B90F3
:104EA0000B9800782D2802D145F010051CE00B98D6
:104EB00000782B2802D145F0040515E00B98007806
:104EC000202802D145F008050EE00B980078232831
:104ED00002D145F0200507E00B980078302802D178
:104EE00045F0010500E000E0D7E700BF4FF0FF37D5
:104EF0000B98007830380A2804D20BA800F0A2F9E9
:104F000007460EE00B9800782A280AD10B98401C1F
:104F10000B900C9880C80C90002F02DA7F4245F06D
:104F200010054FF0FF3A0B9800782E281CD10B98F3
:104F3000401C0B900B98007830380A2804D20BA83C
:104F400000F080F982460AE00B9800782A2806D102
:104F50000B98401C0B900C9850F804AB0C90BAF1D5
:104F6000000F01DA4FF0000A002004900B9800783F
:104F7000682803D00B9800786C2805D10B9800782E
:104F800004900B98401C0B900A2005900B98007819
:104F90006F2873D00CDC632813D004DC25286ED076
:104FA00058286DD195E064286BD06928F9D197E035
:104FB000702873D0732825D075286ED07828F0D14A
:104FC0008AE005F0100040B904E0B44201D220208C
:104FD0002070641C781E071EF7DC0C9810F8041B68
:104FE0000C90C8B20790B44201D207982070641C9C
:104FF00004E0B44201D220202070641C781E071EF9
:10500000F7DCB2E00C98006806900C98001D0C903C
:10501000069808B960A006904FF0000801E008F17A
:105020000108B84504D0069810F808000028F6D109
:10503000BAF1000F02DDD04500DDD04605F01000CA
:1050400048B904E0B44201D220202070641C3846E4
:105050007F1E4045F6DC002008900BE0B44202D2EF
:10506000069800782070641C0698401C06900898EA
:10507000401C089008984045F0DB09E026E01FE05E
:1050800032E02CE00AE0B44201D220202070641CFF
:1050900038467F1E4045F6DC67E024E0781C10B9F6
:1050A000082745F00105CDE9007A02950C9804C85F
:1050B000102331460C902046FEF7A6FB044654E030
:1050C000B44201D225202070641C4EE008200590D7
:1050D0001DE045F0400500BF1020059017E000BF1F
:1050E00045F0020500BF12E0B44201D22520207035
:1050F000641C0B98007830B1B44202D20B9800784F
:105100002070641C02E00B98401E0B902DE000BF45
:1051100004986C2807D10C9850F804BB0C9005F04B
:105120000200B8B116E0049868280BD10C9830F84A
:10513000041B1FFA81FB0C9005F0020050B10FFA1E
:105140008BFB07E00C9850F804BB0C9005F00200B4
:1051500000B100BFCDE9007A02955A46314620469B
:10516000059BFEF751FB044600BF0B98401C0B90BB
:105170000B98007800287FF483AE0A9838B1B442C7
:1051800002D20020207002E0002006F8010CA4EBFF
:1051900009000DB0BDE8F08F284E554C4C29000099
:1051A00000207047002070470020704700207047A3
:1051B00010B5FBF709F8FEF7E3FCFFF715FAFFF768
:1051C0003FFBFFF7FFFAFEF7EBFBFFF747FBFFF7AD
:1051D000CFFBFFF71DFB002010BD000070B504469B
:1051E00009A0FEF7EFFEFEF74BFA012802D1204698
:1051F000FEF752F9FDF7ECF805462246294603A0D2
:10520000FEF7E0FE70BD00000A0000002573257364
:105210000000000070B5044625680CE0A5F11406F6
:10522000314606A0FEF7CEFE2868A04202D004A0B8
:10523000FEF7C8FE2D68A542F0D170BD25730000B1
:105240002F0000000146002009E00B685A1C0A608C
:105250001A7800EB800302EB4302A2F130000A68E7
:105260001278303A0A2AF0D3704710B503461A462E
:1052700001E0521C491C107828B1087818B1107848
:105280000C78A042F5D0D01A10BD10B5FCF7EEFD99
:10529000002010BD10B51EA0FEF794FE2048018826
:1052A00020A0FEF78FFE1E48008800F0010010B11C
:1052B00022A0FEF787FE1A48008800F0020010B115
:1052C00021A0FEF77FFE1648008800F0040010B110
:1052D00020A0FEF777FE1248008800F0080010B109
:1052E0001EA0FEF76FFE0E48008800F4807010B11B
:1052F0001CA0FEF767FE0A48008800F4007010B199
:105300001BA0FEF75FFE05A0FEF75CFE10BD0000CF
:105310007573616765206661756C743A0A000000F8
:105320002AED00E05343425F434653525F554653D4
:10533000523A30782530325820000000554E44450E
:1053400046494E5354522000494E565354415445F9
:1053500020000000494E5650432000004E4F43505D
:1053600020000000554E414C49474E454420000066
:1053700044495642595A45524F20000010B5FFF794
:1053800033F9002010BD000010B5724800780028E5
:105390006CD1714890F901000A2815DD6E494978F1
:1053A0004942490048B2FBF7FBFA6B49497849008A
:1053B00048B2FBF7D3FAFBF7AFFC68A20021282024
:1053C000FBF70CFEFBF72CFF634890F9010010F18E
:1053D0000A0F15DA604949784942490048B2FBF79B
:1053E000DFFA5D494978490048B2FBF7B7FAFBF7A5
:1053F00093FC5CA220212820FBF7F0FDFBF710FFB7
:10540000554890F9010010F10A0F04DD524890F957
:105410000100002809DD504890F90100002807DB51
:105420004D4890F901000A2802DA01204949087024
:1054300048480078012819D1002047494870497828
:1054400049424A004449897802EB410148B2FBF7DE
:10545000A7FA414949784A003F49897802EB41015E
:1054600048B2FBF77BFA00203A4908703F480078C1
:1054700000286ED1384890F902000A2816DD364916
:1054800089784942490048B2FBF78AFA324989785B
:105490004942490048B2FBF761FAFBF73DFC34A2F0
:1054A00010210020FBF79AFDFBF7BAFE2A4890F97D
:1054B000020010F10A0F16DA27498978494249009B
:1054C00048B2FBF76DFA244989784942490048B24D
:1054D000FBF744FAFBF720FC27A210214920FBF739
:1054E0007DFDFBF79DFE1C4890F9020010F10A0FAC
:1054F00004DD194890F90200002809DD164890F9EA
:105500000200002807DB144890F902000A2802DA9A
:1055100001201649087015480078012819D100208B
:105520000D498870497849424A000B498978A2EBB5
:10553000410148B2FBF734FA074949784A00064965
:105540008978A2EB410148B2FBF708FA002007492D
:10555000087010BD28000020EC040020C7B0BDF882
:1055600000000000BAF3CDCB0000000029000020AD
:10557000D7F3D7AA00000000D3D2D7AA00000000BA
:1055800010B591EA030F48BF83F0004300F1EC81AE
:10559000841A71EB030C05D2121943EB0C03001BA8
:1055A00061EB0C01DFF824E14FEA1154A4EB135C2A
:1055B0001EEA430F18BF9EEA445F73D023EA0E032E
:1055C000DCF1200E21EA045143F4801332D322FA95
:1055D0000CFE10EB0E0023FA0CFE41EB0E01CCF199
:1055E000200E03FA0EFE10EB0E0051F10001B1F592
:1055F000801FCCF1200E32D201EB045112FA0EF2D0
:10560000BDE8104058BF7047401C38BF5FEA4202F7
:1056100018BF7047002814BF20F0010041F10001BD
:105620004FEA410313F5001F38BF7047A1F1C04195
:1056300000F08CB9012A43EB0302ACF1200CDCF141
:105640001F0E32BF4FF0000E23FA0CF310EB0300D5
:1056500041EB0451B4EB115FD0D0A1EB045101F543
:10566000801149085FEA300001EB04510ED350F17C
:10567000000038BF12FA0EFE08D1BDE81040C9E79D
:10568000401C38BF5FEA4202CAD1C3E7BDE8104000
:105690004FEA410313F5001F38BF7047A1F1C04125
:1056A00000F054B99EEA445F08D011EA5E0FBDE8ED
:1056B000104004BF01F0004100207047BDE81040D9
:1056C00070B500F0F5F800BF64FBBE3E0000E0FFDF
:1056D0004FEA41034FEA5353A3F58063D3F11E030E
:1056E000C8BFD3F1210C0CDD4FF0004242EAC122C9
:1056F00042EA505232FA03FC8CEAE17CACEBE170F6
:105700007047102BC4BF0020704703F5787CBCF1B4
:10571000FF3F04D06FF0004282EA2100704770B56D
:1057200000F0C6F84992248000207047F2E710F09C
:10573000004248BF4042B0FA80F310FA03F10AD0A9
:10574000C3F11D0303F580634FEA415002EB03529E
:1057500002EBD12170474FF000007047DFF848C1DD
:1057600070B51CEA111E1EBF1CEA13159EEA0C0F31
:1057700095EA0C0F00F06F8081EA030423EA4C13D2
:105780004EEAD47E21EA4C1141F4801143F4801397
:10579000AE44A1FB024CA0FB0365AEF17F7E36193F
:1057A00055EB0C05A1FB034C4CF10003A0FB021CC4
:1057B00016EB0C06654153F10003094218BF46F091
:1057C000010613F4007F0BD14FEA03314FEA053095
:1057D000340341EA155140EA16506FF003020AE023
:1057E0004FEAC3214FEAC520F40241EA555140EA8D
:1057F00056506FF0020202EB2E4201EB025585EA91
:10580000CE710AD05FEA440C18BF24F0004450F176
:10581000000041F1000120EAD47040F2FE7C6245B4
:1058200000D270BDA84214BF4FF080444FF04044F6
:10583000002E08BF0024BEF1806FA8BFA1F1C041B7
:10584000BDE8704080F282804FF0000001F1C0415D
:1058500001F0004170479EEA0C0F0CEA131518BFC7
:1058600095EA0C0F06D04FF0000081EA030E0EF00F
:10587000004170BD00F01CF88900013E00F007B83F
:1058800000F009B84FEA430C5FEA5C5C08D081EA9B
:10589000030100F05BB84FEA410C5FEA5C5CF6D1B3
:1058A0004FF00000014970470000FF070000F87F3B
:1058B0000EF1020E2EF0030E5EF8046B364205D494
:1058C000012A43EB030515F5001F12D8012841EB0F
:1058D000010C1CF5001F0CD80ED14FEAD17C15F538
:1058E000001F0CEB4C0C0CF1020C08BF4CEBD37CF2
:1058F00004E04FF0080C01E04FEAD37C0CEB4C05C0
:1059000026FA05F606F00706B6F1040C06D20EEBF1
:10591000860CBDE870404CF0010C6047DFE80CF0ED
:10592000090B02024FF000414FF00000A1F50021E9
:1059300070BD19461046012851EB010418BFD4F57B
:10594000001484BF002001F0004170BD0808A0F5DC
:1059500000114FEA3101704710B591EA030F48BFBB
:1059600083F000433FF514AE841A71EB030C07D2A9
:1059700012198CF0004C43EB0C03001B61EB0C0183
:10598000DFF8A4E14FEA1154A4EB135C1EEA430FC5
:1059900018BF9EEA445F00F0B08023EA6E035242D3
:1059A00021EA0451C3EB6E0338BF5B1EDCF1200E0D
:1059B00025D322FA0CFE10EB0E0043FA0CFE41EB4D
:1059C0000E01CCF1200E03FA0EFE10EB0E0051F189
:1059D0000001CCF1200E29D412FA0EF201EB045191
:1059E000BDE8104058BF7047401C1CBFB2F1004FCB
:1059F000704700280CBF491C20F00100704712EBD3
:105A0000020E43EB030218BF4FF0010E4EEA4202B2
:105A1000ACF1200CDCF11E0E54D943FA0CFE10EB55
:105A20000E0051F1FF31CCF11E0ED5D50EF1010E55
:105A300012FA0EFE404141EB010101EB445C5FEACA
:105A40005C5C10D910EBDE7001EB045138BFBEF185
:105A5000004FBDE8104018BF704700280CBF491C1C
:105A600020F00100704730D24FEAD42C11F500111C
:105A700024F400641BD0B1FA81F20B3AA41AA41EDC
:105A8000D2F12003914030FA03F31943904001EB27
:105A9000CC71002C01EB0451BDE81040A8BF704749
:105AA00001F1C0414FF0000001F000417047B0FA31
:105AB00080F310FA03F100D110BDE41A173C480539
:105AC000C90AE4E701EB045110BD491001EB045190
:105AD000BDE810404FEA300002E04FF0000170478F
