:020000040800F2
:10000000980A0020890100080D0600085105000823
:1000100055050008C30200081F1C0008000000006E
:100020000000000000000000000000005312000863
:100030003D03000800000000E90F00085514000807
:10004000A3010008A3010008A3010008A301000800
:10005000A3010008A3010008A3010008A3010008F0
:10006000A3010008A3010008A3010008A3010008E0
:10007000A3010008A3010008A3010008A3010008D0
:10008000A3010008A3010008A3010008A3010008C0
:10009000A3010008A3010008A3010008A3010008B0
:1000A000A3010008A3010008A3010008A3010008A0
:1000B000A3010008A3010008A3010008A301000890
:1000C000A3010008A3010008A3010008A301000880
:1000D000A3010008A301000881190008A30100087A
:1000E000A3010008A3010008A301000800F002F822
:1000F00000F03AF80AA090E8000C82448344AAF188
:100100000107DA4501D100F02FF8AFF2090EBAE885
:100110000F0013F0010F18BFFB1A43F0010318473B
:10012000203A0000403A0000103A24BF78C878C155
:10013000FAD8520724BF30C830C144BF04680C60ED
:10014000704700000023002400250026103A28BF35
:1001500078C1FBD8520728BF30C148BF0B60704739
:100160001FB51FBD10B510BD00F076F81146FFF7A2
:10017000F7FF01F00BFE00F094F803B4FFF7F2FF75
:1001800003BC00F097F80000094880470948004781
:10019000FEE7FEE7FEE7FEE7FEE7FEE7FEE7FEE737
:1001A000FEE7FEE704480549054A064B7047000094
:1001B00059140008ED00000898040020980A002057
:1001C00098060020980600204FF0013C50F8042BC0
:1001D00051F8043B9A4221D1A2EB0C03934313EA5A
:1001E000CC1317D150F8042B51F8043B9A4215D187
:1001F000A2EB0C03934313EACC130BD150F8042B5E
:1002000051F8043B9A4209D1A2EB0C03934313EA41
:10021000CC13DBD04FF00000704700BFD01A01BAFA
:10022000B1FA81F101F0180122FA01F0CB40C1F1DD
:100230002001DBB2C0B2C01A2CFA01F3D11A9143EB
:1002400011EAC311E6D1704770477047704700004C
:1002500000487047340400207546FFF7F9FFAE46AA
:1002600005006946534620F00700854618B020B5C2
:10027000FFF798FFBDE820404FF000064FF0000761
:100280004FF000084FF0000B21F00701AC46ACE83E
:10029000C009ACE8C009ACE8C009ACE8C0098D46AB
:1002A000704710B50446AFF300802046BDE810400B
:1002B000FFF763BF01491820ABBEFEE7260002002E
:1002C000704700BFFEE7000008B50121042000F0E0
:1002D0009DFE0220ADF8000010208DF803000320E1
:1002E0008DF802006946044800F04CF802210248EB
:1002F00000F027F908BD00000008014008B5022001
:10030000ADF8000048208DF803006946014800F070
:1003100039F808BD0008014008B50220ADF800001A
:1003200010208DF8030003208DF802006946024872
:1003300000F028F808BD000000080140704700B533
:10034000034603E04FF47A7000F005F8181EA3F19D
:100350000103F7D100BD00EBC001C9004FF0E0225E
:100360005161002191610521116100BF4FF0E02131
:10037000096901F480310029F8D004214FF0E0220E
:10038000116170472DE9F04102460025002600204A
:1003900000230024002791F803C00CF00F0591F80A
:1003A00003C00CF0100CBCF1000F03D091F802C098
:1003B0004CEA050591F800C0BCF1000F31D014687B
:1003C00000202BE04FF0010C0CFA00F3B1F800C054
:1003D0000CEA03069E4220D183004FF00F0C0CFA6A
:1003E00003F7BC4305FA03FC4CEA040491F803C08C
:1003F000BCF1280F06D14FF0010C0CFA00FCC2F83A
:1004000014C00AE091F803C0BCF1480F05D14FF0C9
:10041000010C0CFA00FCC2F810C0401C0828D1D313
:100420001460B1F800C0BCF1FF0F34DD5468002047
:100430002EE000F1080C4FF0010808FA0CF3B1F8B7
:1004400000C00CEA03069E4221D183004FF00F0C3E
:100450000CFA03F7BC4305FA03FC4CEA040491F8D8
:1004600003C0BCF1280F05D100F1080C08FA0CF804
:10047000C2F8148091F803C0BCF1480F07D100F115
:10048000080C4FF0010808FA0CF8C2F81080401C64
:100490000828CED35460BDE8F0810000F0B50A46CC
:1004A000002300240021002500F00046B6F1004F93
:1004B00002D11D4EF16901E01B4E7168C0F3034586
:1004C00083B200F44016B6F5401F08D121F07061E8
:1004D000154E766826F07066134F7E6012E000F4C9
:1004E0008016B6F5801F06D1032606FA05F4A1434F
:1004F00041F0706106E0460D360103FA06F6B1439D
:1005000041F0706122B1460D360103FA06F631431F
:1005100000F00046B6F1004F02D1034EF16101E058
:10052000014E7160F0BD0000000001400246002055
:1005300093680B400BB1012000E00020704741613F
:100540007047016170470AB1016100E04161704785
:1005500000BFFEE700BFFEE708B50121082000F05C
:1005600055FD10208DF803004FF47040ADF80000E9
:1005700003208DF8020069460148FFF703FF08BD1C
:10058000000C014010B50446002C0DDB4FF48041F7
:100590000C48FFF7D6FF4FF400410A48FFF7CFFFA2
:1005A000204600F017FD0CE04FF480410548FFF7AE
:1005B000C6FF4FF400410348FFF7C3FF604200F05D
:1005C00009FD10BD000C014010B50446002C0DDBE8
:1005D0004FF480510C48FFF7B4FF4FF400510A4824
:1005E000FFF7ADFF204600F0EBFC0CE04FF480512C
:1005F0000548FFF7A4FF4FF400510348FFF7A1FFA0
:10060000604200F0DDFC10BD000C014070470000AE
:100610001FB519A103C9CDE9020100200090019086
:1006200001F014FB012001F01BFB002001F0FAFA9D
:10063000052202A9302000F012F905226946102097
:1006400000F0DEF89DF80000112812D19DF801009D
:1006500022280ED19DF8020033280AD19DF803000C
:10066000442806D19DF80400552802D1002004B08A
:1006700010BD0120FBE700001122334455000000AB
:1006800070B50446072000F0D8F805462946272013
:1006900000F001F905F04000A8B1012001F0C2FA14
:1006A00020222146612000F0ABF84FF0FF316FF0BF
:1006B0001D0000F0F0F8012001F0B4FA9620FFF7D9
:1006C0004AFE002070BD0120FCE710B500F008F8DC
:1006D00000BFFFF79DFF0028FBD100F059F810BDC7
:1006E00008B501210C2000F091FC10208DF80300CA
:1006F000ADF8000003208DF8020069462248FFF79C
:1007000041FE10208DF803002020ADF800000320EA
:100710008DF8020069461C48FFF734FE10208DF862
:1007200003008020ADF8000003208DF80200694628
:100730001548FFF727FE0120ADF8000010208DF8C6
:10074000030003208DF8020069461048FFF71AFEE7
:1007500048208DF803004020ADF8000003208DF8FC
:10076000020069460848FFF70DFE0220ADF80000C0
:1007700048208DF8030003208DF8020069460348E5
:10078000FFF700FE08BD000000080140000C01401A
:1007900010B5002001F046FA2021312000F07BF84E
:1007A0004FF0FF316FF01D0000F075F8052212497F
:1007B000302000F054F8052210492A2000F04FF8AC
:1007C0000121212000F067F80121222000F063F8C8
:1007D0001A21242000F05FF80021252000F05BF8AA
:1007E0000F21262000F057F80F21202000F053F8A9
:1007F000012001F017FA10BD343B0008393B000816
:100800002DE9F04107460D461646002001F028FA72
:10081000384600F0FDFC8046002406E04FF0FF3033
:1008200000F0F6FC2855601C44B2B442F6DB01200F
:1008300001F016FA4046BDE8F08170B5044600208C
:1008400001F00EFA204600F0E3FC4FF0FF3000F01C
:10085000DFFC0546012001F003FA284670BD2DE9B2
:10086000F04107460C461546002001F0F9F93846DC
:1008700000F0CEFC8046002605E014F9010B00F0E4
:10088000C7FC701C46B2AE42F7DB012001F0E8F96C
:100890004046BDE8F08170B505460C46002001F0E9
:1008A000DFF9284600F0B4FC0646204600F0B0FC14
:1008B000012001F0D5F9304670BD000070B500216F
:1008C00000230F22C47804B3154C246804F4E064B8
:1008D000C4F5E064210AC1F10403CA40447804FA73
:1008E00003F184781440214309010E4C0678A15588
:1008F000047804F01F050124AC4005786D11AD00AB
:1009000005F1E025C5F8004109E0047804F01F0571
:100910000124AC40044D0678761145F8264070BDA0
:100920000CED00E000E400E080E100E0024901435A
:10093000024A1160704700000000FA050CED00E06B
:1009400000200CE0002106E00022064B03EBC01360
:100950005A544A1CD1B28029F6DB421CD0B2082876
:10096000F0DB7047280000202DE9F04304460D46D7
:1009700016461F467F2C01DDBDE8F0833F2D00DDCC
:10098000FAE7A119802902DDC4F18001CEB2E9198C
:10099000402902DDC5F14001CFB2284630E02346B0
:1009A00029E04FEAE07C00EB5C7C4FEAEC0CDFF8DE
:1009B0005C8008EBCC1C1CF803C002464FEAE078D0
:1009C00000EB58784FEAE808A0EBC8094FF001089F
:1009D00008FA09F82CEA080C01464FEAE07800EB27
:1009E00058784FEAE808DFF8249009EBC81808F8AF
:1009F00003C0591CCBB2A1199942D2DC411CC8B228
:100A0000E9198142CBDC00BFB6E7000028000020D6
:100A100038B5002406E0002500E06D1CB5F57A7FAE
:100A2000FBD3641CB4F57A7FF5D30121082000F0D4
:100A3000EDFA14208DF8030003208DF802004FF426
:100A40008070ADF8000069460848FFF79BFC4FF442
:100A50000070ADF8000069460448FFF793FC0120E0
:100A600000F006FA012000F00FFA38BD000C01403A
:100A700070B50546002411E080212141294009B1CB
:100A8000012100E00021084600F0FEF9012000F0FD
:100A9000EFF9002000F0ECF9601CC4B2082CEBDB8D
:100AA000012000F0E5F9002000F0E2F970BD10B57A
:100AB000012000F0E9F9012000F0DAF9002000F04F
:100AC000E3F9002000F0D4F910BD10B5002000F0CB
:100AD000DBF9012000F0CCF9012000F0D5F910BDC0
:100AE00010B5FFF795FFAE2000F0DAF9D52000F041
:100AF000D7F9802000F0D4F9A82000F0D1F93F20E8
:100B000000F0CEF9D32000F0CBF9002000F0C8F9B6
:100B1000402000F0C5F9A12000F0C2F9C82000F083
:100B2000BFF9DA2000F0BCF9122000F0B9F98120F9
:100B300000F0B6F9CF2000F0B3F9D92000F0B0F9F9
:100B4000F12000F0ADF9DB2000F0AAF9302000F030
:100B5000A7F9A42000F0A4F9A62000F0A1F98D20A7
:100B600000F09EF9142000F09BF9AF2000F098F9F6
:100B7000FFF7E6FE00F068F910BD10B5024601204F
:100B800000E050430B1EA1F10101FAD110BD70B578
:100B900005460C4645F0B00000F082F9102141EA0C
:100BA000141000F07DF904F00F0000F079F970BD29
:100BB000F8B506460F4614461D46082D0CD1A4F183
:100BC00020000E4901EB0010102308223946009046
:100BD000304600F065F80FE0062D0DD1A4F120009D
:100BE00000EB4000064901EB40000823062239468D
:100BF0000090304600F054F8F8BD00009C26000834
:100C00008C2C00082DE9FC478046894616460027B3
:100C10000020019000253AE0705D01A9C855781CBC
:100C2000C7B2022F31DB002700240CE0C4EBC40163
:100C300001EB8101184A881801A9FFF7C5FA00B92C
:100C40000CE0601CC4B2C4EBC40101EB8101124A88
:100C5000881812A1FFF7B8FA0028E7D100BFC4EB4B
:100C6000C40000EB80000C490844C01C05F1010AD7
:100C70000AEBDA714910491E08EB01110090C8B265
:100C800010231A46494600F00BF8681CC5B2705D87
:100C90000028C1D1BDE8FC87C62E00080000000076
:100CA0002DE9F04707460C4690469946DDF820A00E
:100CB0007F2F01DDBDE8F0873F2C00DDFAE74B46D2
:100CC000424621463846FFF74FFE002570E00026D9
:100CD00069E0B8197F2800DD67E0E11704EB517186
:100CE00005EBE101072900DDE4E72046E21704EB0C
:100CF000527205EBE202344B03EBC212BB19D25C19
:100D00002146E31704EB5373DB10A4EBC30305FB8D
:100D1000086C1AF80CC00CFA03FC42EA0C02E31748
:100D200004EB537305EBE303DFF89CC00CEBC31338
:100D300007EB060C03F80C20E11704EB517105EBEF
:100D4000E101491C072900DD2BE02046E21704EBF6
:100D5000527205EBE202521C1B4B03EBC212BB1991
:100D6000D25C2146E31704EB5373DB10A4EBC303FF
:100D7000C3F1080305FB086C1AF80CC04CFA03FC1D
:100D800042EA0C02E31704EB537305EBE3035B1C2D
:100D9000DFF834C00CEBC31307EB060C03F80C2090
:100DA00000BF701CC6B2464593DB00BF681CC5B2CD
:100DB000A9F10100C11700EB5171012202EBE10121
:100DC000A94284DC00BF75E7280000202DE9F04728
:100DD0000646894617461D46DDF82080002417E0A8
:100DE000281B411E0A20FFF7C8FEB7FBF0F00A21BE
:100DF000B0FBF1F201FB120000F1300A04FB0861C4
:100E0000C8B2434652464946FFF7D2FE601CC4B200
:100E1000AC42E5DBBDE8F0872DE9F04106468846A7
:100E200015461F46002409E02A5D04FB0761C8B28D
:100E30003B464146FFF7BCFE601CC4B2285D00285B
:100E4000F2D1BDE8F081000010B500240BE00021D4
:100E50002046FFF79CFE054901EBC410802100F0FD
:100E60002FF8601CC4B2082CF1DB10BD2800002054
:100E700010B5044622464FF480710248FFF763FB29
:100E800010BD0000000C014010B5044622464FF48E
:100E900000710248FFF757FB10BD0000000C014035
:100EA00010B50446FFF703FE7820FFF7E1FD0020B0
:100EB000FFF7DEFD2046FFF7DBFDFFF706FE10BD66
:100EC00070B505460E46FFF7F2FD7820FFF7D0FD1E
:100ED0004020FFF7CDFD002404E0285DFFF7C8FDAA
:100EE000601CC4B2B442F8DBFFF7EFFD70BD000038
:100EF00000B589B00121082000F088F80121042004
:100F000000F074F818208DF82300C020ADF8200000
:100F100003208DF8220008A92648FFF733FA264857
:100F200000F067FB254800F064FB0020ADF81A00D4
:100F3000ADF816006320ADF818002320ADF81400BA
:100F400000208DF81C0005A91B4800F0C7FC01A873
:100F500000F0B1FC0020ADF810006020ADF80400F6
:100F60000020ADF80C000120ADF8060001A91248E0
:100F700000F046FB0821104800F08EFB01A90E4846
:100F800000F094FB08210C4800F0E2FB01210A4824
:100F900000F008FB0121084800F010FB0020064982
:100FA00034310880091D088004494031088009B0A7
:100FB00000BD0000000C014000080040002C014072
:100FC00010B504462146024800F07FFC10BD000029
:100FD0000008004010B504462146024800F077FCA6
:100FE00010BD0000000800407047000029B1064A0B
:100FF000D2690243044BDA6104E0034AD2698243B6
:10100000014BDA61704700000010024029B1064A26
:1010100092690243044B9A6104E0034A9269824355
:10102000014B9A61704700000010024030B500216A
:101030000022002400232D4D6D6805F00C0121B124
:10104000042905D0082923D105E0294D056022E0B7
:10105000274D05601FE0254D6D6805F47012234D86
:101060006D6805F48034022505EB92421CB9214DD0
:10107000554305600BE01D4D6D6805F400351DB14D
:101080001C4D5543056002E0194D5543056002E0D3
:10109000174D056000BF00BF144D6D6805F0F001ED
:1010A0000909154D6B5C0568DD4045600F4D6D68A5
:1010B00005F4E061090A104D6B5C4568DD40856010
:1010C0000A4D6D6805F46051C90A0B4D6B5C4568AB
:1010D000DD40C560054D6D6805F44041890B074D45
:1010E0006B5CC568B5FBF3F5056130BD00100240CF
:1010F00000127A0000093D000000002010000020CE
:1011000010B540210148FFF711FA10BD0008014059
:1011100070B50025002424E000BF02211348FFF72A
:1011200005FA0028F9D02820FFF715F902210F4809
:10113000FFF7FCF901280DD100BF02210B48FFF792
:10114000F5F90128F9D0C4F1070101208840C0B2A7
:10115000054304E0C4F10701012088408543601C79
:10116000C4B2082CD8DB284670BD0000000801403E
:1011700010B50446FFF7D0F802212448FFF7DFF945
:101180001220FFF7DCF802212048FFF7DAF91E20D1
:10119000FFF7E1F8FFF7B2F802211C48FFF7C6F9A4
:1011A00080BB00BF02211948FFF7C0F90028F9D021
:1011B00000BF02211548FFF7B9F90128F9D0FFF760
:1011C000A7FF2070FFF7A4FF6070FFF7A1FFA070DA
:1011D000FFF79EFFE070FFF79BFF2071FFF79CF881
:1011E00002210A48FFF7ADF9207861780844A17818
:1011F0000844E17808442179884201D1012010BDDA
:101200000020FCE7FFE70020F9E7000000080140AC
:1012100070B50446002518E004F08000802803D152
:10122000012000F009FD02E0002000F005FD600053
:1012300044B2012000F00AFDFFF762FF204344B2F0
:10124000002000F003FD681C45B2082DE4DB2046B9
:1012500070BD704700B587B001214804FFF7C6FE96
:1012600001210420FFF7D2FE18208DF81B00042076
:10127000ADF8180003208DF81A0006A92048FFF7E2
:1012800081F848208DF81B000820ADF818000320D5
:101290008DF81A0006A91A48FFF774F84FF4165093
:1012A00002900020ADF814000C20ADF812000020D0
:1012B000ADF81000ADF80E00ADF80C0002A9114811
:1012C00000F038FC012240F225510E4800F00CFCE1
:1012D0004FF4A060FFF72AFB26208DF804000120C0
:1012E0008DF807008DF805008DF8060001A8FFF7BE
:1012F000E5FA0121034800F0B4FB07B000BD00008F
:10130000000801400044004010B50446214605484D
:1013100000F081FC00BF8021024800F0AEFB0028F5
:10132000F9D010BD0044004010B500F001F810BD28
:101330000CB50020019000903348006840F48030E4
:101340003149086000BF3048006800F40030009068
:101350000198401C0190009818B90198B0F5A06F51
:10136000F1D12948006800F4003010B1012000904C
:1013700001E0002000900098012843D12348006834
:1013800040F01000214908600846006820F0030082
:1013900008600846006840F0020008601A4840688B
:1013A000194948600846406848600846406840F46B
:1013B000806048600846406820F47C104860084619
:1013C000406840F4E81048600846006840F08070CB
:1013D000086000BF0C48006800F000700028F9D0D9
:1013E0000948406820F00300074948600846406803
:1013F00040F00200486000BF0348406800F00C0065
:101400000828F9D10CBD0000001002400020024065
:101410002DE9F04106460C461546304600F02AFC00
:10142000074639460A4800F052FA204600F022FCEE
:1014300007463946064800F04CFA284600F01AFCE8
:1014400007463946024800F046FABDE8F081000040
:10145000002C01407047000010B51348006840F0B0
:1014600001001149086008464068104908400E49CB
:101470004860084600680E4908400B490860084665
:10148000006820F4802008600846406820F4FE00D0
:1014900048604FF41F008860FFF746FF4FF0006080
:1014A0000449086010BD0000001002400000FFF871
:1014B000FFFFF6FE08ED00E000B589B0012140F61F
:1014C0000500FFF7A3FD4FF47060ADF82000182071
:1014D0008DF8230003208DF8220008A92E48FEF77E
:1014E00051FF01212D48FEF7D9FF44F61F60ADF8EA
:1014F00018004720ADF814000020ADF81A00ADF830
:10150000160005A9264800F0E9F96020ADF80400AE
:101510000120ADF806000020ADF80C0040F2DC50D0
:10152000ADF80A0001A91E4800F06AF808211C481D
:1015300000F0B2F840F2DC50ADF80A0001A91848FA
:1015400000F0B4F80821164800F002F940F2DC502F
:10155000ADF80A0001A9124800F008F90821104866
:1015600000F054F940F2DC50ADF80A0001A90C4833
:1015700000F056F908210A4800F090F901210848C6
:1015800000F010F80121064800F024F80121044879
:1015900000F014F809B000BD00080140400016003A
:1015A000002C014021B1028842F08002028004E058
:1015B00002884FF67F731A400280704721B102887B
:1015C00042F00102028004E002884FF6FE731A40E6
:1015D0000280704731B1B0F8442042F40042A0F8D4
:1015E000442005E0B0F84420C2F30E02A0F84420E5
:1015F000704701894FF6F872114001817047000071
:1016000070B5002400220023058C4FF6FE7635408D
:101610000584028C8388048B4FF68F752C40B51E91
:101620002C400D882C43751E2A400D892A434D8875
:101630002A43144DA8420BD0134DA84208D0134D95
:10164000A84205D0124DA84202D0124DA84213D193
:101650004FF6F7752A404D892A434FF6FB752A400D
:101660008D882A434FF6FF652B404FF6FF552B40E0
:101670008D892B43CD892B4383800483CD88858638
:10168000028470BD002C0140003401400040014044
:1016900000440140004801400A460021018B4FF6FA
:1016A000F7731940114301837047000070B500249F
:1016B00000220023058C4FF6EF7635400584028C1E
:1016C0008388048B48F6FF752C404FF6FF452C406D
:1016D0000D884FF6FF7606EA05252C434FF6DF7599
:1016E0002A400D8906EA05152A434D8806EA0515A4
:1016F0002A43154DA84202D0144DA8421DD14FF6E1
:101700007F752A404D894FF6FF7606EA05152A4374
:101710004FF6BF752A408D8806EA05152A434FF615
:10172000FF352B404FF2FF752B408D8906EA85056A
:101730002B43CD8906EA85052B4383800483CD881E
:101740000587028470BD0000002C01400034014078
:101750000A460021018B4FF2FF7319404FF6FF73C9
:1017600003EA0223194301837047000070B5002487
:1017700000220023058C4FF6FF6635400584028C5D
:101780008388848B4FF68F752C404FF6FC752C4068
:101790000D882C434FF6FF552A400D894FF6FF76F2
:1017A00006EA05252A434D8806EA05252A43154DF4
:1017B000A84202D0144DA8421DD14FF2FF752A4015
:1017C0004D894FF6FF7606EA05252A434FF6FF3589
:1017D0002A408D8806EA05252A434EF6FF752B40E0
:1017E0004DF6FF752B408D8906EA05152B43CD89F3
:1017F00006EA05152B4383808483CD888587028480
:1018000070BD0000002C0140003401400A46002158
:10181000818B4FF6F77319401143818370470000A5
:1018200070B5002200230024058C4EF6FF7635406B
:101830000584038C8488828B48F6FF752A404FF616
:10184000FF452A400D884FF6FF7606EA05252A4314
:101850004DF6FF752B400D8906EA05352B434D8863
:1018600006EA05352B430B4DA84202D00A4DA8428B
:1018700008D14BF6FF752C408D894FF6FF7606EAAE
:1018800085152C4384808283CD88A0F84050038442
:1018900070BD0000002C0140003401400A460021C8
:1018A000818B4FF2FF7319404FF6FF7303EA022357
:1018B0001943818370470021018041808180C1806C
:1018C000018141818181C181704781867047018793
:1018D000704781877047A0F8401070470022028847
:1018E0001D4B98420ED01D4B98420BD0B0F1804F4B
:1018F00008D01B4B984205D01A4B984202D01A4B85
:10190000984204D14FF68F731A404B881A43174BF5
:10191000984207D0164B984204D04FF6FF431A4026
:10192000CB881A4302808B8883850B8803850A4BFA
:1019300098420BD0094B984208D00E4B984205D0E4
:101940000D4B984202D00D4B984201D10B7A038681
:101950000123838270470000002C014000340140C5
:101960000004004000080040000C0040001000404F
:101970000014004000400140004401400048014084
:1019800010B540F225512B4800F084F8012850D1C1
:10199000284800F03BF928490870012027490870C1
:1019A0002548007808283ED2DFE800F03D161E26C4
:1019B0002F36040DAA2000F05DF904462146204888
:1019C000FFF783FF2FE03C2000F054F90446214646
:1019D0001B48FFF77AFF26E06FF01300FEF7F4FDD7
:1019E0001420FEF7CFFD1EE01420FEF7EDFD6FF092
:1019F0001300FEF7C7FD16E06FF01D00FEF7E4FDD3
:101A00006FF01D00FEF7BEFD0DE01E20FEF7DCFDB1
:101A10001E20FEF7B7FD06E00020FEF7D5FD0020F2
:101A2000FEF7B0FD00BF00BF40F22551014800F0B5
:101A300009F810BD004400402000002021000020D3
:101A4000002C014010B50022002340F66A14A14288
:101A500000D100BF0A1201249440A3B2DC430480E9
:101A600010BD21B1828942F40052828104E0828952
:101A70004DF6FF731A408281704702460020B1F58F
:101A8000007F00D100BF13880B400BB1012000E0A4
:101A90000020704770B50246002400230025002076
:101AA00040F66A16B14200D100BFC1F3421501F001
:101AB0001F03012606FA03F3012D02D19689334054
:101AC00006E0022D02D1168A334001E0968A3340A7
:101AD0000C12012606FA04F41688344013B10CB136
:101AE000012000E0002070BDF0B503460024002670
:101AF0000025002040F66A17B94200D100BF184601
:101B0000C1F3421401F01F06012707FA06F5012C64
:101B100001D10C3004E0022C01D1103000E014306F
:101B20001AB107682F43076002E00768AF430760F8
:101B3000F0BD00002DE9F04786B005460E460024B2
:101B4000A24600BFA1460027B08900B100BF2F46C2
:101B50002C8A4CF6FF700440F08804432C82AC8938
:101B60004EF6F3100440B088318908437189084368
:101B70000443AC81AC8A4FF6FF400440B089044373
:101B8000AC8201A8FFF752FA1F48874202D1DDF864
:101B900010A001E0DDF80CA0A88900F4004040B1DD
:101BA0000AEBCA0000EB0A1031684900B0FBF1F8FB
:101BB00007E00AEBCA0000EB0A1031688900B0FBAD
:101BC000F1F86420B8FBF0F004012009642101FB66
:101BD0001089A88900F4004040B1322000EBC90010
:101BE000B0FBF1F000F00700044308E0322000EB06
:101BF00009106421B0FBF1F000F00F0004432C81C8
:101C000006B0BDE8F0870000003801400146888832
:101C1000C0F308007047C1F308028280704700BF1C
:101C2000FEE7000010B50446224601210148FEF7F8
:101C30008AFC10BD000C014010B5044622468021EC
:101C40000148FEF780FC10BD0008014010B50446B5
:101C5000224620210148FEF776FC10BD0008014015
:101C600010B50446224610210148FEF76CFC10BD59
:101C7000000801400146B42900DDB4214FF4FA60A8
:101C80004843B42290FBF2F000F5FA7080B270473E
:101C900008B5FEF755FE082333A200212820FFF7E0
:101CA000BBF8082332A220211C20FFF7B5F83348E7
:101CB000FFF75EFA012856D1082000902F4882785D
:101CC000022310212820FFF781F808232CA21021DD
:101CD0003820FFF7A1F8082000902848C278012397
:101CE00010214020FFF772F8082000902348027866
:101CF000022330212820FFF769F8082320A2302191
:101D00003820FFF789F8082000901C484278022309
:101D100030214020FFF75AF8FFF796F817488078EF
:101D200040B2184908701548C07840B2487013484E
:101D3000007840B288701148407840B2C870FFF710
:101D400083F81148807901280DD1C120FFF7DCFA12
:101D50000A498878FFF7D8FAC220FFF7D5FA074971
:101D60000878FFF7D1FA08BD74656D703A0000007D
:101D700068756D69646974790000000016000020C0
:101D80002E0000001B00002028040020FFF794FB19
:101D9000FEF7A6FEFFF7ACF8FEF7DEFBFEF795FCBC
:101DA000FFF758FAFEF790FA01210920FFF72EF904
:101DB00001214848FEF772FBFFF77EFB88E04648AA
:101DC000FEF75EFC4448007844490870084690F9E4
:101DD000000020B1012805D0022878D174E000F07D
:101DE0008BF874E03C4890F90300012808DC3A487D
:101DF00090F90300B0F1FF3F02DB3748C07838B9F3
:101E00003548C07800EB40005A3040B23449087081
:101E1000314890F90400012808DC2F4890F90400AB
:101E2000B0F1FF3F02DB2C48007948BB2A4991F909
:101E3000040000F034FA804600222A4B00F046FAF3
:101E400006460022284B00F053F9044600F0F8F94A
:101E500040B226490870204991F9040000F01FFAA9
:101E6000064600221F4B00F031FA044600221E4BAA
:101E700000F03EF9804600F0E3F940B21C490870DA
:101E8000154890F90500072807DDAA20FFF7F2FEA4
:101E9000044621461748FFF718FD0F4890F9050042
:101EA00010F1070F07DA3C20FFF7E4FE0446214655
:101EB0001048FFF70AFD0D4B1A78094B19780C4BA7
:101EC0001878FFF7A5FA02E0FFF7E2FE00BF00BFB7
:101ED00075E70000000230002804002022000020E6
:101EE000230000200000F83F00805640240000201E
:101EF00025000020002C014010B572480078002811
:101F00006CD1714890F901000A2815DD6E494978B5
:101F10004942490048B2FEF757FB6B4949784900EE
:101F200048B2FEF72FFBFEF70BFD68A20021282028
:101F3000FEF768FEFEF788FF634890F9010010F194
:101F40000A0F15DA604949784942490048B2FEF75C
:101F50003BFB5D494978490048B2FEF713FBFEF7A9
:101F6000EFFC5CA220212820FEF74CFEFEF76CFF60
:101F7000554890F9010010F10A0F04DD524890F91C
:101F80000100002809DD504890F90100002807DB16
:101F90004D4890F901000A2802DA012049490870E9
:101FA00048480078012819D10020474948704978ED
:101FB00049424A004449897802EB410148B2FEF7A0
:101FC00003FB414949784A003F49897802EB4101C6
:101FD00048B2FEF7D7FA00203A4908703F48007827
:101FE00000286ED1384890F902000A2816DD3649DB
:101FF00089784942490048B2FEF7E6FA32498978C1
:102000004942490048B2FEF7BDFAFEF799FC34A2F6
:1020100010210020FEF7F6FDFEF716FF2A4890F982
:10202000020010F10A0F16DA27498978494249005F
:1020300048B2FEF7C9FA244989784942490048B2B2
:10204000FEF7A0FAFEF77CFC27A210214920FEF73C
:10205000D9FDFEF7F9FE1C4890F9020010F10A0FB5
:1020600004DD194890F90200002809DD164890F9AE
:102070000200002807DB144890F902000A2802DA5F
:1020800001201649087015480078012819D1002050
:102090000D498870497849424A000B498978A2EB7A
:1020A000410148B2FEF790FA074949784A000649CB
:1020B0008978A2EB410148B2FEF764FA0020074993
:1020C000087010BD1400002028040020C7B0BDF81F
:1020D00000000000BAF3CDCB000000001500002086
:1020E000D7F3D7AA00000000D3D2D7AA000000007F
:1020F00010B591EA030F48BF83F0004300F1EC8173
:10210000841A71EB030C05D2121943EB0C03001B6C
:1021100061EB0C01DFF824E14FEA1154A4EB135CEE
:102120001EEA430F18BF9EEA445F73D023EA0E03F2
:10213000DCF1200E21EA045143F4801332D322FA59
:102140000CFE10EB0E0023FA0CFE41EB0E01CCF15D
:10215000200E03FA0EFE10EB0E0051F10001B1F556
:10216000801FCCF1200E32D201EB045112FA0EF294
:10217000BDE8104058BF7047401C38BF5FEA4202BC
:1021800018BF7047002814BF20F0010041F1000182
:102190004FEA410313F5001F38BF7047A1F1C0415A
:1021A00000F08CB9012A43EB0302ACF1200CDCF106
:1021B0001F0E32BF4FF0000E23FA0CF310EB03009A
:1021C00041EB0451B4EB115FD0D0A1EB045101F508
:1021D000801149085FEA300001EB04510ED350F141
:1021E000000038BF12FA0EFE08D1BDE81040C9E762
:1021F000401C38BF5FEA4202CAD1C3E7BDE81040C5
:102200004FEA410313F5001F38BF7047A1F1C041E9
:1022100000F054B99EEA445F08D011EA5E0FBDE8B1
:10222000104004BF01F0004100207047BDE810409D
:1022300070B500F0F5F800BF64FBBE3E0000E0FFA3
:102240004FEA41034FEA5353A3F58063D3F11E03D2
:10225000C8BFD3F1210C0CDD4FF0004242EAC1228D
:1022600042EA505232FA03FC8CEAE17CACEBE170BA
:102270007047102BC4BF0020704703F5787CBCF179
:10228000FF3F04D06FF0004282EA2100704770B532
:1022900000F0C6F84992248000207047F2E710F061
:1022A000004248BF4042B0FA80F310FA03F10AD06E
:1022B000C3F11D0303F580634FEA415002EB035263
:1022C00002EBD12170474FF000007047DFF848C1A2
:1022D00070B51CEA111E1EBF1CEA13159EEA0C0FF6
:1022E00095EA0C0F00F06F8081EA030423EA4C1397
:1022F0004EEAD47E21EA4C1141F4801143F480135C
:10230000AE44A1FB024CA0FB0365AEF17F7E361903
:1023100055EB0C05A1FB034C4CF10003A0FB021C88
:1023200016EB0C06654153F10003094218BF46F055
:10233000010613F4007F0BD14FEA03314FEA053059
:10234000340341EA155140EA16506FF003020AE0E7
:102350004FEAC3214FEAC520F40241EA555140EA51
:1023600056506FF0020202EB2E4201EB025585EA55
:10237000CE710AD05FEA440C18BF24F0004450F13B
:10238000000041F1000120EAD47040F2FE7C624579
:1023900000D270BDA84214BF4FF080444FF04044BB
:1023A000002E08BF0024BEF1806FA8BFA1F1C0417C
:1023B000BDE8704080F282804FF0000001F1C04122
:1023C00001F0004170479EEA0C0F0CEA131518BF8C
:1023D00095EA0C0F06D04FF0000081EA030E0EF0D4
:1023E000004170BD00F01CF88900013E00F007B804
:1023F00000F009B84FEA430C5FEA5C5C08D081EA60
:10240000030100F05BB84FEA410C5FEA5C5CF6D177
:102410004FF00000014970470000FF070000F87FFF
:102420000EF1020E2EF0030E5EF8046B364205D458
:10243000012A43EB030515F5001F12D8012841EBD3
:10244000010C1CF5001F0CD80ED14FEAD17C15F5FC
:10245000001F0CEB4C0C0CF1020C08BF4CEBD37CB6
:1024600004E04FF0080C01E04FEAD37C0CEB4C0584
:1024700026FA05F606F00706B6F1040C06D20EEBB6
:10248000860CBDE870404CF0010C6047DFE80CF0B2
:10249000090B02024FF000414FF00000A1F50021AE
:1024A00070BD19461046012851EB010418BFD4F540
:1024B000001484BF002001F0004170BD0808A0F5A1
:1024C00000114FEA3101704710B591EA030F48BF80
:1024D00083F000433FF514AE841A71EB030C07D26E
:1024E00012198CF0004C43EB0C03001B61EB0C0148
:1024F000DFF8A4E14FEA1154A4EB135C1EEA430F8A
:1025000018BF9EEA445F00F0B08023EA6E03524297
:1025100021EA0451C3EB6E0338BF5B1EDCF1200ED1
:1025200025D322FA0CFE10EB0E0043FA0CFE41EB11
:102530000E01CCF1200E03FA0EFE10EB0E0051F14D
:102540000001CCF1200E29D412FA0EF201EB045155
:10255000BDE8104058BF7047401C1CBFB2F1004F8F
:10256000704700280CBF491C20F00100704712EB97
:10257000020E43EB030218BF4FF0010E4EEA420277
:10258000ACF1200CDCF11E0E54D943FA0CFE10EB1A
:102590000E0051F1FF31CCF11E0ED5D50EF1010E1A
:1025A00012FA0EFE404141EB010101EB445C5FEA8F
:1025B0005C5C10D910EBDE7001EB045138BFBEF14A
:1025C000004FBDE8104018BF704700280CBF491CE1
:1025D00020F00100704730D24FEAD42C11F50011E1
:1025E00024F400641BD0B1FA81F20B3AA41AA41EA1
:1025F000D2F12003914030FA03F31943904001EBEC
:10260000CC71002C01EB0451BDE81040A8BF70470D
:1026100001F1C0414FF0000001F000417047B0FAF5
:1026200080F310FA03F100D110BDE41A173C4805FD
:10263000C90AE4E701EB045110BD491001EB045154
:10264000BDE810404FEA300002E04FF00001704753
:102650004A0008BF0042F8D0B2F5001F28BF7047FB
:1026600001F000414FF0000070479EEA445F07D040
:1026700011EA5E0FBDE8104004BF00210020704742
:10268000BDE8104070B5FFF7CBFE00BF40DFF63E5F
:1026900083F00041104670470000E0FF000000009A
:1026A000000000000000000000000000000000F832
:1026B00000000000000000333000000000160E0093
:1026C000160E0000000000000000000040C078402E
:1026D000C0784000043F04043F040400007088FCFC
:1026E00008300000001820FF211E0000F008F00054
:1026F000E018000000211C031E211E0000F00888C5
:10270000700000001E21232419272110000000164C
:102710000E0000000000000000000000000000E0CB
:1027200018040200000000071820400000020418EE
:10273000E00000000040201807000000404080F04A
:10274000804040000202010F01020200000000F080
:10275000000000000101011F010101000000000054
:102760000000000000B07000000000000000000049
:102770000000000000010101010101010000000052
:1027800000000000003030000000000000000000E9
:1027900080601804006018060100000000E01008C6
:1027A0000810E000000F102020100F00001010F89B
:1027B000000000000020203F2020000000700808DA
:1027C000088870000030282422213000003008885A
:1027D000884830000018202020110E000000C02082
:1027E00010F8000000070424243F240000F80888A3
:1027F000880808000019212020110E0000E0108830
:1028000088180000000F112020110E000038080861
:10281000C83808000000003F000000000070880871
:1028200008887000001C222121221C0000E01008F2
:102830000810E0000000312222110F00000000C04B
:10284000C00000000000003030000000000000C0A8
:10285000C0000000000080B0700000000000804058
:1028600020100800000102040810200040404040F1
:102870004040400004040404040404000008102044
:102880004080000000201008040201000070480889
:102890000808F0000000003036010000C030C828F1
:1028A000E810E0000718272423140B000000C038AC
:1028B000E0000000203C23020227382008F8888826
:1028C00088700000203F202020110E00C030080832
:1028D00008083800071820202010080008F8080809
:1028E0000810E000203F202020100F0008F8888802
:1028F000E8081000203F20202320180008F88888CE
:10290000E8081000203F200003000000C030080845
:102910000838000007182020221E020008F80800CE
:102920000008F808203F210101213F20000808F895
:10293000080800000020203F2020000000000808B8
:10294000F8080800C08080807F00000008F888C078
:1029500028180800203F20012638200008F8080029
:1029600000000000203F20202020300008F8F80060
:10297000F8F80800203F003F003F200008F830C072
:102980000008F808203F200007183F00E010080862
:102990000810E0000F10202020100F0008F8080891
:1029A0000808F000203F210101010000E0100808A4
:1029B0000810E0000F18242438504F0008F88888C9
:1029C00088887000203F2000030C302000708808A9
:1029D000080838000038202121221C00180808F8B7
:1029E000080818000000203F2000000008F8080038
:1029F0000008F808001F202020201F000878880009
:102A000000C83808000007380E010000F80800F878
:102A10000008F800033C0700073C03000818688022
:102A20008068180820302C03032C30200838C80098
:102A3000C83808000000203F2000000010080808E7
:102A4000C83808002038262120201800000000FE89
:102A5000020202000000007F40404000000C30C035
:102A600000000000000000010638C0000002020261
:102A7000FE000000004040407F00000000201008E1
:102A8000040810200000000000000000000000000A
:102A90000000000080808080808080800002040828
:102AA0000000000000000000000000000000808026
:102AB000808000000019242222223F2008F8008094
:102AC00080000000003F112020110E000000008057
:102AD00080800000000E11202020110000000080E6
:102AE0008088F800000E112020103F200000808018
:102AF00080800000001F222222221300008080F02C
:102B0000888888180020203F202000000000808056
:102B100080808000006B94949493600008F800809B
:102B200080800000203F210000203F2000809898F6
:102B3000000000000020203F202000000000008056
:102B40009898000000C08080807F000008F8000096
:102B500080808000203F24022D302000000808F8EB
:102B6000000000000020203F2020000080808080A6
:102B700080808000203F20003F20003F00808000B8
:102B80008080000000203F2100203F200000808046
:102B900080800000001F202020201F0080800080F7
:102BA0008000000080FFA12020110E0000000080A6
:102BB00080808000000E112020A0FF808080800097
:102BC0008080800020203F212000010000008080C4
:102BD000808080000033242424241900008080E0B9
:102BE000808000000000001F202000008080000086
:102BF00000808000001F202020103F208080800067
:102C00000080808000010E30080601008080008076
:102C1000008080800F300C030C300F00008080009B
:102C2000808080000020312E0E31200080808000C6
:102C30000080808080818E70180601000080808076
:102C4000808080000021302C222130000000000014
:102C5000807C020200000000003F404000000000B5
:102C6000FF00000000000000FF0000000002027CE6
:102C7000800000000040403F000000000080404015
:102C80008000008000000000000101000000000042
:102C900000000000002F00000000070007000014E3
:102CA0007F147F1400242A7F2A12002313086462F1
:102CB00000364955225000000007000000001C2289
:102CC0004100000041221C000014083E08140008C6
:102CD000083E0808000000A0600000080808080876
:102CE000000060600000002010080402003E51490E
:102CF000453E0000427F40000042615149460021AC
:102D000041454B31001814127F10002745454539C5
:102D1000003C4A4949300001710905030036494920
:102D2000493600064949291E0000363600000000D9
:102D30005636000000081422410000141414141424
:102D4000000041221408000201510906003E4955C5
:102D5000592E007C1211127C007F49494936003EF1
:102D600041414122007F4141221C007F49494941A4
:102D7000007F09090901003E4149497A007F08089E
:102D8000087F0000417F4100002040413F01007F5B
:102D900008142241007F40404040007F020C027F27
:102DA000007F0408107F003E4141413E007F090939
:102DB0000906003E4151215E007F0919294600465F
:102DC000494949310001017F0101003F4040403F36
:102DD000001F2040201F003F4038403F0063140880
:102DE000146300070870080700615149454300005B
:102DF0007F414100000204081020000041417F0093
:102E00000004020102040040404040400000010272
:102E10000400002054545478007F4844443800385B
:102E20004444442000384444487F003854545418E3
:102E300000087E0901020018A4A4A47C007F0804F5
:102E400004780000447D4000004080847D00007FC5
:102E5000102844000000417F4000007C04180478E2
:102E6000007C0804047800384444443800FC2424DE
:102E700024180018242418FC007C080404080048C6
:102E80005454542000043F444020003C4040207CE7
:102E9000001C2040201C003C4030403C00442810D6
:102EA0002844001CA0A0A07C004464544C440000B2
:102EB000087F41000000007F00000000417F080003
:102EC000000804081008A3AC000000000000000087
:102ED0000000000000000000000000583800000062
:102EE000000000000000000000A1A300000000009E
:102EF0000000000000000000000000000000182496
:102F0000241800000000000000000000C7B0000806
:102F100008E8292E28E80808C80C0BE80808000073
:102F200000FF0949897F00000F40807F000000BD3D
:102F3000F800404042CC00808888FF8888FF88885D
:102F400080000040201F2040504C4340405F4040E4
:102F50004000BAF300000000FC2424242422222292
:102F600023222020004020180700FE424242424215
:102F700042FE000000CDCB00404042CC0000FF49A3
:102F800049C949497F8000000040201F20405F4818
:102F90004440414245584000D7F3000808080888DB
:102FA000780F08080808080808080020104846415B
:102FB0004141417F41414141404000D7AA00C8B84A
:102FC0008FE88888404848E85F484848400008182B
:102FD00008FF040400020B1222D20A060000D3D21A
:102FE0000008080808C8380F080808080808080872
:102FF0000008040201FF41414141414141FF0000FD
:1030000000000000FF01010131090909098971016E
:10301000010101FFFF808080808080968180808018
:10302000808080FFFF01818181FD8991A1C1FD81A7
:10303000818101FFFF808080809F888482819F80C2
:10304000808080FF00000000000000000000000001
:103050000000000000000000000000000000000070
:103060000000000000000000000000000000000060
:103070000000000000000000000000000000000050
:10308000000060F0F8F8F0600000000000000000B0
:1030900000000000000060F0F8F8F06000000000A0
:1030A0000000000000000000000000000000000020
:1030B0000000000000000101000000007060C080FE
:1030C00080808080C060700000000101000000006E
:1030D00000000000000000000000000000000000F0
:1030E00000000000000000000000000000000000E0
:1030F00000000000000000000000000000000000D0
:1031000000000000000000000000000000000000BF
:1031100000000000000000000000000000000000AF
:10312000000000000000000000000000000000009F
:10313000000000000000000000000000000000008F
:103140000000000000E0E020202020E0E00000007F
:10315000000000000000000000000000000000006F
:1031600000E0E020202020E0E0000000000000005F
:103170000000000000000003030000000003030043
:10318000000000C06020301010101010302060C00F
:103190000000000303000000000303000000000023
:1031A000000000000000000000000000000000001F
:1031B0000000000000070000000000000000000008
:1031C00000070000000000000000000000000000F8
:1031D00000000000C0E0F0F8F8F8F8F8F8F8F8F8A7
:1031E000F8F8F8F0E0C0FFFFFFFFFF03030303035D
:1031F000030303FFFFFFFFFFFFFFFFFFFF000000D0
:103200000000000000FFFFFFFFFFFFFFFFFFFF8048
:1032100080808080808080FFFFFFFFFF0F1F3F7F47
:103220007F7F7F7F7F7F7F7F7F7F7F3F1F0F0000BC
:10323000000000000000000000000000000000008E
:103240000000000080C0E0F0F8F8F8F8F800000096
:103250000000000406070707FFFFFFFFFFFFFF0056
:1032600000000000000000000000FFFFFFFFFFFF64
:10327000FF0000000000000000000000FFFFFFFF53
:10328000FFFFFF000000000000406070787C7F7F3F
:103290007F7F7F7F7F7C78706040000000000000AF
:1032A000000000000000000000000000C0E0F0F09E
:1032B000F8F8F8F8F8F8F8F8F8F0E0E0C0007F3F28
:1032C0001F0F070301010103070FFFFFFFFFFFFFB0
:1032D0000000000080C0E0F0F8FCFEFFFFFFFF7F71
:1032E0003F1FF8FCFEFFFFFF7F3F3F1F0F0703015B
:1032F000000000001F3F3F3F3F3F3F3F3F3F3F3FFA
:103300003F3F3F3F3F3F0000000000000000000043
:103310000000000000000000C0E0F0F8F8F8F8F845
:10332000F8F8F8F8F8F8F0E0C080070703010101A9
:1033300001010101010307FFFFFFFFFF78FCFCFC17
:10334000FCFCFCFCFCFCFCFEFFFFFFFFFFFF8080A1
:103350000000000000000000000183FFFFFFFFFFEE
:103360000F1F3F7E7E7E7E7E7E7E7E7F7F7F3F1F25
:103370000F07000000000000000000000000000037
:1033800000000000F0F8F8F8F8F00000000000007D
:10339000F0F8F8F8F8F0FFFFFFFFFFFF0000000073
:1033A0000000FFFFFFFFFFFF7FFFFFFFFFFFFCF8B5
:1033B000F8F8F8FCFFFFFFFFFFFF0000000000002F
:1033C000000000000001FFFFFFFFFFFF0000000002
:1033D00000000000000000007F7F7F7F7F7F0000F3
:1033E00000000000000000000000000000000000DD
:1033F000C0E0F0F8F8F8F8F8F8F8F8F8F8F8F8F8A5
:10340000F8F8FFFFFFFFFFFF870301010101010142
:10341000010101011F3F7FFFFFFFFFFFFEFEFEFED8
:10342000FEFEFEFEFCF8000000000000000000812F
:10343000C3FFFFFFFFFFFFFF7F7F7F7F7F7F7F7FD8
:103440007F7F7F7F7F7F7F3F1F0F00000000000096
:10345000000000000000000000000000F0F8F8F894
:10346000F8F8F8F8F8F8F8F8F8F8F8F8F8F0FFFFD6
:10347000FFFFFF0301010101010101010101030738
:10348000FFFFFFFFFFFEFCFCFCFCFCFCFCFCFCFC6B
:10349000F8F0FFFFFFFFFF0100000000000001FF48
:1034A000FFFFFFFF1F3F3F3F3F3F3E3E3E3E3E3E52
:1034B0003F3F3F3F3F1F00000000000000000000B2
:1034C0000000000000000000F8F8F8F8F8F8F8F83C
:1034D000F8F8F8F8F8F8F8F8F0E007070707070732
:1034E000070787E7FFFFFFFFFFFFFFFF0000000068
:1034F00080E0F8FEFFFFFFFFFFFF3F0F030080E0CB
:10350000F8FEFFFFFFFFFFFF3F0F0300000000007A
:103510003F3F3F3F3F3F3F0F0300000000000000E0
:10352000000000000000000000000000000000009B
:1035300000000000E0F0F8F8F8F8F8F8F8F8F8F80B
:10354000F8F8F8F8F0E0FFFFFFFFFF0301010101C9
:10355000010103FFFFFFFFFFFFFFFFFFFFFEFCFC7A
:10356000FCFCFCFCFEFFFFFFFFFFFFFFFFFFFF81F6
:1035700000000000000081FFFFFFFFFF0F1F3F3F23
:103580003F3F3F3F3F3F3F3F3F3F3F3F1F0F000019
:10359000000000000000000000000000000000002B
:1035A000E0F0F8F8F8F8F8F8F8F8F8F8F8F8F8F8BB
:1035B000F0E0FFFFFFFFFF0301010101010103FF35
:1035C000FFFFFFFF1F3F7F7F7F7E7C7C7C7C7C7CBE
:1035D000FEFFFFFFFFFFC0C0C0C0C08000000000B2
:1035E000000080FFFFFFFFFF0F1F3F3F3F3F3F3FB8
:1035F0003F3F3F3F3F3F3F3F1F0F000000000000A5
:10360000000000000000000000000000F8F8F8F8DA
:1036100038383838383838383838F8F8F8F8FFFF9C
:10362000FFFF78787878787878787878FFFFFFFFF0
:10363000FFFFFFFF00000000000000000000FFFF90
:10364000FFFFFFFFFFFF0000000000000000000080
:10365000FFFFFFFF7F7F7F7F606060606060606072
:1036600060607F7F7F7F000000000000000000009E
:103670000000000000000000C0E0F0F8F8F8F8F8E2
:10368000F8F8F8F8F8F8F8F0E0C0FFFFFFFFFF03E4
:1036900003030303030303FFFFFFFFFFFFFFFFFF1E
:1036A000FF0000000000000000FFFFFFFFFFFFFF22
:1036B000FFFFFF8080808080808080FFFFFFFFFF12
:1036C0000F1F3F7F7F7F7F7F7F7F7F7F7F7F7F3F5A
:1036D0001F0F0000000000000000000000000000BC
:1036E000000000000000000080C0E0F0F8F8F8F8EA
:1036F000F80000000000000406070707FFFFFFFFB7
:10370000FFFFFF0000000000000000000000FFFFBE
:10371000FFFFFFFFFF0000000000000000000000AE
:10372000FFFFFFFFFFFFFF00000000000040607090
:10373000787C7F7F7F7F7F7F7F7C78706040000018
:103740000000000000000000000000000000000079
:10375000C0E0F0F0F8F8F8F8F8F8F8F8F8F0E0E081
:10376000C0007F3F1F0F070301010103070FFFFF89
:10377000FFFFFFFF0000000080C0E0F0F8FCFEFF4C
:10378000FFFFFF7F3F1FF8FCFEFFFFFF7F3F3F1F54
:103790000F070301000000001F3F3F3F3F3F3F3F37
:1037A0003F3F3F3F3F3F3F3F3F3F000000000000A3
:1037B000000000000000000000000000C0E0F0F881
:1037C000F8F8F8F8F8F8F8F8F8F8F0E0C08007072B
:1037D0000301010101010101010307FFFFFFFFFFD9
:1037E00078FCFCFCFCFCFCFCFCFCFCFEFFFFFFFF8F
:1037F000FFFF80800000000000000000000183FF48
:10380000FFFFFFFF0F1F3F7E7E7E7E7E7E7E7E7FE0
:103810007F7F3F1F0F070000000000000000000036
:103820000000000000000000F0F8F8F8F8F00000D8
:1038300000000000F0F8F8F8F8F0FFFFFFFFFFFFCE
:10384000000000000000FFFFFFFFFFFF7FFFFFFF02
:10385000FFFFFCF8F8F8F8FCFFFFFFFFFFFF000098
:1038600000000000000000000001FFFFFFFFFFFF5D
:103870000000000000000000000000007F7F7F7F4C
:103880007F7F00000000000000000000000000003A
:1038900000000000C0E0F0F8F8F8F8F8F8F8F8F8E0
:1038A000F8F8F8F8F8F8FFFFFFFFFFFF87030101C2
:1038B00001010101010101011F3F7FFFFFFFFFFF28
:1038C000FEFEFEFEFEFEFEFEFCF800000000000014
:1038D00000000081C3FFFFFFFFFFFFFF7F7F7F7FAF
:1038E0007F7F7F7F7F7F7F7F7F7F7F3F1F0F0000F6
:1038F00000000000000000000000000000000000C8
:10390000F0F8F8F8F8F8F8F8F8F8F8F8F8F8F8F83F
:10391000F8F0FFFFFFFFFF030101010101010101B9
:1039200001010307FFFFFFFFFFFEFCFCFCFCFCFCAA
:10393000FCFCFCFCF8F0FFFFFFFFFF0100000000B3
:10394000000001FFFFFFFFFF1F3F3F3F3F3F3E3EA5
:103950003E3E3E3E3F3F3F3F3F1F00000000000015
:10396000000000000000000000000000F8F8F8F877
:10397000F8F8F8F8F8F8F8F8F8F8F8F8F0E00707C9
:1039800007070707070787E7FFFFFFFFFFFFFFFFA7
:103990000000000080E0F8FEFFFFFFFFFFFF3F0F89
:1039A000030080E0F8FEFFFFFFFFFFFF3F0F030073
:1039B000000000003F3F3F3F3F3F3F0F030000003C
:1039C00000000000000000000000000000000000F7
:1039D0000000000000000000E0F0F8F8F8F8F8F847
:1039E000F8F8F8F8F8F8F8F8F0E0FFFFFFFFFF0349
:1039F00001010101010103FFFFFFFFFFFFFFFFFFC7
:103A0000FFFEFCFCFCFCFCFCFEFFFFFFFFFFFFFFDA
:103A1000FFFFFF8100000000000081FFFFFFFFFFAC
:103A20000F1F3F3F3F3F3F3F3F3F3F3F3F3F3F3FF6
:103A30001F0F000000000000000000000000000058
:103A400000000000E0F0F8F8F8F8F8F8F8F8F8F8F6
:103A5000F8F8F8F8F0E0FFFFFFFFFF0301010101B4
:103A6000010103FFFFFFFFFF1F3F7F7F7F7E7C7C05
:103A70007C7C7C7CFEFFFFFFFFFFC0C0C0C0C0801D
:103A800000000000000080FFFFFFFFFF0F1F3F3F0F
:103A90003F3F3F3F3F3F3F3F3F3F3F3F1F0F000004
:103AA0000000000000000000000000000000000016
:103AB0000000000000000000000000000000000006
:103AC00000000000000000000000000000000000F6
:103AD00000000000000000000000000000000000E6
:103AE00000000000000000000000000000000000D6
:103AF00000000000000000000000000000000000C6
:103B000000000000000000000000000000000000B5
:103B100000000000000000000000000080808080A5
:103B20003F3F3F3F00000000F0F0F0F007070707BD
:103B300000000000FFFFFFFFFFFFFFFFFFFF00008F
:103B4000603B000800000020280000002801000859
:103B5000883B000828000020700A0000440100088B
:103B60000000000001020304010203040607080923
:103B70000204060800000000000000010000000030
:083B800000000000000000003D
:04000005080000ED02
:00000001FF
